{"contracts/Logic.sol":{"Logic":{"abi":[{"inputs":[{"internalType":"address","name":"_verifier","type":"address"},{"internalType":"address","name":"_nft","type":"address"},{"internalType":"uint256","name":"_baseFee","type":"uint256"},{"internalType":"address","name":"_feeReceiver","type":"address"},{"internalType":"uint256","name":"_feeCliff","type":"uint256"}],"stateMutability":"nonpayable","type":"constructor"},{"anonymous":false,"inputs":[{"indexed":true,"internalType":"address","name":"holder","type":"address"},{"indexed":true,"internalType":"bytes32","name":"deviceHash","type":"bytes32"},{"indexed":true,"internalType":"uint256","name":"tokenId","type":"uint256"}],"name":"Claimed","type":"event"},{"anonymous":false,"inputs":[{"indexed":true,"internalType":"address","name":"previousOwner","type":"address"},{"indexed":true,"internalType":"address","name":"newOwner","type":"address"}],"name":"OwnershipTransferred","type":"event"},{"inputs":[],"name":"NFT","outputs":[{"internalType":"contract LocationNFT","name":"","type":"address"}],"stateMutability":"view","type":"function"},{"inputs":[{"internalType":"int256","name":"_lat","type":"int256"},{"internalType":"int256","name":"_long","type":"int256"},{"internalType":"uint256","name":"_maxDistance","type":"uint256"},{"internalType":"uint256","name":"_time_from","type":"uint256"},{"internalType":"uint256","name":"_time_to","type":"uint256"},{"internalType":"uint256","name":"_tokens_count","type":"uint256"}],"name":"addAirDrop","outputs":[],"stateMutability":"payable","type":"function"},{"inputs":[{"internalType":"bytes32","name":"","type":"bytes32"}],"name":"airDrops","outputs":[{"internalType":"uint256","name":"tokenId","type":"uint256"},{"internalType":"int256","name":"lat","type":"int256"},{"internalType":"int256","name":"long","type":"int256"},{"internalType":"uint256","name":"maxDistance","type":"uint256"},{"internalType":"uint256","name":"time_from","type":"uint256"},{"internalType":"uint256","name":"time_to","type":"uint256"},{"internalType":"uint256","name":"tokens_count","type":"uint256"},{"internalType":"uint256","name":"tokens_minted","type":"uint256"}],"stateMutability":"view","type":"function"},{"inputs":[],"name":"airDropsCount","outputs":[{"internalType":"uint256","name":"","type":"uint256"}],"stateMutability":"view","type":"function"},{"inputs":[{"internalType":"uint256","name":"","type":"uint256"}],"name":"airDropsHashes","outputs":[{"internalType":"bytes32","name":"","type":"bytes32"}],"stateMutability":"view","type":"function"},{"inputs":[{"internalType":"uint256","name":"_tokens_count","type":"uint256"}],"name":"calculateFee","outputs":[{"internalType":"uint256","name":"_postingFee","type":"uint256"}],"stateMutability":"view","type":"function"},{"inputs":[{"internalType":"int256","name":"_lat","type":"int256"},{"internalType":"int256","name":"_long","type":"int256"},{"internalType":"uint256","name":"_distance","type":"uint256"},{"internalType":"uint256","name":"_time_from","type":"uint256"},{"internalType":"uint256","name":"_time_to","type":"uint256"},{"internalType":"bytes32","name":"_deviceHash","type":"bytes32"},{"internalType":"bytes","name":"signature","type":"bytes"}],"name":"claim","outputs":[],"stateMutability":"nonpayable","type":"function"},{"inputs":[],"name":"owner","outputs":[{"internalType":"address","name":"","type":"address"}],"stateMutability":"view","type":"function"},{"inputs":[],"name":"renounceOwnership","outputs":[],"stateMutability":"nonpayable","type":"function"},{"inputs":[{"internalType":"uint256","name":"cliff","type":"uint256"}],"name":"setFeeCliff","outputs":[],"stateMutability":"nonpayable","type":"function"},{"inputs":[{"internalType":"address","name":"_receiver","type":"address"}],"name":"setFeeReceiver","outputs":[],"stateMutability":"nonpayable","type":"function"},{"inputs":[{"internalType":"address","name":"newOwner","type":"address"}],"name":"transferOwnership","outputs":[],"stateMutability":"nonpayable","type":"function"},{"inputs":[],"name":"verifier","outputs":[{"internalType":"contract VerifierInterface","name":"","type":"address"}],"stateMutability":"view","type":"function"}],"evm":{"bytecode":{"linkReferences":{},"object":"60806040523480156200001157600080fd5b5060405162002105380380620021058339818101604052810190620000379190620002ab565b620000576200004b6200013a60201b60201c565b6200014260201b60201c565b6001808190555084600260006101000a81548173ffffffffffffffffffffffffffffffffffffffff021916908373ffffffffffffffffffffffffffffffffffffffff16021790555083600360006101000a81548173ffffffffffffffffffffffffffffffffffffffff021916908373ffffffffffffffffffffffffffffffffffffffff1602179055508260058190555081600460006101000a81548173ffffffffffffffffffffffffffffffffffffffff021916908373ffffffffffffffffffffffffffffffffffffffff16021790555080600681905550505050505062000333565b600033905090565b60008060009054906101000a900473ffffffffffffffffffffffffffffffffffffffff169050816000806101000a81548173ffffffffffffffffffffffffffffffffffffffff021916908373ffffffffffffffffffffffffffffffffffffffff1602179055508173ffffffffffffffffffffffffffffffffffffffff168173ffffffffffffffffffffffffffffffffffffffff167f8be0079c531659141344cd1fd0a4f28419497f9722a3daafe3b4186f6b6457e060405160405180910390a35050565b600080fd5b600073ffffffffffffffffffffffffffffffffffffffff82169050919050565b600062000238826200020b565b9050919050565b6200024a816200022b565b81146200025657600080fd5b50565b6000815190506200026a816200023f565b92915050565b6000819050919050565b620002858162000270565b81146200029157600080fd5b50565b600081519050620002a5816200027a565b92915050565b600080600080600060a08688031215620002ca57620002c962000206565b5b6000620002da8882890162000259565b9550506020620002ed8882890162000259565b9450506040620003008882890162000294565b9350506060620003138882890162000259565b9250506080620003268882890162000294565b9150509295509295909350565b611dc280620003436000396000f3fe6080604052600436106100c25760003560e01c806399a5d7471161007f578063c9f2f32911610059578063c9f2f3291461026f578063d8a25fb31461028b578063efdcd974146102b6578063f2fde38b146102df576100c2565b806399a5d747146101cc578063a2ef24cc14610209578063bc35c90214610246576100c2565b806327ca0e23146100c75780632b7ac3f31461010b578063715018a6146101365780637c0b8de21461014d578063839adbb8146101785780638da5cb5b146101a1575b600080fd5b3480156100d357600080fd5b506100ee60048036038101906100e99190610edd565b610308565b604051610102989796959493929190610f3c565b60405180910390f35b34801561011757600080fd5b50610120610350565b60405161012d9190611039565b60405180910390f35b34801561014257600080fd5b5061014b610376565b005b34801561015957600080fd5b5061016261038a565b60405161016f9190611075565b60405180910390f35b34801561018457600080fd5b5061019f600480360381019061019a919061122e565b6103b0565b005b3480156101ad57600080fd5b506101b661087d565b6040516101c3919061130d565b60405180910390f35b3480156101d857600080fd5b506101f360048036038101906101ee9190611328565b6108a6565b6040516102009190611355565b60405180910390f35b34801561021557600080fd5b50610230600480360381019061022b9190611328565b6108de565b60405161023d919061137f565b60405180910390f35b34801561025257600080fd5b5061026d60048036038101906102689190611328565b610902565b005b6102896004803603810190610284919061139a565b610914565b005b34801561029757600080fd5b506102a0610bd9565b6040516102ad9190611355565b60405180910390f35b3480156102c257600080fd5b506102dd60048036038101906102d89190611453565b610be6565b005b3480156102eb57600080fd5b5061030660048036038101906103019190611453565b610c32565b005b60086020528060005260406000206000915090508060000154908060010154908060020154908060030154908060040154908060050154908060060154908060070154905088565b600260009054906101000a900473ffffffffffffffffffffffffffffffffffffffff1681565b61037e610cb5565b6103886000610d33565b565b600360009054906101000a900473ffffffffffffffffffffffffffffffffffffffff1681565b6103b8610df7565b6000600260009054906101000a900473ffffffffffffffffffffffffffffffffffffffff1673ffffffffffffffffffffffffffffffffffffffff1663d6c037ad338a8a8a8a8a8a6040518863ffffffff1660e01b81526004016104219796959493929190611480565b602060405180830381865afa15801561043e573d6000803e3d6000fd5b505050506040513d601f19601f820116820180604052508101906104629190611504565b9050600260009054906101000a900473ffffffffffffffffffffffffffffffffffffffff1673ffffffffffffffffffffffffffffffffffffffff1663258ae58282846040518363ffffffff1660e01b81526004016104c19291906115b0565b602060405180830381865afa1580156104de573d6000803e3d6000fd5b505050506040513d601f19601f820116820180604052508101906105029190611618565b610541576040517f08c379a0000000000000000000000000000000000000000000000000000000008152600401610538906116a2565b60405180910390fd5b60006105508989898989610e46565b905060001515600960003373ffffffffffffffffffffffffffffffffffffffff1673ffffffffffffffffffffffffffffffffffffffff168152602001908152602001600020600083815260200190815260200160002060009054906101000a900460ff161515146105f6576040517f08c379a00000000000000000000000000000000000000000000000000000000081526004016105ed90611734565b60405180910390fd5b6000600860008381526020019081526020016000206040518061010001604052908160008201548152602001600182015481526020016002820154815260200160038201548152602001600482015481526020016005820154815260200160068201548152602001600782015481525050905060008160600151116106b0576040517f08c379a00000000000000000000000000000000000000000000000000000000081526004016106a7906117a0565b60405180910390fd5b60008160c0015111156107145760008160e001518260c001516106d391906117ef565b11610713576040517f08c379a000000000000000000000000000000000000000000000000000000000815260040161070a90611895565b60405180910390fd5b5b6001600960003373ffffffffffffffffffffffffffffffffffffffff1673ffffffffffffffffffffffffffffffffffffffff168152602001908152602001600020600084815260200190815260200160002060006101000a81548160ff021916908315150217905550600360009054906101000a900473ffffffffffffffffffffffffffffffffffffffff1673ffffffffffffffffffffffffffffffffffffffff166340d097c3336040518263ffffffff1660e01b81526004016107d8919061130d565b600060405180830381600087803b1580156107f257600080fd5b505af1158015610806573d6000803e3d6000fd5b505050508060000151823373ffffffffffffffffffffffffffffffffffffffff167f9b01158d4bc10c112ba32b5240cda97e49e2eb86021f03f6a0f460342ac4dfda60405160405180910390a48060e0018051809190610865906118b5565b81525050505050610874610e82565b50505050505050565b60008060009054906101000a900473ffffffffffffffffffffffffffffffffffffffff16905090565b600060065482106108c8576006546005546108c191906118fd565b90506108d9565b816005546108d691906118fd565b90505b919050565b600781815481106108ee57600080fd5b906000526020600020016000915090505481565b61090a610cb5565b8060068190555050565b7fffffffffffffffffffffffffffffffffffffffffffffffffffffffffffffffa686121580156109455750605a8613155b610984576040517f08c379a000000000000000000000000000000000000000000000000000000000815260040161097b9061198b565b60405180910390fd5b7fffffffffffffffffffffffffffffffffffffffffffffffffffffffffffffff4c85131580156109b5575060b48513155b6109f4576040517f08c379a00000000000000000000000000000000000000000000000000000000081526004016109eb906119f7565b60405180910390fd5b60008411610a37576040517f08c379a0000000000000000000000000000000000000000000000000000000008152600401610a2e90611a63565b60405180910390fd5b610a40816108a6565b341015610a82576040517f08c379a0000000000000000000000000000000000000000000000000000000008152600401610a7990611af5565b60405180910390fd5b6000610a918787878787610e46565b90506000600860008381526020019081526020016000206003015414610aec576040517f08c379a0000000000000000000000000000000000000000000000000000000008152600401610ae390611b61565b60405180910390fd5b604051806101000160405280600a548152602001888152602001878152602001868152602001858152602001848152602001838152602001600081525060086000838152602001908152602001600020600082015181600001556020820151816001015560408201518160020155606082015181600301556080820151816004015560a0820151816005015560c0820151816006015560e082015181600701559050506007819080600181540180825580915050600190039060005260206000200160009091909190915055600a6000815480929190610bcb906118b5565b919050555050505050505050565b6000600780549050905090565b610bee610cb5565b80600460006101000a81548173ffffffffffffffffffffffffffffffffffffffff021916908373ffffffffffffffffffffffffffffffffffffffff16021790555050565b610c3a610cb5565b600073ffffffffffffffffffffffffffffffffffffffff168173ffffffffffffffffffffffffffffffffffffffff1603610ca9576040517f08c379a0000000000000000000000000000000000000000000000000000000008152600401610ca090611bf3565b60405180910390fd5b610cb281610d33565b50565b610cbd610e8b565b73ffffffffffffffffffffffffffffffffffffffff16610cdb61087d565b73ffffffffffffffffffffffffffffffffffffffff1614610d31576040517f08c379a0000000000000000000000000000000000000000000000000000000008152600401610d2890611c5f565b60405180910390fd5b565b60008060009054906101000a900473ffffffffffffffffffffffffffffffffffffffff169050816000806101000a81548173ffffffffffffffffffffffffffffffffffffffff021916908373ffffffffffffffffffffffffffffffffffffffff1602179055508173ffffffffffffffffffffffffffffffffffffffff168173ffffffffffffffffffffffffffffffffffffffff167f8be0079c531659141344cd1fd0a4f28419497f9722a3daafe3b4186f6b6457e060405160405180910390a35050565b600260015403610e3c576040517f08c379a0000000000000000000000000000000000000000000000000000000008152600401610e3390611ccb565b60405180910390fd5b6002600181905550565b60008585858585604051602001610e61959493929190611d2d565b60405160208183030381529060405280519060200120905095945050505050565b60018081905550565b600033905090565b6000604051905090565b600080fd5b600080fd5b6000819050919050565b610eba81610ea7565b8114610ec557600080fd5b50565b600081359050610ed781610eb1565b92915050565b600060208284031215610ef357610ef2610e9d565b5b6000610f0184828501610ec8565b91505092915050565b6000819050919050565b610f1d81610f0a565b82525050565b6000819050919050565b610f3681610f23565b82525050565b600061010082019050610f52600083018b610f14565b610f5f602083018a610f2d565b610f6c6040830189610f2d565b610f796060830188610f14565b610f866080830187610f14565b610f9360a0830186610f14565b610fa060c0830185610f14565b610fad60e0830184610f14565b9998505050505050505050565b600073ffffffffffffffffffffffffffffffffffffffff82169050919050565b6000819050919050565b6000610fff610ffa610ff584610fba565b610fda565b610fba565b9050919050565b600061101182610fe4565b9050919050565b600061102382611006565b9050919050565b61103381611018565b82525050565b600060208201905061104e600083018461102a565b92915050565b600061105f82611006565b9050919050565b61106f81611054565b82525050565b600060208201905061108a6000830184611066565b92915050565b61109981610f23565b81146110a457600080fd5b50565b6000813590506110b681611090565b92915050565b6110c581610f0a565b81146110d057600080fd5b50565b6000813590506110e2816110bc565b92915050565b600080fd5b600080fd5b6000601f19601f8301169050919050565b7f4e487b7100000000000000000000000000000000000000000000000000000000600052604160045260246000fd5b61113b826110f2565b810181811067ffffffffffffffff8211171561115a57611159611103565b5b80604052505050565b600061116d610e93565b90506111798282611132565b919050565b600067ffffffffffffffff82111561119957611198611103565b5b6111a2826110f2565b9050602081019050919050565b82818337600083830152505050565b60006111d16111cc8461117e565b611163565b9050828152602081018484840111156111ed576111ec6110ed565b5b6111f88482856111af565b509392505050565b600082601f830112611215576112146110e8565b5b81356112258482602086016111be565b91505092915050565b600080600080600080600060e0888a03121561124d5761124c610e9d565b5b600061125b8a828b016110a7565b975050602061126c8a828b016110a7565b965050604061127d8a828b016110d3565b955050606061128e8a828b016110d3565b945050608061129f8a828b016110d3565b93505060a06112b08a828b01610ec8565b92505060c088013567ffffffffffffffff8111156112d1576112d0610ea2565b5b6112dd8a828b01611200565b91505092959891949750929550565b60006112f782610fba565b9050919050565b611307816112ec565b82525050565b600060208201905061132260008301846112fe565b92915050565b60006020828403121561133e5761133d610e9d565b5b600061134c848285016110d3565b91505092915050565b600060208201905061136a6000830184610f14565b92915050565b61137981610ea7565b82525050565b60006020820190506113946000830184611370565b92915050565b60008060008060008060c087890312156113b7576113b6610e9d565b5b60006113c589828a016110a7565b96505060206113d689828a016110a7565b95505060406113e789828a016110d3565b94505060606113f889828a016110d3565b935050608061140989828a016110d3565b92505060a061141a89828a016110d3565b9150509295509295509295565b611430816112ec565b811461143b57600080fd5b50565b60008135905061144d81611427565b92915050565b60006020828403121561146957611468610e9d565b5b60006114778482850161143e565b91505092915050565b600060e082019050611495600083018a6112fe565b6114a26020830189610f2d565b6114af6040830188610f2d565b6114bc6060830187610f14565b6114c96080830186610f14565b6114d660a0830185610f14565b6114e360c0830184611370565b98975050505050505050565b6000815190506114fe81610eb1565b92915050565b60006020828403121561151a57611519610e9d565b5b6000611528848285016114ef565b91505092915050565b600081519050919050565b600082825260208201905092915050565b60005b8381101561156b578082015181840152602081019050611550565b60008484015250505050565b600061158282611531565b61158c818561153c565b935061159c81856020860161154d565b6115a5816110f2565b840191505092915050565b60006040820190506115c56000830185611370565b81810360208301526115d78184611577565b90509392505050565b60008115159050919050565b6115f5816115e0565b811461160057600080fd5b50565b600081519050611612816115ec565b92915050565b60006020828403121561162e5761162d610e9d565b5b600061163c84828501611603565b91505092915050565b600082825260208201905092915050565b7f496e76616c69642070726f6f66206f66206c6f636174696f6e00000000000000600082015250565b600061168c601983611645565b915061169782611656565b602082019050919050565b600060208201905081810360008301526116bb8161167f565b9050919050565b7f41697244726f7020686173206265656e20616c726561647920636c61696d656460008201527f20666f7220746869732061646472657373000000000000000000000000000000602082015250565b600061171e603183611645565b9150611729826116c2565b604082019050919050565b6000602082019050818103600083015261174d81611711565b9050919050565b7f41697244726f7020646f6573206e6f7420657869737400000000000000000000600082015250565b600061178a601683611645565b915061179582611754565b602082019050919050565b600060208201905081810360008301526117b98161177d565b9050919050565b7f4e487b7100000000000000000000000000000000000000000000000000000000600052601160045260246000fd5b60006117fa82610f0a565b915061180583610f0a565b925082820390508181111561181d5761181c6117c0565b5b92915050565b7f4e6f206d6f726520746f6b656e73206c65667420666f7220746869732041697260008201527f44726f7000000000000000000000000000000000000000000000000000000000602082015250565b600061187f602483611645565b915061188a82611823565b604082019050919050565b600060208201905081810360008301526118ae81611872565b9050919050565b60006118c082610f0a565b91507fffffffffffffffffffffffffffffffffffffffffffffffffffffffffffffffff82036118f2576118f16117c0565b5b600182019050919050565b600061190882610f0a565b915061191383610f0a565b925082820261192181610f0a565b91508282048414831517611938576119376117c0565b5b5092915050565b7f496e76616c6964206c617469747564652076616c756500000000000000000000600082015250565b6000611975601683611645565b91506119808261193f565b602082019050919050565b600060208201905081810360008301526119a481611968565b9050919050565b7f496e76616c6964206c6f6e6769747564652076616c7565000000000000000000600082015250565b60006119e1601783611645565b91506119ec826119ab565b602082019050919050565b60006020820190508181036000830152611a10816119d4565b9050919050565b7f496e76616c6964206d61782064697374616e6365000000000000000000000000600082015250565b6000611a4d601483611645565b9150611a5882611a17565b602082019050919050565b60006020820190508181036000830152611a7c81611a40565b9050919050565b7f56616c75652073656e742077697468207478206973206e6f742073756666696360008201527f69656e74206261736564206f6e2074686520746f6b656e7320636f756e740000602082015250565b6000611adf603e83611645565b9150611aea82611a83565b604082019050919050565b60006020820190508181036000830152611b0e81611ad2565b9050919050565b7f4475706c6963617465642061697244726f700000000000000000000000000000600082015250565b6000611b4b601283611645565b9150611b5682611b15565b602082019050919050565b60006020820190508181036000830152611b7a81611b3e565b9050919050565b7f4f776e61626c653a206e6577206f776e657220697320746865207a65726f206160008201527f6464726573730000000000000000000000000000000000000000000000000000602082015250565b6000611bdd602683611645565b9150611be882611b81565b604082019050919050565b60006020820190508181036000830152611c0c81611bd0565b9050919050565b7f4f776e61626c653a2063616c6c6572206973206e6f7420746865206f776e6572600082015250565b6000611c49602083611645565b9150611c5482611c13565b602082019050919050565b60006020820190508181036000830152611c7881611c3c565b9050919050565b7f5265656e7472616e637947756172643a207265656e7472616e742063616c6c00600082015250565b6000611cb5601f83611645565b9150611cc082611c7f565b602082019050919050565b60006020820190508181036000830152611ce481611ca8565b9050919050565b6000819050919050565b611d06611d0182610f23565b611ceb565b82525050565b6000819050919050565b611d27611d2282610f0a565b611d0c565b82525050565b6000611d398288611cf5565b602082019150611d498287611cf5565b602082019150611d598286611d16565b602082019150611d698285611d16565b602082019150611d798284611d16565b602082019150819050969550505050505056fea264697066735822122071a2814145aad1e52c70a413d45bf9cbc6291ea07e61b97c97119332e776fc2064736f6c63430008110033","opcodes":"PUSH1 0x80 PUSH1 0x40 MSTORE CALLVALUE DUP1 ISZERO PUSH3 0x11 JUMPI PUSH1 0x0 DUP1 REVERT JUMPDEST POP PUSH1 0x40 MLOAD PUSH3 0x2105 CODESIZE SUB DUP1 PUSH3 0x2105 DUP4 CODECOPY DUP2 DUP2 ADD PUSH1 0x40 MSTORE DUP2 ADD SWAP1 PUSH3 0x37 SWAP2 SWAP1 PUSH3 0x2AB JUMP JUMPDEST PUSH3 0x57 PUSH3 0x4B PUSH3 0x13A PUSH1 0x20 SHL PUSH1 0x20 SHR JUMP JUMPDEST PUSH3 0x142 PUSH1 0x20 SHL PUSH1 0x20 SHR JUMP JUMPDEST PUSH1 0x1 DUP1 DUP2 SWAP1 SSTORE POP DUP5 PUSH1 0x2 PUSH1 0x0 PUSH2 0x100 EXP DUP2 SLOAD DUP2 PUSH20 0xFFFFFFFFFFFFFFFFFFFFFFFFFFFFFFFFFFFFFFFF MUL NOT AND SWAP1 DUP4 PUSH20 0xFFFFFFFFFFFFFFFFFFFFFFFFFFFFFFFFFFFFFFFF AND MUL OR SWAP1 SSTORE POP DUP4 PUSH1 0x3 PUSH1 0x0 PUSH2 0x100 EXP DUP2 SLOAD DUP2 PUSH20 0xFFFFFFFFFFFFFFFFFFFFFFFFFFFFFFFFFFFFFFFF MUL NOT AND SWAP1 DUP4 PUSH20 0xFFFFFFFFFFFFFFFFFFFFFFFFFFFFFFFFFFFFFFFF AND MUL OR SWAP1 SSTORE POP DUP3 PUSH1 0x5 DUP2 SWAP1 SSTORE POP DUP2 PUSH1 0x4 PUSH1 0x0 PUSH2 0x100 EXP DUP2 SLOAD DUP2 PUSH20 0xFFFFFFFFFFFFFFFFFFFFFFFFFFFFFFFFFFFFFFFF MUL NOT AND SWAP1 DUP4 PUSH20 0xFFFFFFFFFFFFFFFFFFFFFFFFFFFFFFFFFFFFFFFF AND MUL OR SWAP1 SSTORE POP DUP1 PUSH1 0x6 DUP2 SWAP1 SSTORE POP POP POP POP POP POP PUSH3 0x333 JUMP JUMPDEST PUSH1 0x0 CALLER SWAP1 POP SWAP1 JUMP JUMPDEST PUSH1 0x0 DUP1 PUSH1 0x0 SWAP1 SLOAD SWAP1 PUSH2 0x100 EXP SWAP1 DIV PUSH20 0xFFFFFFFFFFFFFFFFFFFFFFFFFFFFFFFFFFFFFFFF AND SWAP1 POP DUP2 PUSH1 0x0 DUP1 PUSH2 0x100 EXP DUP2 SLOAD DUP2 PUSH20 0xFFFFFFFFFFFFFFFFFFFFFFFFFFFFFFFFFFFFFFFF MUL NOT AND SWAP1 DUP4 PUSH20 0xFFFFFFFFFFFFFFFFFFFFFFFFFFFFFFFFFFFFFFFF AND MUL OR SWAP1 SSTORE POP DUP2 PUSH20 0xFFFFFFFFFFFFFFFFFFFFFFFFFFFFFFFFFFFFFFFF AND DUP2 PUSH20 0xFFFFFFFFFFFFFFFFFFFFFFFFFFFFFFFFFFFFFFFF AND PUSH32 0x8BE0079C531659141344CD1FD0A4F28419497F9722A3DAAFE3B4186F6B6457E0 PUSH1 0x40 MLOAD PUSH1 0x40 MLOAD DUP1 SWAP2 SUB SWAP1 LOG3 POP POP JUMP JUMPDEST PUSH1 0x0 DUP1 REVERT JUMPDEST PUSH1 0x0 PUSH20 0xFFFFFFFFFFFFFFFFFFFFFFFFFFFFFFFFFFFFFFFF DUP3 AND SWAP1 POP SWAP2 SWAP1 POP JUMP JUMPDEST PUSH1 0x0 PUSH3 0x238 DUP3 PUSH3 0x20B JUMP JUMPDEST SWAP1 POP SWAP2 SWAP1 POP JUMP JUMPDEST PUSH3 0x24A DUP2 PUSH3 0x22B JUMP JUMPDEST DUP2 EQ PUSH3 0x256 JUMPI PUSH1 0x0 DUP1 REVERT JUMPDEST POP JUMP JUMPDEST PUSH1 0x0 DUP2 MLOAD SWAP1 POP PUSH3 0x26A DUP2 PUSH3 0x23F JUMP JUMPDEST SWAP3 SWAP2 POP POP JUMP JUMPDEST PUSH1 0x0 DUP2 SWAP1 POP SWAP2 SWAP1 POP JUMP JUMPDEST PUSH3 0x285 DUP2 PUSH3 0x270 JUMP JUMPDEST DUP2 EQ PUSH3 0x291 JUMPI PUSH1 0x0 DUP1 REVERT JUMPDEST POP JUMP JUMPDEST PUSH1 0x0 DUP2 MLOAD SWAP1 POP PUSH3 0x2A5 DUP2 PUSH3 0x27A JUMP JUMPDEST SWAP3 SWAP2 POP POP JUMP JUMPDEST PUSH1 0x0 DUP1 PUSH1 0x0 DUP1 PUSH1 0x0 PUSH1 0xA0 DUP7 DUP9 SUB SLT ISZERO PUSH3 0x2CA JUMPI PUSH3 0x2C9 PUSH3 0x206 JUMP JUMPDEST JUMPDEST PUSH1 0x0 PUSH3 0x2DA DUP9 DUP3 DUP10 ADD PUSH3 0x259 JUMP JUMPDEST SWAP6 POP POP PUSH1 0x20 PUSH3 0x2ED DUP9 DUP3 DUP10 ADD PUSH3 0x259 JUMP JUMPDEST SWAP5 POP POP PUSH1 0x40 PUSH3 0x300 DUP9 DUP3 DUP10 ADD PUSH3 0x294 JUMP JUMPDEST SWAP4 POP POP PUSH1 0x60 PUSH3 0x313 DUP9 DUP3 DUP10 ADD PUSH3 0x259 JUMP JUMPDEST SWAP3 POP POP PUSH1 0x80 PUSH3 0x326 DUP9 DUP3 DUP10 ADD PUSH3 0x294 JUMP JUMPDEST SWAP2 POP POP SWAP3 SWAP6 POP SWAP3 SWAP6 SWAP1 SWAP4 POP JUMP JUMPDEST PUSH2 0x1DC2 DUP1 PUSH3 0x343 PUSH1 0x0 CODECOPY PUSH1 0x0 RETURN INVALID PUSH1 0x80 PUSH1 0x40 MSTORE PUSH1 0x4 CALLDATASIZE LT PUSH2 0xC2 JUMPI PUSH1 0x0 CALLDATALOAD PUSH1 0xE0 SHR DUP1 PUSH4 0x99A5D747 GT PUSH2 0x7F JUMPI DUP1 PUSH4 0xC9F2F329 GT PUSH2 0x59 JUMPI DUP1 PUSH4 0xC9F2F329 EQ PUSH2 0x26F JUMPI DUP1 PUSH4 0xD8A25FB3 EQ PUSH2 0x28B JUMPI DUP1 PUSH4 0xEFDCD974 EQ PUSH2 0x2B6 JUMPI DUP1 PUSH4 0xF2FDE38B EQ PUSH2 0x2DF JUMPI PUSH2 0xC2 JUMP JUMPDEST DUP1 PUSH4 0x99A5D747 EQ PUSH2 0x1CC JUMPI DUP1 PUSH4 0xA2EF24CC EQ PUSH2 0x209 JUMPI DUP1 PUSH4 0xBC35C902 EQ PUSH2 0x246 JUMPI PUSH2 0xC2 JUMP JUMPDEST DUP1 PUSH4 0x27CA0E23 EQ PUSH2 0xC7 JUMPI DUP1 PUSH4 0x2B7AC3F3 EQ PUSH2 0x10B JUMPI DUP1 PUSH4 0x715018A6 EQ PUSH2 0x136 JUMPI DUP1 PUSH4 0x7C0B8DE2 EQ PUSH2 0x14D JUMPI DUP1 PUSH4 0x839ADBB8 EQ PUSH2 0x178 JUMPI DUP1 PUSH4 0x8DA5CB5B EQ PUSH2 0x1A1 JUMPI JUMPDEST PUSH1 0x0 DUP1 REVERT JUMPDEST CALLVALUE DUP1 ISZERO PUSH2 0xD3 JUMPI PUSH1 0x0 DUP1 REVERT JUMPDEST POP PUSH2 0xEE PUSH1 0x4 DUP1 CALLDATASIZE SUB DUP2 ADD SWAP1 PUSH2 0xE9 SWAP2 SWAP1 PUSH2 0xEDD JUMP JUMPDEST PUSH2 0x308 JUMP JUMPDEST PUSH1 0x40 MLOAD PUSH2 0x102 SWAP9 SWAP8 SWAP7 SWAP6 SWAP5 SWAP4 SWAP3 SWAP2 SWAP1 PUSH2 0xF3C JUMP JUMPDEST PUSH1 0x40 MLOAD DUP1 SWAP2 SUB SWAP1 RETURN JUMPDEST CALLVALUE DUP1 ISZERO PUSH2 0x117 JUMPI PUSH1 0x0 DUP1 REVERT JUMPDEST POP PUSH2 0x120 PUSH2 0x350 JUMP JUMPDEST PUSH1 0x40 MLOAD PUSH2 0x12D SWAP2 SWAP1 PUSH2 0x1039 JUMP JUMPDEST PUSH1 0x40 MLOAD DUP1 SWAP2 SUB SWAP1 RETURN JUMPDEST CALLVALUE DUP1 ISZERO PUSH2 0x142 JUMPI PUSH1 0x0 DUP1 REVERT JUMPDEST POP PUSH2 0x14B PUSH2 0x376 JUMP JUMPDEST STOP JUMPDEST CALLVALUE DUP1 ISZERO PUSH2 0x159 JUMPI PUSH1 0x0 DUP1 REVERT JUMPDEST POP PUSH2 0x162 PUSH2 0x38A JUMP JUMPDEST PUSH1 0x40 MLOAD PUSH2 0x16F SWAP2 SWAP1 PUSH2 0x1075 JUMP JUMPDEST PUSH1 0x40 MLOAD DUP1 SWAP2 SUB SWAP1 RETURN JUMPDEST CALLVALUE DUP1 ISZERO PUSH2 0x184 JUMPI PUSH1 0x0 DUP1 REVERT JUMPDEST POP PUSH2 0x19F PUSH1 0x4 DUP1 CALLDATASIZE SUB DUP2 ADD SWAP1 PUSH2 0x19A SWAP2 SWAP1 PUSH2 0x122E JUMP JUMPDEST PUSH2 0x3B0 JUMP JUMPDEST STOP JUMPDEST CALLVALUE DUP1 ISZERO PUSH2 0x1AD JUMPI PUSH1 0x0 DUP1 REVERT JUMPDEST POP PUSH2 0x1B6 PUSH2 0x87D JUMP JUMPDEST PUSH1 0x40 MLOAD PUSH2 0x1C3 SWAP2 SWAP1 PUSH2 0x130D JUMP JUMPDEST PUSH1 0x40 MLOAD DUP1 SWAP2 SUB SWAP1 RETURN JUMPDEST CALLVALUE DUP1 ISZERO PUSH2 0x1D8 JUMPI PUSH1 0x0 DUP1 REVERT JUMPDEST POP PUSH2 0x1F3 PUSH1 0x4 DUP1 CALLDATASIZE SUB DUP2 ADD SWAP1 PUSH2 0x1EE SWAP2 SWAP1 PUSH2 0x1328 JUMP JUMPDEST PUSH2 0x8A6 JUMP JUMPDEST PUSH1 0x40 MLOAD PUSH2 0x200 SWAP2 SWAP1 PUSH2 0x1355 JUMP JUMPDEST PUSH1 0x40 MLOAD DUP1 SWAP2 SUB SWAP1 RETURN JUMPDEST CALLVALUE DUP1 ISZERO PUSH2 0x215 JUMPI PUSH1 0x0 DUP1 REVERT JUMPDEST POP PUSH2 0x230 PUSH1 0x4 DUP1 CALLDATASIZE SUB DUP2 ADD SWAP1 PUSH2 0x22B SWAP2 SWAP1 PUSH2 0x1328 JUMP JUMPDEST PUSH2 0x8DE JUMP JUMPDEST PUSH1 0x40 MLOAD PUSH2 0x23D SWAP2 SWAP1 PUSH2 0x137F JUMP JUMPDEST PUSH1 0x40 MLOAD DUP1 SWAP2 SUB SWAP1 RETURN JUMPDEST CALLVALUE DUP1 ISZERO PUSH2 0x252 JUMPI PUSH1 0x0 DUP1 REVERT JUMPDEST POP PUSH2 0x26D PUSH1 0x4 DUP1 CALLDATASIZE SUB DUP2 ADD SWAP1 PUSH2 0x268 SWAP2 SWAP1 PUSH2 0x1328 JUMP JUMPDEST PUSH2 0x902 JUMP JUMPDEST STOP JUMPDEST PUSH2 0x289 PUSH1 0x4 DUP1 CALLDATASIZE SUB DUP2 ADD SWAP1 PUSH2 0x284 SWAP2 SWAP1 PUSH2 0x139A JUMP JUMPDEST PUSH2 0x914 JUMP JUMPDEST STOP JUMPDEST CALLVALUE DUP1 ISZERO PUSH2 0x297 JUMPI PUSH1 0x0 DUP1 REVERT JUMPDEST POP PUSH2 0x2A0 PUSH2 0xBD9 JUMP JUMPDEST PUSH1 0x40 MLOAD PUSH2 0x2AD SWAP2 SWAP1 PUSH2 0x1355 JUMP JUMPDEST PUSH1 0x40 MLOAD DUP1 SWAP2 SUB SWAP1 RETURN JUMPDEST CALLVALUE DUP1 ISZERO PUSH2 0x2C2 JUMPI PUSH1 0x0 DUP1 REVERT JUMPDEST POP PUSH2 0x2DD PUSH1 0x4 DUP1 CALLDATASIZE SUB DUP2 ADD SWAP1 PUSH2 0x2D8 SWAP2 SWAP1 PUSH2 0x1453 JUMP JUMPDEST PUSH2 0xBE6 JUMP JUMPDEST STOP JUMPDEST CALLVALUE DUP1 ISZERO PUSH2 0x2EB JUMPI PUSH1 0x0 DUP1 REVERT JUMPDEST POP PUSH2 0x306 PUSH1 0x4 DUP1 CALLDATASIZE SUB DUP2 ADD SWAP1 PUSH2 0x301 SWAP2 SWAP1 PUSH2 0x1453 JUMP JUMPDEST PUSH2 0xC32 JUMP JUMPDEST STOP JUMPDEST PUSH1 0x8 PUSH1 0x20 MSTORE DUP1 PUSH1 0x0 MSTORE PUSH1 0x40 PUSH1 0x0 KECCAK256 PUSH1 0x0 SWAP2 POP SWAP1 POP DUP1 PUSH1 0x0 ADD SLOAD SWAP1 DUP1 PUSH1 0x1 ADD SLOAD SWAP1 DUP1 PUSH1 0x2 ADD SLOAD SWAP1 DUP1 PUSH1 0x3 ADD SLOAD SWAP1 DUP1 PUSH1 0x4 ADD SLOAD SWAP1 DUP1 PUSH1 0x5 ADD SLOAD SWAP1 DUP1 PUSH1 0x6 ADD SLOAD SWAP1 DUP1 PUSH1 0x7 ADD SLOAD SWAP1 POP DUP9 JUMP JUMPDEST PUSH1 0x2 PUSH1 0x0 SWAP1 SLOAD SWAP1 PUSH2 0x100 EXP SWAP1 DIV PUSH20 0xFFFFFFFFFFFFFFFFFFFFFFFFFFFFFFFFFFFFFFFF AND DUP2 JUMP JUMPDEST PUSH2 0x37E PUSH2 0xCB5 JUMP JUMPDEST PUSH2 0x388 PUSH1 0x0 PUSH2 0xD33 JUMP JUMPDEST JUMP JUMPDEST PUSH1 0x3 PUSH1 0x0 SWAP1 SLOAD SWAP1 PUSH2 0x100 EXP SWAP1 DIV PUSH20 0xFFFFFFFFFFFFFFFFFFFFFFFFFFFFFFFFFFFFFFFF AND DUP2 JUMP JUMPDEST PUSH2 0x3B8 PUSH2 0xDF7 JUMP JUMPDEST PUSH1 0x0 PUSH1 0x2 PUSH1 0x0 SWAP1 SLOAD SWAP1 PUSH2 0x100 EXP SWAP1 DIV PUSH20 0xFFFFFFFFFFFFFFFFFFFFFFFFFFFFFFFFFFFFFFFF AND PUSH20 0xFFFFFFFFFFFFFFFFFFFFFFFFFFFFFFFFFFFFFFFF AND PUSH4 0xD6C037AD CALLER DUP11 DUP11 DUP11 DUP11 DUP11 DUP11 PUSH1 0x40 MLOAD DUP9 PUSH4 0xFFFFFFFF AND PUSH1 0xE0 SHL DUP2 MSTORE PUSH1 0x4 ADD PUSH2 0x421 SWAP8 SWAP7 SWAP6 SWAP5 SWAP4 SWAP3 SWAP2 SWAP1 PUSH2 0x1480 JUMP JUMPDEST PUSH1 0x20 PUSH1 0x40 MLOAD DUP1 DUP4 SUB DUP2 DUP7 GAS STATICCALL ISZERO DUP1 ISZERO PUSH2 0x43E JUMPI RETURNDATASIZE PUSH1 0x0 DUP1 RETURNDATACOPY RETURNDATASIZE PUSH1 0x0 REVERT JUMPDEST POP POP POP POP PUSH1 0x40 MLOAD RETURNDATASIZE PUSH1 0x1F NOT PUSH1 0x1F DUP3 ADD AND DUP3 ADD DUP1 PUSH1 0x40 MSTORE POP DUP2 ADD SWAP1 PUSH2 0x462 SWAP2 SWAP1 PUSH2 0x1504 JUMP JUMPDEST SWAP1 POP PUSH1 0x2 PUSH1 0x0 SWAP1 SLOAD SWAP1 PUSH2 0x100 EXP SWAP1 DIV PUSH20 0xFFFFFFFFFFFFFFFFFFFFFFFFFFFFFFFFFFFFFFFF AND PUSH20 0xFFFFFFFFFFFFFFFFFFFFFFFFFFFFFFFFFFFFFFFF AND PUSH4 0x258AE582 DUP3 DUP5 PUSH1 0x40 MLOAD DUP4 PUSH4 0xFFFFFFFF AND PUSH1 0xE0 SHL DUP2 MSTORE PUSH1 0x4 ADD PUSH2 0x4C1 SWAP3 SWAP2 SWAP1 PUSH2 0x15B0 JUMP JUMPDEST PUSH1 0x20 PUSH1 0x40 MLOAD DUP1 DUP4 SUB DUP2 DUP7 GAS STATICCALL ISZERO DUP1 ISZERO PUSH2 0x4DE JUMPI RETURNDATASIZE PUSH1 0x0 DUP1 RETURNDATACOPY RETURNDATASIZE PUSH1 0x0 REVERT JUMPDEST POP POP POP POP PUSH1 0x40 MLOAD RETURNDATASIZE PUSH1 0x1F NOT PUSH1 0x1F DUP3 ADD AND DUP3 ADD DUP1 PUSH1 0x40 MSTORE POP DUP2 ADD SWAP1 PUSH2 0x502 SWAP2 SWAP1 PUSH2 0x1618 JUMP JUMPDEST PUSH2 0x541 JUMPI PUSH1 0x40 MLOAD PUSH32 0x8C379A000000000000000000000000000000000000000000000000000000000 DUP2 MSTORE PUSH1 0x4 ADD PUSH2 0x538 SWAP1 PUSH2 0x16A2 JUMP JUMPDEST PUSH1 0x40 MLOAD DUP1 SWAP2 SUB SWAP1 REVERT JUMPDEST PUSH1 0x0 PUSH2 0x550 DUP10 DUP10 DUP10 DUP10 DUP10 PUSH2 0xE46 JUMP JUMPDEST SWAP1 POP PUSH1 0x0 ISZERO ISZERO PUSH1 0x9 PUSH1 0x0 CALLER PUSH20 0xFFFFFFFFFFFFFFFFFFFFFFFFFFFFFFFFFFFFFFFF AND PUSH20 0xFFFFFFFFFFFFFFFFFFFFFFFFFFFFFFFFFFFFFFFF AND DUP2 MSTORE PUSH1 0x20 ADD SWAP1 DUP2 MSTORE PUSH1 0x20 ADD PUSH1 0x0 KECCAK256 PUSH1 0x0 DUP4 DUP2 MSTORE PUSH1 0x20 ADD SWAP1 DUP2 MSTORE PUSH1 0x20 ADD PUSH1 0x0 KECCAK256 PUSH1 0x0 SWAP1 SLOAD SWAP1 PUSH2 0x100 EXP SWAP1 DIV PUSH1 0xFF AND ISZERO ISZERO EQ PUSH2 0x5F6 JUMPI PUSH1 0x40 MLOAD PUSH32 0x8C379A000000000000000000000000000000000000000000000000000000000 DUP2 MSTORE PUSH1 0x4 ADD PUSH2 0x5ED SWAP1 PUSH2 0x1734 JUMP JUMPDEST PUSH1 0x40 MLOAD DUP1 SWAP2 SUB SWAP1 REVERT JUMPDEST PUSH1 0x0 PUSH1 0x8 PUSH1 0x0 DUP4 DUP2 MSTORE PUSH1 0x20 ADD SWAP1 DUP2 MSTORE PUSH1 0x20 ADD PUSH1 0x0 KECCAK256 PUSH1 0x40 MLOAD DUP1 PUSH2 0x100 ADD PUSH1 0x40 MSTORE SWAP1 DUP2 PUSH1 0x0 DUP3 ADD SLOAD DUP2 MSTORE PUSH1 0x20 ADD PUSH1 0x1 DUP3 ADD SLOAD DUP2 MSTORE PUSH1 0x20 ADD PUSH1 0x2 DUP3 ADD SLOAD DUP2 MSTORE PUSH1 0x20 ADD PUSH1 0x3 DUP3 ADD SLOAD DUP2 MSTORE PUSH1 0x20 ADD PUSH1 0x4 DUP3 ADD SLOAD DUP2 MSTORE PUSH1 0x20 ADD PUSH1 0x5 DUP3 ADD SLOAD DUP2 MSTORE PUSH1 0x20 ADD PUSH1 0x6 DUP3 ADD SLOAD DUP2 MSTORE PUSH1 0x20 ADD PUSH1 0x7 DUP3 ADD SLOAD DUP2 MSTORE POP POP SWAP1 POP PUSH1 0x0 DUP2 PUSH1 0x60 ADD MLOAD GT PUSH2 0x6B0 JUMPI PUSH1 0x40 MLOAD PUSH32 0x8C379A000000000000000000000000000000000000000000000000000000000 DUP2 MSTORE PUSH1 0x4 ADD PUSH2 0x6A7 SWAP1 PUSH2 0x17A0 JUMP JUMPDEST PUSH1 0x40 MLOAD DUP1 SWAP2 SUB SWAP1 REVERT JUMPDEST PUSH1 0x0 DUP2 PUSH1 0xC0 ADD MLOAD GT ISZERO PUSH2 0x714 JUMPI PUSH1 0x0 DUP2 PUSH1 0xE0 ADD MLOAD DUP3 PUSH1 0xC0 ADD MLOAD PUSH2 0x6D3 SWAP2 SWAP1 PUSH2 0x17EF JUMP JUMPDEST GT PUSH2 0x713 JUMPI PUSH1 0x40 MLOAD PUSH32 0x8C379A000000000000000000000000000000000000000000000000000000000 DUP2 MSTORE PUSH1 0x4 ADD PUSH2 0x70A SWAP1 PUSH2 0x1895 JUMP JUMPDEST PUSH1 0x40 MLOAD DUP1 SWAP2 SUB SWAP1 REVERT JUMPDEST JUMPDEST PUSH1 0x1 PUSH1 0x9 PUSH1 0x0 CALLER PUSH20 0xFFFFFFFFFFFFFFFFFFFFFFFFFFFFFFFFFFFFFFFF AND PUSH20 0xFFFFFFFFFFFFFFFFFFFFFFFFFFFFFFFFFFFFFFFF AND DUP2 MSTORE PUSH1 0x20 ADD SWAP1 DUP2 MSTORE PUSH1 0x20 ADD PUSH1 0x0 KECCAK256 PUSH1 0x0 DUP5 DUP2 MSTORE PUSH1 0x20 ADD SWAP1 DUP2 MSTORE PUSH1 0x20 ADD PUSH1 0x0 KECCAK256 PUSH1 0x0 PUSH2 0x100 EXP DUP2 SLOAD DUP2 PUSH1 0xFF MUL NOT AND SWAP1 DUP4 ISZERO ISZERO MUL OR SWAP1 SSTORE POP PUSH1 0x3 PUSH1 0x0 SWAP1 SLOAD SWAP1 PUSH2 0x100 EXP SWAP1 DIV PUSH20 0xFFFFFFFFFFFFFFFFFFFFFFFFFFFFFFFFFFFFFFFF AND PUSH20 0xFFFFFFFFFFFFFFFFFFFFFFFFFFFFFFFFFFFFFFFF AND PUSH4 0x40D097C3 CALLER PUSH1 0x40 MLOAD DUP3 PUSH4 0xFFFFFFFF AND PUSH1 0xE0 SHL DUP2 MSTORE PUSH1 0x4 ADD PUSH2 0x7D8 SWAP2 SWAP1 PUSH2 0x130D JUMP JUMPDEST PUSH1 0x0 PUSH1 0x40 MLOAD DUP1 DUP4 SUB DUP2 PUSH1 0x0 DUP8 DUP1 EXTCODESIZE ISZERO DUP1 ISZERO PUSH2 0x7F2 JUMPI PUSH1 0x0 DUP1 REVERT JUMPDEST POP GAS CALL ISZERO DUP1 ISZERO PUSH2 0x806 JUMPI RETURNDATASIZE PUSH1 0x0 DUP1 RETURNDATACOPY RETURNDATASIZE PUSH1 0x0 REVERT JUMPDEST POP POP POP POP DUP1 PUSH1 0x0 ADD MLOAD DUP3 CALLER PUSH20 0xFFFFFFFFFFFFFFFFFFFFFFFFFFFFFFFFFFFFFFFF AND PUSH32 0x9B01158D4BC10C112BA32B5240CDA97E49E2EB86021F03F6A0F460342AC4DFDA PUSH1 0x40 MLOAD PUSH1 0x40 MLOAD DUP1 SWAP2 SUB SWAP1 LOG4 DUP1 PUSH1 0xE0 ADD DUP1 MLOAD DUP1 SWAP2 SWAP1 PUSH2 0x865 SWAP1 PUSH2 0x18B5 JUMP JUMPDEST DUP2 MSTORE POP POP POP POP POP PUSH2 0x874 PUSH2 0xE82 JUMP JUMPDEST POP POP POP POP POP POP POP JUMP JUMPDEST PUSH1 0x0 DUP1 PUSH1 0x0 SWAP1 SLOAD SWAP1 PUSH2 0x100 EXP SWAP1 DIV PUSH20 0xFFFFFFFFFFFFFFFFFFFFFFFFFFFFFFFFFFFFFFFF AND SWAP1 POP SWAP1 JUMP JUMPDEST PUSH1 0x0 PUSH1 0x6 SLOAD DUP3 LT PUSH2 0x8C8 JUMPI PUSH1 0x6 SLOAD PUSH1 0x5 SLOAD PUSH2 0x8C1 SWAP2 SWAP1 PUSH2 0x18FD JUMP JUMPDEST SWAP1 POP PUSH2 0x8D9 JUMP JUMPDEST DUP2 PUSH1 0x5 SLOAD PUSH2 0x8D6 SWAP2 SWAP1 PUSH2 0x18FD JUMP JUMPDEST SWAP1 POP JUMPDEST SWAP2 SWAP1 POP JUMP JUMPDEST PUSH1 0x7 DUP2 DUP2 SLOAD DUP2 LT PUSH2 0x8EE JUMPI PUSH1 0x0 DUP1 REVERT JUMPDEST SWAP1 PUSH1 0x0 MSTORE PUSH1 0x20 PUSH1 0x0 KECCAK256 ADD PUSH1 0x0 SWAP2 POP SWAP1 POP SLOAD DUP2 JUMP JUMPDEST PUSH2 0x90A PUSH2 0xCB5 JUMP JUMPDEST DUP1 PUSH1 0x6 DUP2 SWAP1 SSTORE POP POP JUMP JUMPDEST PUSH32 0xFFFFFFFFFFFFFFFFFFFFFFFFFFFFFFFFFFFFFFFFFFFFFFFFFFFFFFFFFFFFFFA6 DUP7 SLT ISZERO DUP1 ISZERO PUSH2 0x945 JUMPI POP PUSH1 0x5A DUP7 SGT ISZERO JUMPDEST PUSH2 0x984 JUMPI PUSH1 0x40 MLOAD PUSH32 0x8C379A000000000000000000000000000000000000000000000000000000000 DUP2 MSTORE PUSH1 0x4 ADD PUSH2 0x97B SWAP1 PUSH2 0x198B JUMP JUMPDEST PUSH1 0x40 MLOAD DUP1 SWAP2 SUB SWAP1 REVERT JUMPDEST PUSH32 0xFFFFFFFFFFFFFFFFFFFFFFFFFFFFFFFFFFFFFFFFFFFFFFFFFFFFFFFFFFFFFF4C DUP6 SGT ISZERO DUP1 ISZERO PUSH2 0x9B5 JUMPI POP PUSH1 0xB4 DUP6 SGT ISZERO JUMPDEST PUSH2 0x9F4 JUMPI PUSH1 0x40 MLOAD PUSH32 0x8C379A000000000000000000000000000000000000000000000000000000000 DUP2 MSTORE PUSH1 0x4 ADD PUSH2 0x9EB SWAP1 PUSH2 0x19F7 JUMP JUMPDEST PUSH1 0x40 MLOAD DUP1 SWAP2 SUB SWAP1 REVERT JUMPDEST PUSH1 0x0 DUP5 GT PUSH2 0xA37 JUMPI PUSH1 0x40 MLOAD PUSH32 0x8C379A000000000000000000000000000000000000000000000000000000000 DUP2 MSTORE PUSH1 0x4 ADD PUSH2 0xA2E SWAP1 PUSH2 0x1A63 JUMP JUMPDEST PUSH1 0x40 MLOAD DUP1 SWAP2 SUB SWAP1 REVERT JUMPDEST PUSH2 0xA40 DUP2 PUSH2 0x8A6 JUMP JUMPDEST CALLVALUE LT ISZERO PUSH2 0xA82 JUMPI PUSH1 0x40 MLOAD PUSH32 0x8C379A000000000000000000000000000000000000000000000000000000000 DUP2 MSTORE PUSH1 0x4 ADD PUSH2 0xA79 SWAP1 PUSH2 0x1AF5 JUMP JUMPDEST PUSH1 0x40 MLOAD DUP1 SWAP2 SUB SWAP1 REVERT JUMPDEST PUSH1 0x0 PUSH2 0xA91 DUP8 DUP8 DUP8 DUP8 DUP8 PUSH2 0xE46 JUMP JUMPDEST SWAP1 POP PUSH1 0x0 PUSH1 0x8 PUSH1 0x0 DUP4 DUP2 MSTORE PUSH1 0x20 ADD SWAP1 DUP2 MSTORE PUSH1 0x20 ADD PUSH1 0x0 KECCAK256 PUSH1 0x3 ADD SLOAD EQ PUSH2 0xAEC JUMPI PUSH1 0x40 MLOAD PUSH32 0x8C379A000000000000000000000000000000000000000000000000000000000 DUP2 MSTORE PUSH1 0x4 ADD PUSH2 0xAE3 SWAP1 PUSH2 0x1B61 JUMP JUMPDEST PUSH1 0x40 MLOAD DUP1 SWAP2 SUB SWAP1 REVERT JUMPDEST PUSH1 0x40 MLOAD DUP1 PUSH2 0x100 ADD PUSH1 0x40 MSTORE DUP1 PUSH1 0xA SLOAD DUP2 MSTORE PUSH1 0x20 ADD DUP9 DUP2 MSTORE PUSH1 0x20 ADD DUP8 DUP2 MSTORE PUSH1 0x20 ADD DUP7 DUP2 MSTORE PUSH1 0x20 ADD DUP6 DUP2 MSTORE PUSH1 0x20 ADD DUP5 DUP2 MSTORE PUSH1 0x20 ADD DUP4 DUP2 MSTORE PUSH1 0x20 ADD PUSH1 0x0 DUP2 MSTORE POP PUSH1 0x8 PUSH1 0x0 DUP4 DUP2 MSTORE PUSH1 0x20 ADD SWAP1 DUP2 MSTORE PUSH1 0x20 ADD PUSH1 0x0 KECCAK256 PUSH1 0x0 DUP3 ADD MLOAD DUP2 PUSH1 0x0 ADD SSTORE PUSH1 0x20 DUP3 ADD MLOAD DUP2 PUSH1 0x1 ADD SSTORE PUSH1 0x40 DUP3 ADD MLOAD DUP2 PUSH1 0x2 ADD SSTORE PUSH1 0x60 DUP3 ADD MLOAD DUP2 PUSH1 0x3 ADD SSTORE PUSH1 0x80 DUP3 ADD MLOAD DUP2 PUSH1 0x4 ADD SSTORE PUSH1 0xA0 DUP3 ADD MLOAD DUP2 PUSH1 0x5 ADD SSTORE PUSH1 0xC0 DUP3 ADD MLOAD DUP2 PUSH1 0x6 ADD SSTORE PUSH1 0xE0 DUP3 ADD MLOAD DUP2 PUSH1 0x7 ADD SSTORE SWAP1 POP POP PUSH1 0x7 DUP2 SWAP1 DUP1 PUSH1 0x1 DUP2 SLOAD ADD DUP1 DUP3 SSTORE DUP1 SWAP2 POP POP PUSH1 0x1 SWAP1 SUB SWAP1 PUSH1 0x0 MSTORE PUSH1 0x20 PUSH1 0x0 KECCAK256 ADD PUSH1 0x0 SWAP1 SWAP2 SWAP1 SWAP2 SWAP1 SWAP2 POP SSTORE PUSH1 0xA PUSH1 0x0 DUP2 SLOAD DUP1 SWAP3 SWAP2 SWAP1 PUSH2 0xBCB SWAP1 PUSH2 0x18B5 JUMP JUMPDEST SWAP2 SWAP1 POP SSTORE POP POP POP POP POP POP POP POP JUMP JUMPDEST PUSH1 0x0 PUSH1 0x7 DUP1 SLOAD SWAP1 POP SWAP1 POP SWAP1 JUMP JUMPDEST PUSH2 0xBEE PUSH2 0xCB5 JUMP JUMPDEST DUP1 PUSH1 0x4 PUSH1 0x0 PUSH2 0x100 EXP DUP2 SLOAD DUP2 PUSH20 0xFFFFFFFFFFFFFFFFFFFFFFFFFFFFFFFFFFFFFFFF MUL NOT AND SWAP1 DUP4 PUSH20 0xFFFFFFFFFFFFFFFFFFFFFFFFFFFFFFFFFFFFFFFF AND MUL OR SWAP1 SSTORE POP POP JUMP JUMPDEST PUSH2 0xC3A PUSH2 0xCB5 JUMP JUMPDEST PUSH1 0x0 PUSH20 0xFFFFFFFFFFFFFFFFFFFFFFFFFFFFFFFFFFFFFFFF AND DUP2 PUSH20 0xFFFFFFFFFFFFFFFFFFFFFFFFFFFFFFFFFFFFFFFF AND SUB PUSH2 0xCA9 JUMPI PUSH1 0x40 MLOAD PUSH32 0x8C379A000000000000000000000000000000000000000000000000000000000 DUP2 MSTORE PUSH1 0x4 ADD PUSH2 0xCA0 SWAP1 PUSH2 0x1BF3 JUMP JUMPDEST PUSH1 0x40 MLOAD DUP1 SWAP2 SUB SWAP1 REVERT JUMPDEST PUSH2 0xCB2 DUP2 PUSH2 0xD33 JUMP JUMPDEST POP JUMP JUMPDEST PUSH2 0xCBD PUSH2 0xE8B JUMP JUMPDEST PUSH20 0xFFFFFFFFFFFFFFFFFFFFFFFFFFFFFFFFFFFFFFFF AND PUSH2 0xCDB PUSH2 0x87D JUMP JUMPDEST PUSH20 0xFFFFFFFFFFFFFFFFFFFFFFFFFFFFFFFFFFFFFFFF AND EQ PUSH2 0xD31 JUMPI PUSH1 0x40 MLOAD PUSH32 0x8C379A000000000000000000000000000000000000000000000000000000000 DUP2 MSTORE PUSH1 0x4 ADD PUSH2 0xD28 SWAP1 PUSH2 0x1C5F JUMP JUMPDEST PUSH1 0x40 MLOAD DUP1 SWAP2 SUB SWAP1 REVERT JUMPDEST JUMP JUMPDEST PUSH1 0x0 DUP1 PUSH1 0x0 SWAP1 SLOAD SWAP1 PUSH2 0x100 EXP SWAP1 DIV PUSH20 0xFFFFFFFFFFFFFFFFFFFFFFFFFFFFFFFFFFFFFFFF AND SWAP1 POP DUP2 PUSH1 0x0 DUP1 PUSH2 0x100 EXP DUP2 SLOAD DUP2 PUSH20 0xFFFFFFFFFFFFFFFFFFFFFFFFFFFFFFFFFFFFFFFF MUL NOT AND SWAP1 DUP4 PUSH20 0xFFFFFFFFFFFFFFFFFFFFFFFFFFFFFFFFFFFFFFFF AND MUL OR SWAP1 SSTORE POP DUP2 PUSH20 0xFFFFFFFFFFFFFFFFFFFFFFFFFFFFFFFFFFFFFFFF AND DUP2 PUSH20 0xFFFFFFFFFFFFFFFFFFFFFFFFFFFFFFFFFFFFFFFF AND PUSH32 0x8BE0079C531659141344CD1FD0A4F28419497F9722A3DAAFE3B4186F6B6457E0 PUSH1 0x40 MLOAD PUSH1 0x40 MLOAD DUP1 SWAP2 SUB SWAP1 LOG3 POP POP JUMP JUMPDEST PUSH1 0x2 PUSH1 0x1 SLOAD SUB PUSH2 0xE3C JUMPI PUSH1 0x40 MLOAD PUSH32 0x8C379A000000000000000000000000000000000000000000000000000000000 DUP2 MSTORE PUSH1 0x4 ADD PUSH2 0xE33 SWAP1 PUSH2 0x1CCB JUMP JUMPDEST PUSH1 0x40 MLOAD DUP1 SWAP2 SUB SWAP1 REVERT JUMPDEST PUSH1 0x2 PUSH1 0x1 DUP2 SWAP1 SSTORE POP JUMP JUMPDEST PUSH1 0x0 DUP6 DUP6 DUP6 DUP6 DUP6 PUSH1 0x40 MLOAD PUSH1 0x20 ADD PUSH2 0xE61 SWAP6 SWAP5 SWAP4 SWAP3 SWAP2 SWAP1 PUSH2 0x1D2D JUMP JUMPDEST PUSH1 0x40 MLOAD PUSH1 0x20 DUP2 DUP4 SUB SUB DUP2 MSTORE SWAP1 PUSH1 0x40 MSTORE DUP1 MLOAD SWAP1 PUSH1 0x20 ADD KECCAK256 SWAP1 POP SWAP6 SWAP5 POP POP POP POP POP JUMP JUMPDEST PUSH1 0x1 DUP1 DUP2 SWAP1 SSTORE POP JUMP JUMPDEST PUSH1 0x0 CALLER SWAP1 POP SWAP1 JUMP JUMPDEST PUSH1 0x0 PUSH1 0x40 MLOAD SWAP1 POP SWAP1 JUMP JUMPDEST PUSH1 0x0 DUP1 REVERT JUMPDEST PUSH1 0x0 DUP1 REVERT JUMPDEST PUSH1 0x0 DUP2 SWAP1 POP SWAP2 SWAP1 POP JUMP JUMPDEST PUSH2 0xEBA DUP2 PUSH2 0xEA7 JUMP JUMPDEST DUP2 EQ PUSH2 0xEC5 JUMPI PUSH1 0x0 DUP1 REVERT JUMPDEST POP JUMP JUMPDEST PUSH1 0x0 DUP2 CALLDATALOAD SWAP1 POP PUSH2 0xED7 DUP2 PUSH2 0xEB1 JUMP JUMPDEST SWAP3 SWAP2 POP POP JUMP JUMPDEST PUSH1 0x0 PUSH1 0x20 DUP3 DUP5 SUB SLT ISZERO PUSH2 0xEF3 JUMPI PUSH2 0xEF2 PUSH2 0xE9D JUMP JUMPDEST JUMPDEST PUSH1 0x0 PUSH2 0xF01 DUP5 DUP3 DUP6 ADD PUSH2 0xEC8 JUMP JUMPDEST SWAP2 POP POP SWAP3 SWAP2 POP POP JUMP JUMPDEST PUSH1 0x0 DUP2 SWAP1 POP SWAP2 SWAP1 POP JUMP JUMPDEST PUSH2 0xF1D DUP2 PUSH2 0xF0A JUMP JUMPDEST DUP3 MSTORE POP POP JUMP JUMPDEST PUSH1 0x0 DUP2 SWAP1 POP SWAP2 SWAP1 POP JUMP JUMPDEST PUSH2 0xF36 DUP2 PUSH2 0xF23 JUMP JUMPDEST DUP3 MSTORE POP POP JUMP JUMPDEST PUSH1 0x0 PUSH2 0x100 DUP3 ADD SWAP1 POP PUSH2 0xF52 PUSH1 0x0 DUP4 ADD DUP12 PUSH2 0xF14 JUMP JUMPDEST PUSH2 0xF5F PUSH1 0x20 DUP4 ADD DUP11 PUSH2 0xF2D JUMP JUMPDEST PUSH2 0xF6C PUSH1 0x40 DUP4 ADD DUP10 PUSH2 0xF2D JUMP JUMPDEST PUSH2 0xF79 PUSH1 0x60 DUP4 ADD DUP9 PUSH2 0xF14 JUMP JUMPDEST PUSH2 0xF86 PUSH1 0x80 DUP4 ADD DUP8 PUSH2 0xF14 JUMP JUMPDEST PUSH2 0xF93 PUSH1 0xA0 DUP4 ADD DUP7 PUSH2 0xF14 JUMP JUMPDEST PUSH2 0xFA0 PUSH1 0xC0 DUP4 ADD DUP6 PUSH2 0xF14 JUMP JUMPDEST PUSH2 0xFAD PUSH1 0xE0 DUP4 ADD DUP5 PUSH2 0xF14 JUMP JUMPDEST SWAP10 SWAP9 POP POP POP POP POP POP POP POP POP JUMP JUMPDEST PUSH1 0x0 PUSH20 0xFFFFFFFFFFFFFFFFFFFFFFFFFFFFFFFFFFFFFFFF DUP3 AND SWAP1 POP SWAP2 SWAP1 POP JUMP JUMPDEST PUSH1 0x0 DUP2 SWAP1 POP SWAP2 SWAP1 POP JUMP JUMPDEST PUSH1 0x0 PUSH2 0xFFF PUSH2 0xFFA PUSH2 0xFF5 DUP5 PUSH2 0xFBA JUMP JUMPDEST PUSH2 0xFDA JUMP JUMPDEST PUSH2 0xFBA JUMP JUMPDEST SWAP1 POP SWAP2 SWAP1 POP JUMP JUMPDEST PUSH1 0x0 PUSH2 0x1011 DUP3 PUSH2 0xFE4 JUMP JUMPDEST SWAP1 POP SWAP2 SWAP1 POP JUMP JUMPDEST PUSH1 0x0 PUSH2 0x1023 DUP3 PUSH2 0x1006 JUMP JUMPDEST SWAP1 POP SWAP2 SWAP1 POP JUMP JUMPDEST PUSH2 0x1033 DUP2 PUSH2 0x1018 JUMP JUMPDEST DUP3 MSTORE POP POP JUMP JUMPDEST PUSH1 0x0 PUSH1 0x20 DUP3 ADD SWAP1 POP PUSH2 0x104E PUSH1 0x0 DUP4 ADD DUP5 PUSH2 0x102A JUMP JUMPDEST SWAP3 SWAP2 POP POP JUMP JUMPDEST PUSH1 0x0 PUSH2 0x105F DUP3 PUSH2 0x1006 JUMP JUMPDEST SWAP1 POP SWAP2 SWAP1 POP JUMP JUMPDEST PUSH2 0x106F DUP2 PUSH2 0x1054 JUMP JUMPDEST DUP3 MSTORE POP POP JUMP JUMPDEST PUSH1 0x0 PUSH1 0x20 DUP3 ADD SWAP1 POP PUSH2 0x108A PUSH1 0x0 DUP4 ADD DUP5 PUSH2 0x1066 JUMP JUMPDEST SWAP3 SWAP2 POP POP JUMP JUMPDEST PUSH2 0x1099 DUP2 PUSH2 0xF23 JUMP JUMPDEST DUP2 EQ PUSH2 0x10A4 JUMPI PUSH1 0x0 DUP1 REVERT JUMPDEST POP JUMP JUMPDEST PUSH1 0x0 DUP2 CALLDATALOAD SWAP1 POP PUSH2 0x10B6 DUP2 PUSH2 0x1090 JUMP JUMPDEST SWAP3 SWAP2 POP POP JUMP JUMPDEST PUSH2 0x10C5 DUP2 PUSH2 0xF0A JUMP JUMPDEST DUP2 EQ PUSH2 0x10D0 JUMPI PUSH1 0x0 DUP1 REVERT JUMPDEST POP JUMP JUMPDEST PUSH1 0x0 DUP2 CALLDATALOAD SWAP1 POP PUSH2 0x10E2 DUP2 PUSH2 0x10BC JUMP JUMPDEST SWAP3 SWAP2 POP POP JUMP JUMPDEST PUSH1 0x0 DUP1 REVERT JUMPDEST PUSH1 0x0 DUP1 REVERT JUMPDEST PUSH1 0x0 PUSH1 0x1F NOT PUSH1 0x1F DUP4 ADD AND SWAP1 POP SWAP2 SWAP1 POP JUMP JUMPDEST PUSH32 0x4E487B7100000000000000000000000000000000000000000000000000000000 PUSH1 0x0 MSTORE PUSH1 0x41 PUSH1 0x4 MSTORE PUSH1 0x24 PUSH1 0x0 REVERT JUMPDEST PUSH2 0x113B DUP3 PUSH2 0x10F2 JUMP JUMPDEST DUP2 ADD DUP2 DUP2 LT PUSH8 0xFFFFFFFFFFFFFFFF DUP3 GT OR ISZERO PUSH2 0x115A JUMPI PUSH2 0x1159 PUSH2 0x1103 JUMP JUMPDEST JUMPDEST DUP1 PUSH1 0x40 MSTORE POP POP POP JUMP JUMPDEST PUSH1 0x0 PUSH2 0x116D PUSH2 0xE93 JUMP JUMPDEST SWAP1 POP PUSH2 0x1179 DUP3 DUP3 PUSH2 0x1132 JUMP JUMPDEST SWAP2 SWAP1 POP JUMP JUMPDEST PUSH1 0x0 PUSH8 0xFFFFFFFFFFFFFFFF DUP3 GT ISZERO PUSH2 0x1199 JUMPI PUSH2 0x1198 PUSH2 0x1103 JUMP JUMPDEST JUMPDEST PUSH2 0x11A2 DUP3 PUSH2 0x10F2 JUMP JUMPDEST SWAP1 POP PUSH1 0x20 DUP2 ADD SWAP1 POP SWAP2 SWAP1 POP JUMP JUMPDEST DUP3 DUP2 DUP4 CALLDATACOPY PUSH1 0x0 DUP4 DUP4 ADD MSTORE POP POP POP JUMP JUMPDEST PUSH1 0x0 PUSH2 0x11D1 PUSH2 0x11CC DUP5 PUSH2 0x117E JUMP JUMPDEST PUSH2 0x1163 JUMP JUMPDEST SWAP1 POP DUP3 DUP2 MSTORE PUSH1 0x20 DUP2 ADD DUP5 DUP5 DUP5 ADD GT ISZERO PUSH2 0x11ED JUMPI PUSH2 0x11EC PUSH2 0x10ED JUMP JUMPDEST JUMPDEST PUSH2 0x11F8 DUP5 DUP3 DUP6 PUSH2 0x11AF JUMP JUMPDEST POP SWAP4 SWAP3 POP POP POP JUMP JUMPDEST PUSH1 0x0 DUP3 PUSH1 0x1F DUP4 ADD SLT PUSH2 0x1215 JUMPI PUSH2 0x1214 PUSH2 0x10E8 JUMP JUMPDEST JUMPDEST DUP2 CALLDATALOAD PUSH2 0x1225 DUP5 DUP3 PUSH1 0x20 DUP7 ADD PUSH2 0x11BE JUMP JUMPDEST SWAP2 POP POP SWAP3 SWAP2 POP POP JUMP JUMPDEST PUSH1 0x0 DUP1 PUSH1 0x0 DUP1 PUSH1 0x0 DUP1 PUSH1 0x0 PUSH1 0xE0 DUP9 DUP11 SUB SLT ISZERO PUSH2 0x124D JUMPI PUSH2 0x124C PUSH2 0xE9D JUMP JUMPDEST JUMPDEST PUSH1 0x0 PUSH2 0x125B DUP11 DUP3 DUP12 ADD PUSH2 0x10A7 JUMP JUMPDEST SWAP8 POP POP PUSH1 0x20 PUSH2 0x126C DUP11 DUP3 DUP12 ADD PUSH2 0x10A7 JUMP JUMPDEST SWAP7 POP POP PUSH1 0x40 PUSH2 0x127D DUP11 DUP3 DUP12 ADD PUSH2 0x10D3 JUMP JUMPDEST SWAP6 POP POP PUSH1 0x60 PUSH2 0x128E DUP11 DUP3 DUP12 ADD PUSH2 0x10D3 JUMP JUMPDEST SWAP5 POP POP PUSH1 0x80 PUSH2 0x129F DUP11 DUP3 DUP12 ADD PUSH2 0x10D3 JUMP JUMPDEST SWAP4 POP POP PUSH1 0xA0 PUSH2 0x12B0 DUP11 DUP3 DUP12 ADD PUSH2 0xEC8 JUMP JUMPDEST SWAP3 POP POP PUSH1 0xC0 DUP9 ADD CALLDATALOAD PUSH8 0xFFFFFFFFFFFFFFFF DUP2 GT ISZERO PUSH2 0x12D1 JUMPI PUSH2 0x12D0 PUSH2 0xEA2 JUMP JUMPDEST JUMPDEST PUSH2 0x12DD DUP11 DUP3 DUP12 ADD PUSH2 0x1200 JUMP JUMPDEST SWAP2 POP POP SWAP3 SWAP6 SWAP9 SWAP2 SWAP5 SWAP8 POP SWAP3 SWAP6 POP JUMP JUMPDEST PUSH1 0x0 PUSH2 0x12F7 DUP3 PUSH2 0xFBA JUMP JUMPDEST SWAP1 POP SWAP2 SWAP1 POP JUMP JUMPDEST PUSH2 0x1307 DUP2 PUSH2 0x12EC JUMP JUMPDEST DUP3 MSTORE POP POP JUMP JUMPDEST PUSH1 0x0 PUSH1 0x20 DUP3 ADD SWAP1 POP PUSH2 0x1322 PUSH1 0x0 DUP4 ADD DUP5 PUSH2 0x12FE JUMP JUMPDEST SWAP3 SWAP2 POP POP JUMP JUMPDEST PUSH1 0x0 PUSH1 0x20 DUP3 DUP5 SUB SLT ISZERO PUSH2 0x133E JUMPI PUSH2 0x133D PUSH2 0xE9D JUMP JUMPDEST JUMPDEST PUSH1 0x0 PUSH2 0x134C DUP5 DUP3 DUP6 ADD PUSH2 0x10D3 JUMP JUMPDEST SWAP2 POP POP SWAP3 SWAP2 POP POP JUMP JUMPDEST PUSH1 0x0 PUSH1 0x20 DUP3 ADD SWAP1 POP PUSH2 0x136A PUSH1 0x0 DUP4 ADD DUP5 PUSH2 0xF14 JUMP JUMPDEST SWAP3 SWAP2 POP POP JUMP JUMPDEST PUSH2 0x1379 DUP2 PUSH2 0xEA7 JUMP JUMPDEST DUP3 MSTORE POP POP JUMP JUMPDEST PUSH1 0x0 PUSH1 0x20 DUP3 ADD SWAP1 POP PUSH2 0x1394 PUSH1 0x0 DUP4 ADD DUP5 PUSH2 0x1370 JUMP JUMPDEST SWAP3 SWAP2 POP POP JUMP JUMPDEST PUSH1 0x0 DUP1 PUSH1 0x0 DUP1 PUSH1 0x0 DUP1 PUSH1 0xC0 DUP8 DUP10 SUB SLT ISZERO PUSH2 0x13B7 JUMPI PUSH2 0x13B6 PUSH2 0xE9D JUMP JUMPDEST JUMPDEST PUSH1 0x0 PUSH2 0x13C5 DUP10 DUP3 DUP11 ADD PUSH2 0x10A7 JUMP JUMPDEST SWAP7 POP POP PUSH1 0x20 PUSH2 0x13D6 DUP10 DUP3 DUP11 ADD PUSH2 0x10A7 JUMP JUMPDEST SWAP6 POP POP PUSH1 0x40 PUSH2 0x13E7 DUP10 DUP3 DUP11 ADD PUSH2 0x10D3 JUMP JUMPDEST SWAP5 POP POP PUSH1 0x60 PUSH2 0x13F8 DUP10 DUP3 DUP11 ADD PUSH2 0x10D3 JUMP JUMPDEST SWAP4 POP POP PUSH1 0x80 PUSH2 0x1409 DUP10 DUP3 DUP11 ADD PUSH2 0x10D3 JUMP JUMPDEST SWAP3 POP POP PUSH1 0xA0 PUSH2 0x141A DUP10 DUP3 DUP11 ADD PUSH2 0x10D3 JUMP JUMPDEST SWAP2 POP POP SWAP3 SWAP6 POP SWAP3 SWAP6 POP SWAP3 SWAP6 JUMP JUMPDEST PUSH2 0x1430 DUP2 PUSH2 0x12EC JUMP JUMPDEST DUP2 EQ PUSH2 0x143B JUMPI PUSH1 0x0 DUP1 REVERT JUMPDEST POP JUMP JUMPDEST PUSH1 0x0 DUP2 CALLDATALOAD SWAP1 POP PUSH2 0x144D DUP2 PUSH2 0x1427 JUMP JUMPDEST SWAP3 SWAP2 POP POP JUMP JUMPDEST PUSH1 0x0 PUSH1 0x20 DUP3 DUP5 SUB SLT ISZERO PUSH2 0x1469 JUMPI PUSH2 0x1468 PUSH2 0xE9D JUMP JUMPDEST JUMPDEST PUSH1 0x0 PUSH2 0x1477 DUP5 DUP3 DUP6 ADD PUSH2 0x143E JUMP JUMPDEST SWAP2 POP POP SWAP3 SWAP2 POP POP JUMP JUMPDEST PUSH1 0x0 PUSH1 0xE0 DUP3 ADD SWAP1 POP PUSH2 0x1495 PUSH1 0x0 DUP4 ADD DUP11 PUSH2 0x12FE JUMP JUMPDEST PUSH2 0x14A2 PUSH1 0x20 DUP4 ADD DUP10 PUSH2 0xF2D JUMP JUMPDEST PUSH2 0x14AF PUSH1 0x40 DUP4 ADD DUP9 PUSH2 0xF2D JUMP JUMPDEST PUSH2 0x14BC PUSH1 0x60 DUP4 ADD DUP8 PUSH2 0xF14 JUMP JUMPDEST PUSH2 0x14C9 PUSH1 0x80 DUP4 ADD DUP7 PUSH2 0xF14 JUMP JUMPDEST PUSH2 0x14D6 PUSH1 0xA0 DUP4 ADD DUP6 PUSH2 0xF14 JUMP JUMPDEST PUSH2 0x14E3 PUSH1 0xC0 DUP4 ADD DUP5 PUSH2 0x1370 JUMP JUMPDEST SWAP9 SWAP8 POP POP POP POP POP POP POP POP JUMP JUMPDEST PUSH1 0x0 DUP2 MLOAD SWAP1 POP PUSH2 0x14FE DUP2 PUSH2 0xEB1 JUMP JUMPDEST SWAP3 SWAP2 POP POP JUMP JUMPDEST PUSH1 0x0 PUSH1 0x20 DUP3 DUP5 SUB SLT ISZERO PUSH2 0x151A JUMPI PUSH2 0x1519 PUSH2 0xE9D JUMP JUMPDEST JUMPDEST PUSH1 0x0 PUSH2 0x1528 DUP5 DUP3 DUP6 ADD PUSH2 0x14EF JUMP JUMPDEST SWAP2 POP POP SWAP3 SWAP2 POP POP JUMP JUMPDEST PUSH1 0x0 DUP2 MLOAD SWAP1 POP SWAP2 SWAP1 POP JUMP JUMPDEST PUSH1 0x0 DUP3 DUP3 MSTORE PUSH1 0x20 DUP3 ADD SWAP1 POP SWAP3 SWAP2 POP POP JUMP JUMPDEST PUSH1 0x0 JUMPDEST DUP4 DUP2 LT ISZERO PUSH2 0x156B JUMPI DUP1 DUP3 ADD MLOAD DUP2 DUP5 ADD MSTORE PUSH1 0x20 DUP2 ADD SWAP1 POP PUSH2 0x1550 JUMP JUMPDEST PUSH1 0x0 DUP5 DUP5 ADD MSTORE POP POP POP POP JUMP JUMPDEST PUSH1 0x0 PUSH2 0x1582 DUP3 PUSH2 0x1531 JUMP JUMPDEST PUSH2 0x158C DUP2 DUP6 PUSH2 0x153C JUMP JUMPDEST SWAP4 POP PUSH2 0x159C DUP2 DUP6 PUSH1 0x20 DUP7 ADD PUSH2 0x154D JUMP JUMPDEST PUSH2 0x15A5 DUP2 PUSH2 0x10F2 JUMP JUMPDEST DUP5 ADD SWAP2 POP POP SWAP3 SWAP2 POP POP JUMP JUMPDEST PUSH1 0x0 PUSH1 0x40 DUP3 ADD SWAP1 POP PUSH2 0x15C5 PUSH1 0x0 DUP4 ADD DUP6 PUSH2 0x1370 JUMP JUMPDEST DUP2 DUP2 SUB PUSH1 0x20 DUP4 ADD MSTORE PUSH2 0x15D7 DUP2 DUP5 PUSH2 0x1577 JUMP JUMPDEST SWAP1 POP SWAP4 SWAP3 POP POP POP JUMP JUMPDEST PUSH1 0x0 DUP2 ISZERO ISZERO SWAP1 POP SWAP2 SWAP1 POP JUMP JUMPDEST PUSH2 0x15F5 DUP2 PUSH2 0x15E0 JUMP JUMPDEST DUP2 EQ PUSH2 0x1600 JUMPI PUSH1 0x0 DUP1 REVERT JUMPDEST POP JUMP JUMPDEST PUSH1 0x0 DUP2 MLOAD SWAP1 POP PUSH2 0x1612 DUP2 PUSH2 0x15EC JUMP JUMPDEST SWAP3 SWAP2 POP POP JUMP JUMPDEST PUSH1 0x0 PUSH1 0x20 DUP3 DUP5 SUB SLT ISZERO PUSH2 0x162E JUMPI PUSH2 0x162D PUSH2 0xE9D JUMP JUMPDEST JUMPDEST PUSH1 0x0 PUSH2 0x163C DUP5 DUP3 DUP6 ADD PUSH2 0x1603 JUMP JUMPDEST SWAP2 POP POP SWAP3 SWAP2 POP POP JUMP JUMPDEST PUSH1 0x0 DUP3 DUP3 MSTORE PUSH1 0x20 DUP3 ADD SWAP1 POP SWAP3 SWAP2 POP POP JUMP JUMPDEST PUSH32 0x496E76616C69642070726F6F66206F66206C6F636174696F6E00000000000000 PUSH1 0x0 DUP3 ADD MSTORE POP JUMP JUMPDEST PUSH1 0x0 PUSH2 0x168C PUSH1 0x19 DUP4 PUSH2 0x1645 JUMP JUMPDEST SWAP2 POP PUSH2 0x1697 DUP3 PUSH2 0x1656 JUMP JUMPDEST PUSH1 0x20 DUP3 ADD SWAP1 POP SWAP2 SWAP1 POP JUMP JUMPDEST PUSH1 0x0 PUSH1 0x20 DUP3 ADD SWAP1 POP DUP2 DUP2 SUB PUSH1 0x0 DUP4 ADD MSTORE PUSH2 0x16BB DUP2 PUSH2 0x167F JUMP JUMPDEST SWAP1 POP SWAP2 SWAP1 POP JUMP JUMPDEST PUSH32 0x41697244726F7020686173206265656E20616C726561647920636C61696D6564 PUSH1 0x0 DUP3 ADD MSTORE PUSH32 0x20666F7220746869732061646472657373000000000000000000000000000000 PUSH1 0x20 DUP3 ADD MSTORE POP JUMP JUMPDEST PUSH1 0x0 PUSH2 0x171E PUSH1 0x31 DUP4 PUSH2 0x1645 JUMP JUMPDEST SWAP2 POP PUSH2 0x1729 DUP3 PUSH2 0x16C2 JUMP JUMPDEST PUSH1 0x40 DUP3 ADD SWAP1 POP SWAP2 SWAP1 POP JUMP JUMPDEST PUSH1 0x0 PUSH1 0x20 DUP3 ADD SWAP1 POP DUP2 DUP2 SUB PUSH1 0x0 DUP4 ADD MSTORE PUSH2 0x174D DUP2 PUSH2 0x1711 JUMP JUMPDEST SWAP1 POP SWAP2 SWAP1 POP JUMP JUMPDEST PUSH32 0x41697244726F7020646F6573206E6F7420657869737400000000000000000000 PUSH1 0x0 DUP3 ADD MSTORE POP JUMP JUMPDEST PUSH1 0x0 PUSH2 0x178A PUSH1 0x16 DUP4 PUSH2 0x1645 JUMP JUMPDEST SWAP2 POP PUSH2 0x1795 DUP3 PUSH2 0x1754 JUMP JUMPDEST PUSH1 0x20 DUP3 ADD SWAP1 POP SWAP2 SWAP1 POP JUMP JUMPDEST PUSH1 0x0 PUSH1 0x20 DUP3 ADD SWAP1 POP DUP2 DUP2 SUB PUSH1 0x0 DUP4 ADD MSTORE PUSH2 0x17B9 DUP2 PUSH2 0x177D JUMP JUMPDEST SWAP1 POP SWAP2 SWAP1 POP JUMP JUMPDEST PUSH32 0x4E487B7100000000000000000000000000000000000000000000000000000000 PUSH1 0x0 MSTORE PUSH1 0x11 PUSH1 0x4 MSTORE PUSH1 0x24 PUSH1 0x0 REVERT JUMPDEST PUSH1 0x0 PUSH2 0x17FA DUP3 PUSH2 0xF0A JUMP JUMPDEST SWAP2 POP PUSH2 0x1805 DUP4 PUSH2 0xF0A JUMP JUMPDEST SWAP3 POP DUP3 DUP3 SUB SWAP1 POP DUP2 DUP2 GT ISZERO PUSH2 0x181D JUMPI PUSH2 0x181C PUSH2 0x17C0 JUMP JUMPDEST JUMPDEST SWAP3 SWAP2 POP POP JUMP JUMPDEST PUSH32 0x4E6F206D6F726520746F6B656E73206C65667420666F72207468697320416972 PUSH1 0x0 DUP3 ADD MSTORE PUSH32 0x44726F7000000000000000000000000000000000000000000000000000000000 PUSH1 0x20 DUP3 ADD MSTORE POP JUMP JUMPDEST PUSH1 0x0 PUSH2 0x187F PUSH1 0x24 DUP4 PUSH2 0x1645 JUMP JUMPDEST SWAP2 POP PUSH2 0x188A DUP3 PUSH2 0x1823 JUMP JUMPDEST PUSH1 0x40 DUP3 ADD SWAP1 POP SWAP2 SWAP1 POP JUMP JUMPDEST PUSH1 0x0 PUSH1 0x20 DUP3 ADD SWAP1 POP DUP2 DUP2 SUB PUSH1 0x0 DUP4 ADD MSTORE PUSH2 0x18AE DUP2 PUSH2 0x1872 JUMP JUMPDEST SWAP1 POP SWAP2 SWAP1 POP JUMP JUMPDEST PUSH1 0x0 PUSH2 0x18C0 DUP3 PUSH2 0xF0A JUMP JUMPDEST SWAP2 POP PUSH32 0xFFFFFFFFFFFFFFFFFFFFFFFFFFFFFFFFFFFFFFFFFFFFFFFFFFFFFFFFFFFFFFFF DUP3 SUB PUSH2 0x18F2 JUMPI PUSH2 0x18F1 PUSH2 0x17C0 JUMP JUMPDEST JUMPDEST PUSH1 0x1 DUP3 ADD SWAP1 POP SWAP2 SWAP1 POP JUMP JUMPDEST PUSH1 0x0 PUSH2 0x1908 DUP3 PUSH2 0xF0A JUMP JUMPDEST SWAP2 POP PUSH2 0x1913 DUP4 PUSH2 0xF0A JUMP JUMPDEST SWAP3 POP DUP3 DUP3 MUL PUSH2 0x1921 DUP2 PUSH2 0xF0A JUMP JUMPDEST SWAP2 POP DUP3 DUP3 DIV DUP5 EQ DUP4 ISZERO OR PUSH2 0x1938 JUMPI PUSH2 0x1937 PUSH2 0x17C0 JUMP JUMPDEST JUMPDEST POP SWAP3 SWAP2 POP POP JUMP JUMPDEST PUSH32 0x496E76616C6964206C617469747564652076616C756500000000000000000000 PUSH1 0x0 DUP3 ADD MSTORE POP JUMP JUMPDEST PUSH1 0x0 PUSH2 0x1975 PUSH1 0x16 DUP4 PUSH2 0x1645 JUMP JUMPDEST SWAP2 POP PUSH2 0x1980 DUP3 PUSH2 0x193F JUMP JUMPDEST PUSH1 0x20 DUP3 ADD SWAP1 POP SWAP2 SWAP1 POP JUMP JUMPDEST PUSH1 0x0 PUSH1 0x20 DUP3 ADD SWAP1 POP DUP2 DUP2 SUB PUSH1 0x0 DUP4 ADD MSTORE PUSH2 0x19A4 DUP2 PUSH2 0x1968 JUMP JUMPDEST SWAP1 POP SWAP2 SWAP1 POP JUMP JUMPDEST PUSH32 0x496E76616C6964206C6F6E6769747564652076616C7565000000000000000000 PUSH1 0x0 DUP3 ADD MSTORE POP JUMP JUMPDEST PUSH1 0x0 PUSH2 0x19E1 PUSH1 0x17 DUP4 PUSH2 0x1645 JUMP JUMPDEST SWAP2 POP PUSH2 0x19EC DUP3 PUSH2 0x19AB JUMP JUMPDEST PUSH1 0x20 DUP3 ADD SWAP1 POP SWAP2 SWAP1 POP JUMP JUMPDEST PUSH1 0x0 PUSH1 0x20 DUP3 ADD SWAP1 POP DUP2 DUP2 SUB PUSH1 0x0 DUP4 ADD MSTORE PUSH2 0x1A10 DUP2 PUSH2 0x19D4 JUMP JUMPDEST SWAP1 POP SWAP2 SWAP1 POP JUMP JUMPDEST PUSH32 0x496E76616C6964206D61782064697374616E6365000000000000000000000000 PUSH1 0x0 DUP3 ADD MSTORE POP JUMP JUMPDEST PUSH1 0x0 PUSH2 0x1A4D PUSH1 0x14 DUP4 PUSH2 0x1645 JUMP JUMPDEST SWAP2 POP PUSH2 0x1A58 DUP3 PUSH2 0x1A17 JUMP JUMPDEST PUSH1 0x20 DUP3 ADD SWAP1 POP SWAP2 SWAP1 POP JUMP JUMPDEST PUSH1 0x0 PUSH1 0x20 DUP3 ADD SWAP1 POP DUP2 DUP2 SUB PUSH1 0x0 DUP4 ADD MSTORE PUSH2 0x1A7C DUP2 PUSH2 0x1A40 JUMP JUMPDEST SWAP1 POP SWAP2 SWAP1 POP JUMP JUMPDEST PUSH32 0x56616C75652073656E742077697468207478206973206E6F7420737566666963 PUSH1 0x0 DUP3 ADD MSTORE PUSH32 0x69656E74206261736564206F6E2074686520746F6B656E7320636F756E740000 PUSH1 0x20 DUP3 ADD MSTORE POP JUMP JUMPDEST PUSH1 0x0 PUSH2 0x1ADF PUSH1 0x3E DUP4 PUSH2 0x1645 JUMP JUMPDEST SWAP2 POP PUSH2 0x1AEA DUP3 PUSH2 0x1A83 JUMP JUMPDEST PUSH1 0x40 DUP3 ADD SWAP1 POP SWAP2 SWAP1 POP JUMP JUMPDEST PUSH1 0x0 PUSH1 0x20 DUP3 ADD SWAP1 POP DUP2 DUP2 SUB PUSH1 0x0 DUP4 ADD MSTORE PUSH2 0x1B0E DUP2 PUSH2 0x1AD2 JUMP JUMPDEST SWAP1 POP SWAP2 SWAP1 POP JUMP JUMPDEST PUSH32 0x4475706C6963617465642061697244726F700000000000000000000000000000 PUSH1 0x0 DUP3 ADD MSTORE POP JUMP JUMPDEST PUSH1 0x0 PUSH2 0x1B4B PUSH1 0x12 DUP4 PUSH2 0x1645 JUMP JUMPDEST SWAP2 POP PUSH2 0x1B56 DUP3 PUSH2 0x1B15 JUMP JUMPDEST PUSH1 0x20 DUP3 ADD SWAP1 POP SWAP2 SWAP1 POP JUMP JUMPDEST PUSH1 0x0 PUSH1 0x20 DUP3 ADD SWAP1 POP DUP2 DUP2 SUB PUSH1 0x0 DUP4 ADD MSTORE PUSH2 0x1B7A DUP2 PUSH2 0x1B3E JUMP JUMPDEST SWAP1 POP SWAP2 SWAP1 POP JUMP JUMPDEST PUSH32 0x4F776E61626C653A206E6577206F776E657220697320746865207A65726F2061 PUSH1 0x0 DUP3 ADD MSTORE PUSH32 0x6464726573730000000000000000000000000000000000000000000000000000 PUSH1 0x20 DUP3 ADD MSTORE POP JUMP JUMPDEST PUSH1 0x0 PUSH2 0x1BDD PUSH1 0x26 DUP4 PUSH2 0x1645 JUMP JUMPDEST SWAP2 POP PUSH2 0x1BE8 DUP3 PUSH2 0x1B81 JUMP JUMPDEST PUSH1 0x40 DUP3 ADD SWAP1 POP SWAP2 SWAP1 POP JUMP JUMPDEST PUSH1 0x0 PUSH1 0x20 DUP3 ADD SWAP1 POP DUP2 DUP2 SUB PUSH1 0x0 DUP4 ADD MSTORE PUSH2 0x1C0C DUP2 PUSH2 0x1BD0 JUMP JUMPDEST SWAP1 POP SWAP2 SWAP1 POP JUMP JUMPDEST PUSH32 0x4F776E61626C653A2063616C6C6572206973206E6F7420746865206F776E6572 PUSH1 0x0 DUP3 ADD MSTORE POP JUMP JUMPDEST PUSH1 0x0 PUSH2 0x1C49 PUSH1 0x20 DUP4 PUSH2 0x1645 JUMP JUMPDEST SWAP2 POP PUSH2 0x1C54 DUP3 PUSH2 0x1C13 JUMP JUMPDEST PUSH1 0x20 DUP3 ADD SWAP1 POP SWAP2 SWAP1 POP JUMP JUMPDEST PUSH1 0x0 PUSH1 0x20 DUP3 ADD SWAP1 POP DUP2 DUP2 SUB PUSH1 0x0 DUP4 ADD MSTORE PUSH2 0x1C78 DUP2 PUSH2 0x1C3C JUMP JUMPDEST SWAP1 POP SWAP2 SWAP1 POP JUMP JUMPDEST PUSH32 0x5265656E7472616E637947756172643A207265656E7472616E742063616C6C00 PUSH1 0x0 DUP3 ADD MSTORE POP JUMP JUMPDEST PUSH1 0x0 PUSH2 0x1CB5 PUSH1 0x1F DUP4 PUSH2 0x1645 JUMP JUMPDEST SWAP2 POP PUSH2 0x1CC0 DUP3 PUSH2 0x1C7F JUMP JUMPDEST PUSH1 0x20 DUP3 ADD SWAP1 POP SWAP2 SWAP1 POP JUMP JUMPDEST PUSH1 0x0 PUSH1 0x20 DUP3 ADD SWAP1 POP DUP2 DUP2 SUB PUSH1 0x0 DUP4 ADD MSTORE PUSH2 0x1CE4 DUP2 PUSH2 0x1CA8 JUMP JUMPDEST SWAP1 POP SWAP2 SWAP1 POP JUMP JUMPDEST PUSH1 0x0 DUP2 SWAP1 POP SWAP2 SWAP1 POP JUMP JUMPDEST PUSH2 0x1D06 PUSH2 0x1D01 DUP3 PUSH2 0xF23 JUMP JUMPDEST PUSH2 0x1CEB JUMP JUMPDEST DUP3 MSTORE POP POP JUMP JUMPDEST PUSH1 0x0 DUP2 SWAP1 POP SWAP2 SWAP1 POP JUMP JUMPDEST PUSH2 0x1D27 PUSH2 0x1D22 DUP3 PUSH2 0xF0A JUMP JUMPDEST PUSH2 0x1D0C JUMP JUMPDEST DUP3 MSTORE POP POP JUMP JUMPDEST PUSH1 0x0 PUSH2 0x1D39 DUP3 DUP9 PUSH2 0x1CF5 JUMP JUMPDEST PUSH1 0x20 DUP3 ADD SWAP2 POP PUSH2 0x1D49 DUP3 DUP8 PUSH2 0x1CF5 JUMP JUMPDEST PUSH1 0x20 DUP3 ADD SWAP2 POP PUSH2 0x1D59 DUP3 DUP7 PUSH2 0x1D16 JUMP JUMPDEST PUSH1 0x20 DUP3 ADD SWAP2 POP PUSH2 0x1D69 DUP3 DUP6 PUSH2 0x1D16 JUMP JUMPDEST PUSH1 0x20 DUP3 ADD SWAP2 POP PUSH2 0x1D79 DUP3 DUP5 PUSH2 0x1D16 JUMP JUMPDEST PUSH1 0x20 DUP3 ADD SWAP2 POP DUP2 SWAP1 POP SWAP7 SWAP6 POP POP POP POP POP POP JUMP INVALID LOG2 PUSH5 0x6970667358 0x22 SLT KECCAK256 PUSH18 0xA2814145AAD1E52C70A413D45BF9CBC6291E LOG0 PUSH31 0x61B97C97119332E776FC2064736F6C63430008110033000000000000000000 "},"methodIdentifiers":{"NFT()":"7c0b8de2","addAirDrop(int256,int256,uint256,uint256,uint256,uint256)":"c9f2f329","airDrops(bytes32)":"27ca0e23","airDropsCount()":"d8a25fb3","airDropsHashes(uint256)":"a2ef24cc","calculateFee(uint256)":"99a5d747","claim(int256,int256,uint256,uint256,uint256,bytes32,bytes)":"839adbb8","owner()":"8da5cb5b","renounceOwnership()":"715018a6","setFeeCliff(uint256)":"bc35c902","setFeeReceiver(address)":"efdcd974","transferOwnership(address)":"f2fde38b","verifier()":"2b7ac3f3"}}}}}