{
  "_format": "hh-sol-artifact-1",
  "contractName": "Logic",
  "sourceName": "contracts/Logic.sol",
  "abi": [
    {
      "inputs": [
        {
          "internalType": "address",
          "name": "_verifier",
          "type": "address"
        },
        {
          "internalType": "address",
          "name": "_nft",
          "type": "address"
        },
        {
          "internalType": "uint256",
          "name": "_baseFee",
          "type": "uint256"
        },
        {
          "internalType": "address",
          "name": "_feeReceiver",
          "type": "address"
        },
        {
          "internalType": "uint256",
          "name": "_feeCliff",
          "type": "uint256"
        }
      ],
      "stateMutability": "nonpayable",
      "type": "constructor"
    },
    {
      "anonymous": false,
      "inputs": [
        {
          "indexed": true,
          "internalType": "address",
          "name": "holder",
          "type": "address"
        },
        {
          "indexed": true,
          "internalType": "bytes32",
          "name": "deviceHash",
          "type": "bytes32"
        }
      ],
      "name": "Claimed",
      "type": "event"
    },
    {
      "anonymous": false,
      "inputs": [
        {
          "indexed": true,
          "internalType": "address",
          "name": "previousOwner",
          "type": "address"
        },
        {
          "indexed": true,
          "internalType": "address",
          "name": "newOwner",
          "type": "address"
        }
      ],
      "name": "OwnershipTransferred",
      "type": "event"
    },
    {
      "inputs": [],
      "name": "NFT",
      "outputs": [
        {
          "internalType": "contract LocationNFT",
          "name": "",
          "type": "address"
        }
      ],
      "stateMutability": "view",
      "type": "function"
    },
    {
      "inputs": [
        {
          "internalType": "int256",
          "name": "_lat",
          "type": "int256"
        },
        {
          "internalType": "int256",
          "name": "_long",
          "type": "int256"
        },
        {
          "internalType": "uint256",
          "name": "_maxDistance",
          "type": "uint256"
        },
        {
          "internalType": "uint256",
          "name": "_time_from",
          "type": "uint256"
        },
        {
          "internalType": "uint256",
          "name": "_time_to",
          "type": "uint256"
        },
        {
          "internalType": "uint256",
          "name": "_tokens_count",
          "type": "uint256"
        }
      ],
      "name": "addAirDrop",
      "outputs": [],
      "stateMutability": "payable",
      "type": "function"
    },
    {
      "inputs": [
        {
          "internalType": "bytes32",
          "name": "",
          "type": "bytes32"
        }
      ],
      "name": "airDrops",
      "outputs": [
        {
          "internalType": "int256",
          "name": "lat",
          "type": "int256"
        },
        {
          "internalType": "int256",
          "name": "long",
          "type": "int256"
        },
        {
          "internalType": "uint256",
          "name": "maxDistance",
          "type": "uint256"
        },
        {
          "internalType": "uint256",
          "name": "time_from",
          "type": "uint256"
        },
        {
          "internalType": "uint256",
          "name": "time_to",
          "type": "uint256"
        },
        {
          "internalType": "uint256",
          "name": "tokens_count",
          "type": "uint256"
        },
        {
          "internalType": "uint256",
          "name": "tokens_minted",
          "type": "uint256"
        }
      ],
      "stateMutability": "view",
      "type": "function"
    },
    {
      "inputs": [],
      "name": "airDropsCount",
      "outputs": [
        {
          "internalType": "uint256",
          "name": "",
          "type": "uint256"
        }
      ],
      "stateMutability": "view",
      "type": "function"
    },
    {
      "inputs": [
        {
          "internalType": "uint256",
          "name": "",
          "type": "uint256"
        }
      ],
      "name": "airDropsHashes",
      "outputs": [
        {
          "internalType": "bytes32",
          "name": "",
          "type": "bytes32"
        }
      ],
      "stateMutability": "view",
      "type": "function"
    },
    {
      "inputs": [
        {
          "internalType": "uint256",
          "name": "_tokens_count",
          "type": "uint256"
        }
      ],
      "name": "calculateFee",
      "outputs": [
        {
          "internalType": "uint256",
          "name": "_postingFee",
          "type": "uint256"
        }
      ],
      "stateMutability": "view",
      "type": "function"
    },
    {
      "inputs": [
        {
          "internalType": "int256",
          "name": "_lat",
          "type": "int256"
        },
        {
          "internalType": "int256",
          "name": "_long",
          "type": "int256"
        },
        {
          "internalType": "uint256",
          "name": "_distance",
          "type": "uint256"
        },
        {
          "internalType": "uint256",
          "name": "_time_from",
          "type": "uint256"
        },
        {
          "internalType": "uint256",
          "name": "_time_to",
          "type": "uint256"
        },
        {
          "internalType": "bytes32",
          "name": "_deviceHash",
          "type": "bytes32"
        },
        {
          "internalType": "bytes",
          "name": "signature",
          "type": "bytes"
        }
      ],
      "name": "claim",
      "outputs": [],
      "stateMutability": "nonpayable",
      "type": "function"
    },
    {
      "inputs": [],
      "name": "owner",
      "outputs": [
        {
          "internalType": "address",
          "name": "",
          "type": "address"
        }
      ],
      "stateMutability": "view",
      "type": "function"
    },
    {
      "inputs": [],
      "name": "renounceOwnership",
      "outputs": [],
      "stateMutability": "nonpayable",
      "type": "function"
    },
    {
      "inputs": [
        {
          "internalType": "uint256",
          "name": "cliff",
          "type": "uint256"
        }
      ],
      "name": "setFeeCliff",
      "outputs": [],
      "stateMutability": "nonpayable",
      "type": "function"
    },
    {
      "inputs": [
        {
          "internalType": "address",
          "name": "_receiver",
          "type": "address"
        }
      ],
      "name": "setFeeReceiver",
      "outputs": [],
      "stateMutability": "nonpayable",
      "type": "function"
    },
    {
      "inputs": [
        {
          "internalType": "address",
          "name": "newOwner",
          "type": "address"
        }
      ],
      "name": "transferOwnership",
      "outputs": [],
      "stateMutability": "nonpayable",
      "type": "function"
    },
    {
      "inputs": [],
      "name": "verifier",
      "outputs": [
        {
          "internalType": "contract VerifierInterface",
          "name": "",
          "type": "address"
        }
      ],
      "stateMutability": "view",
      "type": "function"
    }
  ],
  "bytecode": "0x60806040523480156200001157600080fd5b50604051620020cc380380620020cc8339818101604052810190620000379190620002ab565b620000576200004b6200013a60201b60201c565b6200014260201b60201c565b6001808190555084600260006101000a81548173ffffffffffffffffffffffffffffffffffffffff021916908373ffffffffffffffffffffffffffffffffffffffff16021790555083600360006101000a81548173ffffffffffffffffffffffffffffffffffffffff021916908373ffffffffffffffffffffffffffffffffffffffff1602179055508260058190555081600460006101000a81548173ffffffffffffffffffffffffffffffffffffffff021916908373ffffffffffffffffffffffffffffffffffffffff16021790555080600681905550505050505062000333565b600033905090565b60008060009054906101000a900473ffffffffffffffffffffffffffffffffffffffff169050816000806101000a81548173ffffffffffffffffffffffffffffffffffffffff021916908373ffffffffffffffffffffffffffffffffffffffff1602179055508173ffffffffffffffffffffffffffffffffffffffff168173ffffffffffffffffffffffffffffffffffffffff167f8be0079c531659141344cd1fd0a4f28419497f9722a3daafe3b4186f6b6457e060405160405180910390a35050565b600080fd5b600073ffffffffffffffffffffffffffffffffffffffff82169050919050565b600062000238826200020b565b9050919050565b6200024a816200022b565b81146200025657600080fd5b50565b6000815190506200026a816200023f565b92915050565b6000819050919050565b620002858162000270565b81146200029157600080fd5b50565b600081519050620002a5816200027a565b92915050565b600080600080600060a08688031215620002ca57620002c962000206565b5b6000620002da8882890162000259565b9550506020620002ed8882890162000259565b9450506040620003008882890162000294565b9350506060620003138882890162000259565b9250506080620003268882890162000294565b9150509295509295909350565b611d8980620003436000396000f3fe6080604052600436106100c25760003560e01c806399a5d7471161007f578063c9f2f32911610059578063c9f2f3291461026e578063d8a25fb31461028a578063efdcd974146102b5578063f2fde38b146102de576100c2565b806399a5d747146101cb578063a2ef24cc14610208578063bc35c90214610245576100c2565b806327ca0e23146100c75780632b7ac3f31461010a578063715018a6146101355780637c0b8de21461014c578063839adbb8146101775780638da5cb5b146101a0575b600080fd5b3480156100d357600080fd5b506100ee60048036038101906100e99190610eb3565b610307565b6040516101019796959493929190610f12565b60405180910390f35b34801561011657600080fd5b5061011f610349565b60405161012c9190611000565b60405180910390f35b34801561014157600080fd5b5061014a61036f565b005b34801561015857600080fd5b50610161610383565b60405161016e919061103c565b60405180910390f35b34801561018357600080fd5b5061019e600480360381019061019991906111f5565b6103a9565b005b3480156101ac57600080fd5b506101b5610866565b6040516101c291906112d4565b60405180910390f35b3480156101d757600080fd5b506101f260048036038101906101ed91906112ef565b61088f565b6040516101ff919061131c565b60405180910390f35b34801561021457600080fd5b5061022f600480360381019061022a91906112ef565b6108c7565b60405161023c9190611346565b60405180910390f35b34801561025157600080fd5b5061026c600480360381019061026791906112ef565b6108eb565b005b61028860048036038101906102839190611361565b6108fd565b005b34801561029657600080fd5b5061029f610baf565b6040516102ac919061131c565b60405180910390f35b3480156102c157600080fd5b506102dc60048036038101906102d7919061141a565b610bbc565b005b3480156102ea57600080fd5b506103056004803603810190610300919061141a565b610c08565b005b60086020528060005260406000206000915090508060000154908060010154908060020154908060030154908060040154908060050154908060060154905087565b600260009054906101000a900473ffffffffffffffffffffffffffffffffffffffff1681565b610377610c8b565b6103816000610d09565b565b600360009054906101000a900473ffffffffffffffffffffffffffffffffffffffff1681565b6103b1610dcd565b6000600260009054906101000a900473ffffffffffffffffffffffffffffffffffffffff1673ffffffffffffffffffffffffffffffffffffffff1663d6c037ad338a8a8a8a8a8a6040518863ffffffff1660e01b815260040161041a9796959493929190611447565b602060405180830381865afa158015610437573d6000803e3d6000fd5b505050506040513d601f19601f8201168201806040525081019061045b91906114cb565b9050600260009054906101000a900473ffffffffffffffffffffffffffffffffffffffff1673ffffffffffffffffffffffffffffffffffffffff1663258ae58282846040518363ffffffff1660e01b81526004016104ba929190611577565b602060405180830381865afa1580156104d7573d6000803e3d6000fd5b505050506040513d601f19601f820116820180604052508101906104fb91906115df565b61053a576040517f08c379a000000000000000000000000000000000000000000000000000000000815260040161053190611669565b60405180910390fd5b60006105498989898989610e1c565b905060001515600960003373ffffffffffffffffffffffffffffffffffffffff1673ffffffffffffffffffffffffffffffffffffffff168152602001908152602001600020600083815260200190815260200160002060009054906101000a900460ff161515146105ef576040517f08c379a00000000000000000000000000000000000000000000000000000000081526004016105e6906116fb565b60405180910390fd5b6000600860008381526020019081526020016000206040518060e00160405290816000820154815260200160018201548152602001600282015481526020016003820154815260200160048201548152602001600582015481526020016006820154815250509050600081604001511161069e576040517f08c379a000000000000000000000000000000000000000000000000000000000815260040161069590611767565b60405180910390fd5b60008160a0015111156107025760008160c001518260a001516106c191906117b6565b11610701576040517f08c379a00000000000000000000000000000000000000000000000000000000081526004016106f89061185c565b60405180910390fd5b5b6001600960003373ffffffffffffffffffffffffffffffffffffffff1673ffffffffffffffffffffffffffffffffffffffff168152602001908152602001600020600084815260200190815260200160002060006101000a81548160ff021916908315150217905550600360009054906101000a900473ffffffffffffffffffffffffffffffffffffffff1673ffffffffffffffffffffffffffffffffffffffff166340d097c3336040518263ffffffff1660e01b81526004016107c691906112d4565b600060405180830381600087803b1580156107e057600080fd5b505af11580156107f4573d6000803e3d6000fd5b50505050813373ffffffffffffffffffffffffffffffffffffffff167f91d697238e9aa9f3172d17522c9be529b94a892481554e1ea619369b5b12f39a60405160405180910390a38060c001805180919061084e9061187c565b8152505050505061085d610e58565b50505050505050565b60008060009054906101000a900473ffffffffffffffffffffffffffffffffffffffff16905090565b600060065482106108b1576006546005546108aa91906118c4565b90506108c2565b816005546108bf91906118c4565b90505b919050565b600781815481106108d757600080fd5b906000526020600020016000915090505481565b6108f3610c8b565b8060068190555050565b7fffffffffffffffffffffffffffffffffffffffffffffffffffffffffffffffa6861215801561092e5750605a8613155b61096d576040517f08c379a000000000000000000000000000000000000000000000000000000000815260040161096490611952565b60405180910390fd5b7fffffffffffffffffffffffffffffffffffffffffffffffffffffffffffffff4c851315801561099e575060b48513155b6109dd576040517f08c379a00000000000000000000000000000000000000000000000000000000081526004016109d4906119be565b60405180910390fd5b60008411610a20576040517f08c379a0000000000000000000000000000000000000000000000000000000008152600401610a1790611a2a565b60405180910390fd5b610a298161088f565b341015610a6b576040517f08c379a0000000000000000000000000000000000000000000000000000000008152600401610a6290611abc565b60405180910390fd5b6000610a7a8787878787610e1c565b90506000600860008381526020019081526020016000206002015414610ad5576040517f08c379a0000000000000000000000000000000000000000000000000000000008152600401610acc90611b28565b60405180910390fd5b6040518060e00160405280888152602001878152602001868152602001858152602001848152602001838152602001600081525060086000838152602001908152602001600020600082015181600001556020820151816001015560408201518160020155606082015181600301556080820151816004015560a0820151816005015560c082015181600601559050506007819080600181540180825580915050600190039060005260206000200160009091909190915055600a6000815480929190610ba19061187c565b919050555050505050505050565b6000600780549050905090565b610bc4610c8b565b80600460006101000a81548173ffffffffffffffffffffffffffffffffffffffff021916908373ffffffffffffffffffffffffffffffffffffffff16021790555050565b610c10610c8b565b600073ffffffffffffffffffffffffffffffffffffffff168173ffffffffffffffffffffffffffffffffffffffff1603610c7f576040517f08c379a0000000000000000000000000000000000000000000000000000000008152600401610c7690611bba565b60405180910390fd5b610c8881610d09565b50565b610c93610e61565b73ffffffffffffffffffffffffffffffffffffffff16610cb1610866565b73ffffffffffffffffffffffffffffffffffffffff1614610d07576040517f08c379a0000000000000000000000000000000000000000000000000000000008152600401610cfe90611c26565b60405180910390fd5b565b60008060009054906101000a900473ffffffffffffffffffffffffffffffffffffffff169050816000806101000a81548173ffffffffffffffffffffffffffffffffffffffff021916908373ffffffffffffffffffffffffffffffffffffffff1602179055508173ffffffffffffffffffffffffffffffffffffffff168173ffffffffffffffffffffffffffffffffffffffff167f8be0079c531659141344cd1fd0a4f28419497f9722a3daafe3b4186f6b6457e060405160405180910390a35050565b600260015403610e12576040517f08c379a0000000000000000000000000000000000000000000000000000000008152600401610e0990611c92565b60405180910390fd5b6002600181905550565b60008585858585604051602001610e37959493929190611cf4565b60405160208183030381529060405280519060200120905095945050505050565b60018081905550565b600033905090565b6000604051905090565b600080fd5b600080fd5b6000819050919050565b610e9081610e7d565b8114610e9b57600080fd5b50565b600081359050610ead81610e87565b92915050565b600060208284031215610ec957610ec8610e73565b5b6000610ed784828501610e9e565b91505092915050565b6000819050919050565b610ef381610ee0565b82525050565b6000819050919050565b610f0c81610ef9565b82525050565b600060e082019050610f27600083018a610eea565b610f346020830189610eea565b610f416040830188610f03565b610f4e6060830187610f03565b610f5b6080830186610f03565b610f6860a0830185610f03565b610f7560c0830184610f03565b98975050505050505050565b600073ffffffffffffffffffffffffffffffffffffffff82169050919050565b6000819050919050565b6000610fc6610fc1610fbc84610f81565b610fa1565b610f81565b9050919050565b6000610fd882610fab565b9050919050565b6000610fea82610fcd565b9050919050565b610ffa81610fdf565b82525050565b60006020820190506110156000830184610ff1565b92915050565b600061102682610fcd565b9050919050565b6110368161101b565b82525050565b6000602082019050611051600083018461102d565b92915050565b61106081610ee0565b811461106b57600080fd5b50565b60008135905061107d81611057565b92915050565b61108c81610ef9565b811461109757600080fd5b50565b6000813590506110a981611083565b92915050565b600080fd5b600080fd5b6000601f19601f8301169050919050565b7f4e487b7100000000000000000000000000000000000000000000000000000000600052604160045260246000fd5b611102826110b9565b810181811067ffffffffffffffff82111715611121576111206110ca565b5b80604052505050565b6000611134610e69565b905061114082826110f9565b919050565b600067ffffffffffffffff8211156111605761115f6110ca565b5b611169826110b9565b9050602081019050919050565b82818337600083830152505050565b600061119861119384611145565b61112a565b9050828152602081018484840111156111b4576111b36110b4565b5b6111bf848285611176565b509392505050565b600082601f8301126111dc576111db6110af565b5b81356111ec848260208601611185565b91505092915050565b600080600080600080600060e0888a03121561121457611213610e73565b5b60006112228a828b0161106e565b97505060206112338a828b0161106e565b96505060406112448a828b0161109a565b95505060606112558a828b0161109a565b94505060806112668a828b0161109a565b93505060a06112778a828b01610e9e565b92505060c088013567ffffffffffffffff81111561129857611297610e78565b5b6112a48a828b016111c7565b91505092959891949750929550565b60006112be82610f81565b9050919050565b6112ce816112b3565b82525050565b60006020820190506112e960008301846112c5565b92915050565b60006020828403121561130557611304610e73565b5b60006113138482850161109a565b91505092915050565b60006020820190506113316000830184610f03565b92915050565b61134081610e7d565b82525050565b600060208201905061135b6000830184611337565b92915050565b60008060008060008060c0878903121561137e5761137d610e73565b5b600061138c89828a0161106e565b965050602061139d89828a0161106e565b95505060406113ae89828a0161109a565b94505060606113bf89828a0161109a565b93505060806113d089828a0161109a565b92505060a06113e189828a0161109a565b9150509295509295509295565b6113f7816112b3565b811461140257600080fd5b50565b600081359050611414816113ee565b92915050565b6000602082840312156114305761142f610e73565b5b600061143e84828501611405565b91505092915050565b600060e08201905061145c600083018a6112c5565b6114696020830189610eea565b6114766040830188610eea565b6114836060830187610f03565b6114906080830186610f03565b61149d60a0830185610f03565b6114aa60c0830184611337565b98975050505050505050565b6000815190506114c581610e87565b92915050565b6000602082840312156114e1576114e0610e73565b5b60006114ef848285016114b6565b91505092915050565b600081519050919050565b600082825260208201905092915050565b60005b83811015611532578082015181840152602081019050611517565b60008484015250505050565b6000611549826114f8565b6115538185611503565b9350611563818560208601611514565b61156c816110b9565b840191505092915050565b600060408201905061158c6000830185611337565b818103602083015261159e818461153e565b90509392505050565b60008115159050919050565b6115bc816115a7565b81146115c757600080fd5b50565b6000815190506115d9816115b3565b92915050565b6000602082840312156115f5576115f4610e73565b5b6000611603848285016115ca565b91505092915050565b600082825260208201905092915050565b7f496e76616c69642070726f6f66206f66206c6f636174696f6e00000000000000600082015250565b600061165360198361160c565b915061165e8261161d565b602082019050919050565b6000602082019050818103600083015261168281611646565b9050919050565b7f41697244726f7020686173206265656e20616c726561647920636c61696d656460008201527f20666f7220746869732061646472657373000000000000000000000000000000602082015250565b60006116e560318361160c565b91506116f082611689565b604082019050919050565b60006020820190508181036000830152611714816116d8565b9050919050565b7f41697244726f7020646f6573206e6f7420657869737400000000000000000000600082015250565b600061175160168361160c565b915061175c8261171b565b602082019050919050565b6000602082019050818103600083015261178081611744565b9050919050565b7f4e487b7100000000000000000000000000000000000000000000000000000000600052601160045260246000fd5b60006117c182610ef9565b91506117cc83610ef9565b92508282039050818111156117e4576117e3611787565b5b92915050565b7f4e6f206d6f726520746f6b656e73206c65667420666f7220746869732041697260008201527f44726f7000000000000000000000000000000000000000000000000000000000602082015250565b600061184660248361160c565b9150611851826117ea565b604082019050919050565b6000602082019050818103600083015261187581611839565b9050919050565b600061188782610ef9565b91507fffffffffffffffffffffffffffffffffffffffffffffffffffffffffffffffff82036118b9576118b8611787565b5b600182019050919050565b60006118cf82610ef9565b91506118da83610ef9565b92508282026118e881610ef9565b915082820484148315176118ff576118fe611787565b5b5092915050565b7f496e76616c6964206c617469747564652076616c756500000000000000000000600082015250565b600061193c60168361160c565b915061194782611906565b602082019050919050565b6000602082019050818103600083015261196b8161192f565b9050919050565b7f496e76616c6964206c6f6e6769747564652076616c7565000000000000000000600082015250565b60006119a860178361160c565b91506119b382611972565b602082019050919050565b600060208201905081810360008301526119d78161199b565b9050919050565b7f496e76616c6964206d61782064697374616e6365000000000000000000000000600082015250565b6000611a1460148361160c565b9150611a1f826119de565b602082019050919050565b60006020820190508181036000830152611a4381611a07565b9050919050565b7f56616c75652073656e742077697468207478206973206e6f742073756666696360008201527f69656e74206261736564206f6e2074686520746f6b656e7320636f756e740000602082015250565b6000611aa6603e8361160c565b9150611ab182611a4a565b604082019050919050565b60006020820190508181036000830152611ad581611a99565b9050919050565b7f4475706c6963617465642061697244726f700000000000000000000000000000600082015250565b6000611b1260128361160c565b9150611b1d82611adc565b602082019050919050565b60006020820190508181036000830152611b4181611b05565b9050919050565b7f4f776e61626c653a206e6577206f776e657220697320746865207a65726f206160008201527f6464726573730000000000000000000000000000000000000000000000000000602082015250565b6000611ba460268361160c565b9150611baf82611b48565b604082019050919050565b60006020820190508181036000830152611bd381611b97565b9050919050565b7f4f776e61626c653a2063616c6c6572206973206e6f7420746865206f776e6572600082015250565b6000611c1060208361160c565b9150611c1b82611bda565b602082019050919050565b60006020820190508181036000830152611c3f81611c03565b9050919050565b7f5265656e7472616e637947756172643a207265656e7472616e742063616c6c00600082015250565b6000611c7c601f8361160c565b9150611c8782611c46565b602082019050919050565b60006020820190508181036000830152611cab81611c6f565b9050919050565b6000819050919050565b611ccd611cc882610ee0565b611cb2565b82525050565b6000819050919050565b611cee611ce982610ef9565b611cd3565b82525050565b6000611d008288611cbc565b602082019150611d108287611cbc565b602082019150611d208286611cdd565b602082019150611d308285611cdd565b602082019150611d408284611cdd565b602082019150819050969550505050505056fea264697066735822122088657bbc018be87c69aa0f57e6de316f0fea737504832f4cfb9cab4a3714afea64736f6c63430008110033",
  "linkReferences": {},
  "deployedLinkReferences": {}
}