{
  "_format": "hh-sol-artifact-1",
  "contractName": "Logic",
  "sourceName": "contracts/Logic.sol",
  "abi": [
    {
      "inputs": [
        {
          "internalType": "address",
          "name": "_verifier",
          "type": "address"
        },
        {
          "internalType": "address",
          "name": "_nft",
          "type": "address"
        },
        {
          "internalType": "uint256",
          "name": "_baseFee",
          "type": "uint256"
        },
        {
          "internalType": "address",
          "name": "_feeReceiver",
          "type": "address"
        },
        {
          "internalType": "uint256",
          "name": "_feeCliff",
          "type": "uint256"
        }
      ],
      "stateMutability": "nonpayable",
      "type": "constructor"
    },
    {
      "anonymous": false,
      "inputs": [
        {
          "indexed": true,
          "internalType": "address",
          "name": "holder",
          "type": "address"
        },
        {
          "indexed": true,
          "internalType": "bytes32",
          "name": "deviceHash",
          "type": "bytes32"
        }
      ],
      "name": "Claimed",
      "type": "event"
    },
    {
      "anonymous": false,
      "inputs": [
        {
          "indexed": true,
          "internalType": "address",
          "name": "previousOwner",
          "type": "address"
        },
        {
          "indexed": true,
          "internalType": "address",
          "name": "newOwner",
          "type": "address"
        }
      ],
      "name": "OwnershipTransferred",
      "type": "event"
    },
    {
      "inputs": [],
      "name": "NFT",
      "outputs": [
        {
          "internalType": "contract LocationNFT",
          "name": "",
          "type": "address"
        }
      ],
      "stateMutability": "view",
      "type": "function"
    },
    {
      "inputs": [
        {
          "internalType": "int256",
          "name": "_lat",
          "type": "int256"
        },
        {
          "internalType": "int256",
          "name": "_long",
          "type": "int256"
        },
        {
          "internalType": "uint256",
          "name": "_maxDistance",
          "type": "uint256"
        },
        {
          "internalType": "uint256",
          "name": "_time_from",
          "type": "uint256"
        },
        {
          "internalType": "uint256",
          "name": "_time_to",
          "type": "uint256"
        },
        {
          "internalType": "uint256",
          "name": "_tokens_count",
          "type": "uint256"
        }
      ],
      "name": "addAirDrop",
      "outputs": [],
      "stateMutability": "payable",
      "type": "function"
    },
    {
      "inputs": [
        {
          "internalType": "bytes32",
          "name": "",
          "type": "bytes32"
        }
      ],
      "name": "airDrops",
      "outputs": [
        {
          "internalType": "int256",
          "name": "lat",
          "type": "int256"
        },
        {
          "internalType": "int256",
          "name": "long",
          "type": "int256"
        },
        {
          "internalType": "uint256",
          "name": "maxDistance",
          "type": "uint256"
        },
        {
          "internalType": "uint256",
          "name": "time_from",
          "type": "uint256"
        },
        {
          "internalType": "uint256",
          "name": "time_to",
          "type": "uint256"
        },
        {
          "internalType": "uint256",
          "name": "tokens_count",
          "type": "uint256"
        },
        {
          "internalType": "uint256",
          "name": "tokens_minted",
          "type": "uint256"
        }
      ],
      "stateMutability": "view",
      "type": "function"
    },
    {
      "inputs": [],
      "name": "airDropsCount",
      "outputs": [
        {
          "internalType": "uint256",
          "name": "",
          "type": "uint256"
        }
      ],
      "stateMutability": "view",
      "type": "function"
    },
    {
      "inputs": [
        {
          "internalType": "uint256",
          "name": "",
          "type": "uint256"
        }
      ],
      "name": "airDropsHashes",
      "outputs": [
        {
          "internalType": "bytes32",
          "name": "",
          "type": "bytes32"
        }
      ],
      "stateMutability": "view",
      "type": "function"
    },
    {
      "inputs": [],
      "name": "baseFee",
      "outputs": [
        {
          "internalType": "uint256",
          "name": "",
          "type": "uint256"
        }
      ],
      "stateMutability": "view",
      "type": "function"
    },
    {
      "inputs": [
        {
          "internalType": "uint256",
          "name": "_tokens_count",
          "type": "uint256"
        }
      ],
      "name": "calculateFee",
      "outputs": [
        {
          "internalType": "uint256",
          "name": "",
          "type": "uint256"
        }
      ],
      "stateMutability": "view",
      "type": "function"
    },
    {
      "inputs": [
        {
          "internalType": "int256",
          "name": "_lat",
          "type": "int256"
        },
        {
          "internalType": "int256",
          "name": "_long",
          "type": "int256"
        },
        {
          "internalType": "uint256",
          "name": "_distance",
          "type": "uint256"
        },
        {
          "internalType": "uint256",
          "name": "_time_from",
          "type": "uint256"
        },
        {
          "internalType": "uint256",
          "name": "_time_to",
          "type": "uint256"
        },
        {
          "internalType": "bytes32",
          "name": "_deviceHash",
          "type": "bytes32"
        },
        {
          "internalType": "bytes",
          "name": "signature",
          "type": "bytes"
        }
      ],
      "name": "claim",
      "outputs": [],
      "stateMutability": "nonpayable",
      "type": "function"
    },
    {
      "inputs": [
        {
          "internalType": "address",
          "name": "",
          "type": "address"
        },
        {
          "internalType": "bytes32",
          "name": "",
          "type": "bytes32"
        }
      ],
      "name": "claimedAirDrops",
      "outputs": [
        {
          "internalType": "bool",
          "name": "",
          "type": "bool"
        }
      ],
      "stateMutability": "view",
      "type": "function"
    },
    {
      "inputs": [],
      "name": "feeCliff",
      "outputs": [
        {
          "internalType": "uint256",
          "name": "",
          "type": "uint256"
        }
      ],
      "stateMutability": "view",
      "type": "function"
    },
    {
      "inputs": [],
      "name": "feeReceiver",
      "outputs": [
        {
          "internalType": "address",
          "name": "",
          "type": "address"
        }
      ],
      "stateMutability": "view",
      "type": "function"
    },
    {
      "inputs": [],
      "name": "getAllHashes",
      "outputs": [
        {
          "internalType": "bytes32[]",
          "name": "",
          "type": "bytes32[]"
        }
      ],
      "stateMutability": "view",
      "type": "function"
    },
    {
      "inputs": [],
      "name": "owner",
      "outputs": [
        {
          "internalType": "address",
          "name": "",
          "type": "address"
        }
      ],
      "stateMutability": "view",
      "type": "function"
    },
    {
      "inputs": [],
      "name": "renounceOwnership",
      "outputs": [],
      "stateMutability": "nonpayable",
      "type": "function"
    },
    {
      "inputs": [
        {
          "internalType": "uint256",
          "name": "cliff",
          "type": "uint256"
        }
      ],
      "name": "setFeeCliff",
      "outputs": [],
      "stateMutability": "nonpayable",
      "type": "function"
    },
    {
      "inputs": [
        {
          "internalType": "address",
          "name": "_receiver",
          "type": "address"
        }
      ],
      "name": "setFeeReceiver",
      "outputs": [],
      "stateMutability": "nonpayable",
      "type": "function"
    },
    {
      "inputs": [
        {
          "internalType": "address",
          "name": "newOwner",
          "type": "address"
        }
      ],
      "name": "transferOwnership",
      "outputs": [],
      "stateMutability": "nonpayable",
      "type": "function"
    },
    {
      "inputs": [],
      "name": "verifier",
      "outputs": [
        {
          "internalType": "contract VerifierInterface",
          "name": "",
          "type": "address"
        }
      ],
      "stateMutability": "view",
      "type": "function"
    }
  ],
  "bytecode": "0x60806040523480156200001157600080fd5b506040516200240a3803806200240a8339818101604052810190620000379190620002ab565b620000576200004b6200013a60201b60201c565b6200014260201b60201c565b6001808190555084600260006101000a81548173ffffffffffffffffffffffffffffffffffffffff021916908373ffffffffffffffffffffffffffffffffffffffff16021790555083600360006101000a81548173ffffffffffffffffffffffffffffffffffffffff021916908373ffffffffffffffffffffffffffffffffffffffff1602179055508260058190555081600460006101000a81548173ffffffffffffffffffffffffffffffffffffffff021916908373ffffffffffffffffffffffffffffffffffffffff16021790555080600681905550505050505062000333565b600033905090565b60008060009054906101000a900473ffffffffffffffffffffffffffffffffffffffff169050816000806101000a81548173ffffffffffffffffffffffffffffffffffffffff021916908373ffffffffffffffffffffffffffffffffffffffff1602179055508173ffffffffffffffffffffffffffffffffffffffff168173ffffffffffffffffffffffffffffffffffffffff167f8be0079c531659141344cd1fd0a4f28419497f9722a3daafe3b4186f6b6457e060405160405180910390a35050565b600080fd5b600073ffffffffffffffffffffffffffffffffffffffff82169050919050565b600062000238826200020b565b9050919050565b6200024a816200022b565b81146200025657600080fd5b50565b6000815190506200026a816200023f565b92915050565b6000819050919050565b620002858162000270565b81146200029157600080fd5b50565b600081519050620002a5816200027a565b92915050565b600080600080600060a08688031215620002ca57620002c962000206565b5b6000620002da8882890162000259565b9550506020620002ed8882890162000259565b9450506040620003008882890162000294565b9350506060620003138882890162000259565b9250506080620003268882890162000294565b9150509295509295909350565b6120c780620003436000396000f3fe6080604052600436106101095760003560e01c8063a2ef24cc11610095578063c9f2f32911610064578063c9f2f32914610373578063d8a25fb31461038f578063efdcd974146103ba578063f2fde38b146103e3578063fe99f7421461040c57610109565b8063a2ef24cc146102a5578063a3da42ef146102e2578063b3f006741461031f578063bc35c9021461034a57610109565b8063715018a6116100dc578063715018a6146101d25780637c0b8de2146101e9578063839adbb8146102145780638da5cb5b1461023d57806399a5d7471461026857610109565b806327ca0e231461010e5780632b7ac3f3146101515780633fdd47d91461017c5780636ef25c3a146101a7575b600080fd5b34801561011a57600080fd5b50610135600480360381019061013091906110a7565b610437565b6040516101489796959493929190611106565b60405180910390f35b34801561015d57600080fd5b50610166610479565b60405161017391906111f4565b60405180910390f35b34801561018857600080fd5b5061019161049f565b60405161019e919061120f565b60405180910390f35b3480156101b357600080fd5b506101bc6104a5565b6040516101c9919061120f565b60405180910390f35b3480156101de57600080fd5b506101e76104ab565b005b3480156101f557600080fd5b506101fe6104bf565b60405161020b919061124b565b60405180910390f35b34801561022057600080fd5b5061023b60048036038101906102369190611404565b6104e5565b005b34801561024957600080fd5b506102526109a2565b60405161025f91906114e3565b60405180910390f35b34801561027457600080fd5b5061028f600480360381019061028a91906114fe565b6109cb565b60405161029c919061120f565b60405180910390f35b3480156102b157600080fd5b506102cc60048036038101906102c791906114fe565b610a08565b6040516102d9919061153a565b60405180910390f35b3480156102ee57600080fd5b5061030960048036038101906103049190611581565b610a2c565b60405161031691906115dc565b60405180910390f35b34801561032b57600080fd5b50610334610a5b565b60405161034191906114e3565b60405180910390f35b34801561035657600080fd5b50610371600480360381019061036c91906114fe565b610a81565b005b61038d600480360381019061038891906115f7565b610a93565b005b34801561039b57600080fd5b506103a4610d4b565b6040516103b1919061120f565b60405180910390f35b3480156103c657600080fd5b506103e160048036038101906103dc9190611684565b610d58565b005b3480156103ef57600080fd5b5061040a60048036038101906104059190611684565b610da4565b005b34801561041857600080fd5b50610421610e27565b60405161042e919061176f565b60405180910390f35b60086020528060005260406000206000915090508060000154908060010154908060020154908060030154908060040154908060050154908060060154905087565b600260009054906101000a900473ffffffffffffffffffffffffffffffffffffffff1681565b60065481565b60055481565b6104b3610e7f565b6104bd6000610efd565b565b600360009054906101000a900473ffffffffffffffffffffffffffffffffffffffff1681565b6104ed610fc1565b6000600260009054906101000a900473ffffffffffffffffffffffffffffffffffffffff1673ffffffffffffffffffffffffffffffffffffffff1663d6c037ad338a8a8a8a8a8a6040518863ffffffff1660e01b81526004016105569796959493929190611791565b602060405180830381865afa158015610573573d6000803e3d6000fd5b505050506040513d601f19601f820116820180604052508101906105979190611815565b9050600260009054906101000a900473ffffffffffffffffffffffffffffffffffffffff1673ffffffffffffffffffffffffffffffffffffffff1663258ae58282846040518363ffffffff1660e01b81526004016105f69291906118c1565b602060405180830381865afa158015610613573d6000803e3d6000fd5b505050506040513d601f19601f82011682018060405250810190610637919061191d565b610676576040517f08c379a000000000000000000000000000000000000000000000000000000000815260040161066d906119a7565b60405180910390fd5b60006106858989898989611010565b905060001515600960003373ffffffffffffffffffffffffffffffffffffffff1673ffffffffffffffffffffffffffffffffffffffff168152602001908152602001600020600083815260200190815260200160002060009054906101000a900460ff1615151461072b576040517f08c379a000000000000000000000000000000000000000000000000000000000815260040161072290611a39565b60405180910390fd5b6000600860008381526020019081526020016000206040518060e0016040529081600082015481526020016001820154815260200160028201548152602001600382015481526020016004820154815260200160058201548152602001600682015481525050905060008160400151116107da576040517f08c379a00000000000000000000000000000000000000000000000000000000081526004016107d190611aa5565b60405180910390fd5b60008160a00151111561083e5760008160c001518260a001516107fd9190611af4565b1161083d576040517f08c379a000000000000000000000000000000000000000000000000000000000815260040161083490611b9a565b60405180910390fd5b5b6001600960003373ffffffffffffffffffffffffffffffffffffffff1673ffffffffffffffffffffffffffffffffffffffff168152602001908152602001600020600084815260200190815260200160002060006101000a81548160ff021916908315150217905550600360009054906101000a900473ffffffffffffffffffffffffffffffffffffffff1673ffffffffffffffffffffffffffffffffffffffff166340d097c3336040518263ffffffff1660e01b815260040161090291906114e3565b600060405180830381600087803b15801561091c57600080fd5b505af1158015610930573d6000803e3d6000fd5b50505050813373ffffffffffffffffffffffffffffffffffffffff167f91d697238e9aa9f3172d17522c9be529b94a892481554e1ea619369b5b12f39a60405160405180910390a38060c001805180919061098a90611bba565b8152505050505061099961104c565b50505050505050565b60008060009054906101000a900473ffffffffffffffffffffffffffffffffffffffff16905090565b60008060065483106109ee576005546006546109e79190611c02565b90506109ff565b600554836109fc9190611c02565b90505b80915050919050565b60078181548110610a1857600080fd5b906000526020600020016000915090505481565b60096020528160005260406000206020528060005260406000206000915091509054906101000a900460ff1681565b600460009054906101000a900473ffffffffffffffffffffffffffffffffffffffff1681565b610a89610e7f565b8060068190555050565b7ffffffffffffffffffffffffffffffffffffffffffffffffffffffffffaa2b5808612158015610ac7575063055d4a808613155b610b06576040517f08c379a0000000000000000000000000000000000000000000000000000000008152600401610afd90611c90565b60405180910390fd5b7ffffffffffffffffffffffffffffffffffffffffffffffffffffffffff5456b008512158015610b3a5750630aba95008513155b610b79576040517f08c379a0000000000000000000000000000000000000000000000000000000008152600401610b7090611cfc565b60405180910390fd5b60008411610bbc576040517f08c379a0000000000000000000000000000000000000000000000000000000008152600401610bb390611d68565b60405180910390fd5b610bc5816109cb565b341015610c07576040517f08c379a0000000000000000000000000000000000000000000000000000000008152600401610bfe90611dfa565b60405180910390fd5b6000610c168787878787611010565b90506000600860008381526020019081526020016000206002015414610c71576040517f08c379a0000000000000000000000000000000000000000000000000000000008152600401610c6890611e66565b60405180910390fd5b6040518060e00160405280888152602001878152602001868152602001858152602001848152602001838152602001600081525060086000838152602001908152602001600020600082015181600001556020820151816001015560408201518160020155606082015181600301556080820151816004015560a0820151816005015560c082015181600601559050506007819080600181540180825580915050600190039060005260206000200160009091909190915055600a6000815480929190610d3d90611bba565b919050555050505050505050565b6000600780549050905090565b610d60610e7f565b80600460006101000a81548173ffffffffffffffffffffffffffffffffffffffff021916908373ffffffffffffffffffffffffffffffffffffffff16021790555050565b610dac610e7f565b600073ffffffffffffffffffffffffffffffffffffffff168173ffffffffffffffffffffffffffffffffffffffff1603610e1b576040517f08c379a0000000000000000000000000000000000000000000000000000000008152600401610e1290611ef8565b60405180910390fd5b610e2481610efd565b50565b60606007805480602002602001604051908101604052809291908181526020018280548015610e7557602002820191906000526020600020905b815481526020019060010190808311610e61575b5050505050905090565b610e87611055565b73ffffffffffffffffffffffffffffffffffffffff16610ea56109a2565b73ffffffffffffffffffffffffffffffffffffffff1614610efb576040517f08c379a0000000000000000000000000000000000000000000000000000000008152600401610ef290611f64565b60405180910390fd5b565b60008060009054906101000a900473ffffffffffffffffffffffffffffffffffffffff169050816000806101000a81548173ffffffffffffffffffffffffffffffffffffffff021916908373ffffffffffffffffffffffffffffffffffffffff1602179055508173ffffffffffffffffffffffffffffffffffffffff168173ffffffffffffffffffffffffffffffffffffffff167f8be0079c531659141344cd1fd0a4f28419497f9722a3daafe3b4186f6b6457e060405160405180910390a35050565b600260015403611006576040517f08c379a0000000000000000000000000000000000000000000000000000000008152600401610ffd90611fd0565b60405180910390fd5b6002600181905550565b6000858585858560405160200161102b959493929190612032565b60405160208183030381529060405280519060200120905095945050505050565b60018081905550565b600033905090565b6000604051905090565b600080fd5b600080fd5b6000819050919050565b61108481611071565b811461108f57600080fd5b50565b6000813590506110a18161107b565b92915050565b6000602082840312156110bd576110bc611067565b5b60006110cb84828501611092565b91505092915050565b6000819050919050565b6110e7816110d4565b82525050565b6000819050919050565b611100816110ed565b82525050565b600060e08201905061111b600083018a6110de565b61112860208301896110de565b61113560408301886110f7565b61114260608301876110f7565b61114f60808301866110f7565b61115c60a08301856110f7565b61116960c08301846110f7565b98975050505050505050565b600073ffffffffffffffffffffffffffffffffffffffff82169050919050565b6000819050919050565b60006111ba6111b56111b084611175565b611195565b611175565b9050919050565b60006111cc8261119f565b9050919050565b60006111de826111c1565b9050919050565b6111ee816111d3565b82525050565b600060208201905061120960008301846111e5565b92915050565b600060208201905061122460008301846110f7565b92915050565b6000611235826111c1565b9050919050565b6112458161122a565b82525050565b6000602082019050611260600083018461123c565b92915050565b61126f816110d4565b811461127a57600080fd5b50565b60008135905061128c81611266565b92915050565b61129b816110ed565b81146112a657600080fd5b50565b6000813590506112b881611292565b92915050565b600080fd5b600080fd5b6000601f19601f8301169050919050565b7f4e487b7100000000000000000000000000000000000000000000000000000000600052604160045260246000fd5b611311826112c8565b810181811067ffffffffffffffff821117156113305761132f6112d9565b5b80604052505050565b600061134361105d565b905061134f8282611308565b919050565b600067ffffffffffffffff82111561136f5761136e6112d9565b5b611378826112c8565b9050602081019050919050565b82818337600083830152505050565b60006113a76113a284611354565b611339565b9050828152602081018484840111156113c3576113c26112c3565b5b6113ce848285611385565b509392505050565b600082601f8301126113eb576113ea6112be565b5b81356113fb848260208601611394565b91505092915050565b600080600080600080600060e0888a03121561142357611422611067565b5b60006114318a828b0161127d565b97505060206114428a828b0161127d565b96505060406114538a828b016112a9565b95505060606114648a828b016112a9565b94505060806114758a828b016112a9565b93505060a06114868a828b01611092565b92505060c088013567ffffffffffffffff8111156114a7576114a661106c565b5b6114b38a828b016113d6565b91505092959891949750929550565b60006114cd82611175565b9050919050565b6114dd816114c2565b82525050565b60006020820190506114f860008301846114d4565b92915050565b60006020828403121561151457611513611067565b5b6000611522848285016112a9565b91505092915050565b61153481611071565b82525050565b600060208201905061154f600083018461152b565b92915050565b61155e816114c2565b811461156957600080fd5b50565b60008135905061157b81611555565b92915050565b6000806040838503121561159857611597611067565b5b60006115a68582860161156c565b92505060206115b785828601611092565b9150509250929050565b60008115159050919050565b6115d6816115c1565b82525050565b60006020820190506115f160008301846115cd565b92915050565b60008060008060008060c0878903121561161457611613611067565b5b600061162289828a0161127d565b965050602061163389828a0161127d565b955050604061164489828a016112a9565b945050606061165589828a016112a9565b935050608061166689828a016112a9565b92505060a061167789828a016112a9565b9150509295509295509295565b60006020828403121561169a57611699611067565b5b60006116a88482850161156c565b91505092915050565b600081519050919050565b600082825260208201905092915050565b6000819050602082019050919050565b6116e681611071565b82525050565b60006116f883836116dd565b60208301905092915050565b6000602082019050919050565b600061171c826116b1565b61172681856116bc565b9350611731836116cd565b8060005b8381101561176257815161174988826116ec565b975061175483611704565b925050600181019050611735565b5085935050505092915050565b600060208201905081810360008301526117898184611711565b905092915050565b600060e0820190506117a6600083018a6114d4565b6117b360208301896110de565b6117c060408301886110de565b6117cd60608301876110f7565b6117da60808301866110f7565b6117e760a08301856110f7565b6117f460c083018461152b565b98975050505050505050565b60008151905061180f8161107b565b92915050565b60006020828403121561182b5761182a611067565b5b600061183984828501611800565b91505092915050565b600081519050919050565b600082825260208201905092915050565b60005b8381101561187c578082015181840152602081019050611861565b60008484015250505050565b600061189382611842565b61189d818561184d565b93506118ad81856020860161185e565b6118b6816112c8565b840191505092915050565b60006040820190506118d6600083018561152b565b81810360208301526118e88184611888565b90509392505050565b6118fa816115c1565b811461190557600080fd5b50565b600081519050611917816118f1565b92915050565b60006020828403121561193357611932611067565b5b600061194184828501611908565b91505092915050565b600082825260208201905092915050565b7f496e76616c69642070726f6f66206f66206c6f636174696f6e00000000000000600082015250565b600061199160198361194a565b915061199c8261195b565b602082019050919050565b600060208201905081810360008301526119c081611984565b9050919050565b7f41697244726f7020686173206265656e20616c726561647920636c61696d656460008201527f20666f7220746869732061646472657373000000000000000000000000000000602082015250565b6000611a2360318361194a565b9150611a2e826119c7565b604082019050919050565b60006020820190508181036000830152611a5281611a16565b9050919050565b7f41697244726f7020646f6573206e6f7420657869737400000000000000000000600082015250565b6000611a8f60168361194a565b9150611a9a82611a59565b602082019050919050565b60006020820190508181036000830152611abe81611a82565b9050919050565b7f4e487b7100000000000000000000000000000000000000000000000000000000600052601160045260246000fd5b6000611aff826110ed565b9150611b0a836110ed565b9250828203905081811115611b2257611b21611ac5565b5b92915050565b7f4e6f206d6f726520746f6b656e73206c65667420666f7220746869732041697260008201527f44726f7000000000000000000000000000000000000000000000000000000000602082015250565b6000611b8460248361194a565b9150611b8f82611b28565b604082019050919050565b60006020820190508181036000830152611bb381611b77565b9050919050565b6000611bc5826110ed565b91507fffffffffffffffffffffffffffffffffffffffffffffffffffffffffffffffff8203611bf757611bf6611ac5565b5b600182019050919050565b6000611c0d826110ed565b9150611c18836110ed565b9250828202611c26816110ed565b91508282048414831517611c3d57611c3c611ac5565b5b5092915050565b7f496e76616c6964206c617469747564652076616c756500000000000000000000600082015250565b6000611c7a60168361194a565b9150611c8582611c44565b602082019050919050565b60006020820190508181036000830152611ca981611c6d565b9050919050565b7f496e76616c6964206c6f6e6769747564652076616c7565000000000000000000600082015250565b6000611ce660178361194a565b9150611cf182611cb0565b602082019050919050565b60006020820190508181036000830152611d1581611cd9565b9050919050565b7f496e76616c6964206d61782064697374616e6365000000000000000000000000600082015250565b6000611d5260148361194a565b9150611d5d82611d1c565b602082019050919050565b60006020820190508181036000830152611d8181611d45565b9050919050565b7f56616c75652073656e742077697468207478206973206e6f742073756666696360008201527f69656e74206261736564206f6e2074686520746f6b656e7320636f756e740000602082015250565b6000611de4603e8361194a565b9150611def82611d88565b604082019050919050565b60006020820190508181036000830152611e1381611dd7565b9050919050565b7f4475706c6963617465642061697244726f700000000000000000000000000000600082015250565b6000611e5060128361194a565b9150611e5b82611e1a565b602082019050919050565b60006020820190508181036000830152611e7f81611e43565b9050919050565b7f4f776e61626c653a206e6577206f776e657220697320746865207a65726f206160008201527f6464726573730000000000000000000000000000000000000000000000000000602082015250565b6000611ee260268361194a565b9150611eed82611e86565b604082019050919050565b60006020820190508181036000830152611f1181611ed5565b9050919050565b7f4f776e61626c653a2063616c6c6572206973206e6f7420746865206f776e6572600082015250565b6000611f4e60208361194a565b9150611f5982611f18565b602082019050919050565b60006020820190508181036000830152611f7d81611f41565b9050919050565b7f5265656e7472616e637947756172643a207265656e7472616e742063616c6c00600082015250565b6000611fba601f8361194a565b9150611fc582611f84565b602082019050919050565b60006020820190508181036000830152611fe981611fad565b9050919050565b6000819050919050565b61200b612006826110d4565b611ff0565b82525050565b6000819050919050565b61202c612027826110ed565b612011565b82525050565b600061203e8288611ffa565b60208201915061204e8287611ffa565b60208201915061205e828661201b565b60208201915061206e828561201b565b60208201915061207e828461201b565b602082019150819050969550505050505056fea264697066735822122063b70343efa79445b61c27fdfc415ca725c0d0d8331fa734d1026593005085e064736f6c63430008110033",
  "linkReferences": {},
  "deployedLinkReferences": {}
}