{
  "_format": "hh-sol-artifact-1",
  "contractName": "Logic",
  "sourceName": "contracts/Logic.sol",
  "abi": [
    {
      "inputs": [
        {
          "internalType": "address",
          "name": "_verifier",
          "type": "address"
        },
        {
          "internalType": "address",
          "name": "_nft",
          "type": "address"
        },
        {
          "internalType": "uint256",
          "name": "_baseFee",
          "type": "uint256"
        },
        {
          "internalType": "address",
          "name": "_feeReceiver",
          "type": "address"
        }
      ],
      "stateMutability": "nonpayable",
      "type": "constructor"
    },
    {
      "anonymous": false,
      "inputs": [
        {
          "indexed": true,
          "internalType": "address",
          "name": "holder",
          "type": "address"
        },
        {
          "indexed": true,
          "internalType": "bytes32",
          "name": "deviceHash",
          "type": "bytes32"
        },
        {
          "indexed": true,
          "internalType": "uint256",
          "name": "tokenId",
          "type": "uint256"
        }
      ],
      "name": "Claimed",
      "type": "event"
    },
    {
      "anonymous": false,
      "inputs": [
        {
          "indexed": true,
          "internalType": "address",
          "name": "previousOwner",
          "type": "address"
        },
        {
          "indexed": true,
          "internalType": "address",
          "name": "newOwner",
          "type": "address"
        }
      ],
      "name": "OwnershipTransferred",
      "type": "event"
    },
    {
      "inputs": [],
      "name": "NFT",
      "outputs": [
        {
          "internalType": "contract LocationNFT",
          "name": "",
          "type": "address"
        }
      ],
      "stateMutability": "view",
      "type": "function"
    },
    {
      "inputs": [
        {
          "internalType": "int256",
          "name": "_lat",
          "type": "int256"
        },
        {
          "internalType": "int256",
          "name": "_long",
          "type": "int256"
        },
        {
          "internalType": "uint256",
          "name": "_maxDistance",
          "type": "uint256"
        },
        {
          "internalType": "uint256",
          "name": "_time_from",
          "type": "uint256"
        },
        {
          "internalType": "uint256",
          "name": "_time_to",
          "type": "uint256"
        },
        {
          "internalType": "uint256",
          "name": "_tokens_count",
          "type": "uint256"
        }
      ],
      "name": "addAirDrop",
      "outputs": [],
      "stateMutability": "payable",
      "type": "function"
    },
    {
      "inputs": [
        {
          "internalType": "bytes32",
          "name": "",
          "type": "bytes32"
        }
      ],
      "name": "airDrops",
      "outputs": [
        {
          "internalType": "int256",
          "name": "lat",
          "type": "int256"
        },
        {
          "internalType": "int256",
          "name": "long",
          "type": "int256"
        },
        {
          "internalType": "uint256",
          "name": "maxDistance",
          "type": "uint256"
        },
        {
          "internalType": "uint256",
          "name": "time_from",
          "type": "uint256"
        },
        {
          "internalType": "uint256",
          "name": "time_to",
          "type": "uint256"
        },
        {
          "internalType": "uint256",
          "name": "tokens_count",
          "type": "uint256"
        },
        {
          "internalType": "uint256",
          "name": "tokens_minted",
          "type": "uint256"
        }
      ],
      "stateMutability": "view",
      "type": "function"
    },
    {
      "inputs": [],
      "name": "airDropsCount",
      "outputs": [
        {
          "internalType": "uint256",
          "name": "",
          "type": "uint256"
        }
      ],
      "stateMutability": "view",
      "type": "function"
    },
    {
      "inputs": [
        {
          "internalType": "uint256",
          "name": "",
          "type": "uint256"
        }
      ],
      "name": "airDropsHashes",
      "outputs": [
        {
          "internalType": "bytes32",
          "name": "",
          "type": "bytes32"
        }
      ],
      "stateMutability": "view",
      "type": "function"
    },
    {
      "inputs": [
        {
          "internalType": "uint256",
          "name": "_tokens_count",
          "type": "uint256"
        }
      ],
      "name": "calculateFee",
      "outputs": [
        {
          "internalType": "uint256",
          "name": "_postingFee",
          "type": "uint256"
        }
      ],
      "stateMutability": "view",
      "type": "function"
    },
    {
      "inputs": [
        {
          "internalType": "int256",
          "name": "_lat",
          "type": "int256"
        },
        {
          "internalType": "int256",
          "name": "_long",
          "type": "int256"
        },
        {
          "internalType": "uint256",
          "name": "_distance",
          "type": "uint256"
        },
        {
          "internalType": "uint256",
          "name": "_time_from",
          "type": "uint256"
        },
        {
          "internalType": "uint256",
          "name": "_time_to",
          "type": "uint256"
        },
        {
          "internalType": "bytes32",
          "name": "_deviceHash",
          "type": "bytes32"
        },
        {
          "internalType": "bytes32",
          "name": "device_IMEI",
          "type": "bytes32"
        },
        {
          "internalType": "bytes",
          "name": "signature",
          "type": "bytes"
        }
      ],
      "name": "claim",
      "outputs": [],
      "stateMutability": "nonpayable",
      "type": "function"
    },
    {
      "inputs": [],
      "name": "owner",
      "outputs": [
        {
          "internalType": "address",
          "name": "",
          "type": "address"
        }
      ],
      "stateMutability": "view",
      "type": "function"
    },
    {
      "inputs": [],
      "name": "renounceOwnership",
      "outputs": [],
      "stateMutability": "nonpayable",
      "type": "function"
    },
    {
      "inputs": [
        {
          "internalType": "address",
          "name": "_receiver",
          "type": "address"
        }
      ],
      "name": "setFeeReceiver",
      "outputs": [],
      "stateMutability": "nonpayable",
      "type": "function"
    },
    {
      "inputs": [
        {
          "internalType": "address",
          "name": "newOwner",
          "type": "address"
        }
      ],
      "name": "transferOwnership",
      "outputs": [],
      "stateMutability": "nonpayable",
      "type": "function"
    },
    {
      "inputs": [],
      "name": "verifier",
      "outputs": [
        {
          "internalType": "contract VerifierInterface",
          "name": "",
          "type": "address"
        }
      ],
      "stateMutability": "view",
      "type": "function"
    }
  ],
  "bytecode": "0x60806040523480156200001157600080fd5b5060405162001ea838038062001ea88339818101604052810190620000379190620002a3565b620000576200004b6200013260201b60201c565b6200013a60201b60201c565b6001808190555083600260006101000a81548173ffffffffffffffffffffffffffffffffffffffff021916908373ffffffffffffffffffffffffffffffffffffffff16021790555082600360006101000a81548173ffffffffffffffffffffffffffffffffffffffff021916908373ffffffffffffffffffffffffffffffffffffffff1602179055508160058190555080600460006101000a81548173ffffffffffffffffffffffffffffffffffffffff021916908373ffffffffffffffffffffffffffffffffffffffff1602179055505050505062000315565b600033905090565b60008060009054906101000a900473ffffffffffffffffffffffffffffffffffffffff169050816000806101000a81548173ffffffffffffffffffffffffffffffffffffffff021916908373ffffffffffffffffffffffffffffffffffffffff1602179055508173ffffffffffffffffffffffffffffffffffffffff168173ffffffffffffffffffffffffffffffffffffffff167f8be0079c531659141344cd1fd0a4f28419497f9722a3daafe3b4186f6b6457e060405160405180910390a35050565b600080fd5b600073ffffffffffffffffffffffffffffffffffffffff82169050919050565b6000620002308262000203565b9050919050565b620002428162000223565b81146200024e57600080fd5b50565b600081519050620002628162000237565b92915050565b6000819050919050565b6200027d8162000268565b81146200028957600080fd5b50565b6000815190506200029d8162000272565b92915050565b60008060008060808587031215620002c057620002bf620001fe565b5b6000620002d08782880162000251565b9450506020620002e38782880162000251565b9350506040620002f6878288016200028c565b9250506060620003098782880162000251565b91505092959194509250565b611b8380620003256000396000f3fe6080604052600436106100a75760003560e01c806399a5d7471161006457806399a5d747146101b0578063a2ef24cc146101ed578063c9f2f3291461022a578063d8a25fb314610246578063efdcd97414610271578063f2fde38b1461029a576100a7565b806327ca0e23146100ac5780632b7ac3f3146100ef5780633c5394f41461011a578063715018a6146101435780637c0b8de21461015a5780638da5cb5b14610185575b600080fd5b3480156100b857600080fd5b506100d360048036038101906100ce9190610d62565b6102c3565b6040516100e69796959493929190610dc1565b60405180910390f35b3480156100fb57600080fd5b50610104610305565b6040516101119190610eaf565b60405180910390f35b34801561012657600080fd5b50610141600480360381019061013c9190611068565b61032b565b005b34801561014f57600080fd5b50610158610806565b005b34801561016657600080fd5b5061016f61081a565b60405161017c919061115b565b60405180910390f35b34801561019157600080fd5b5061019a610840565b6040516101a79190611197565b60405180910390f35b3480156101bc57600080fd5b506101d760048036038101906101d291906111b2565b610869565b6040516101e491906111df565b60405180910390f35b3480156101f957600080fd5b50610214600480360381019061020f91906111b2565b610880565b6040516102219190611209565b60405180910390f35b610244600480360381019061023f9190611224565b6108a4565b005b34801561025257600080fd5b5061025b610a5e565b60405161026891906111df565b60405180910390f35b34801561027d57600080fd5b50610298600480360381019061029391906112dd565b610a6b565b005b3480156102a657600080fd5b506102c160048036038101906102bc91906112dd565b610ab7565b005b60076020528060005260406000206000915090508060000154908060010154908060020154908060030154908060040154908060050154908060060154905087565b600260009054906101000a900473ffffffffffffffffffffffffffffffffffffffff1681565b610333610b3a565b6000600260009054906101000a900473ffffffffffffffffffffffffffffffffffffffff1673ffffffffffffffffffffffffffffffffffffffff166329c64c4f338b8b8b8b8b8b8b6040518963ffffffff1660e01b815260040161039e98979695949392919061130a565b602060405180830381865afa1580156103bb573d6000803e3d6000fd5b505050506040513d601f19601f820116820180604052508101906103df919061139d565b9050600260009054906101000a900473ffffffffffffffffffffffffffffffffffffffff1673ffffffffffffffffffffffffffffffffffffffff1663258ae58282846040518363ffffffff1660e01b815260040161043e929190611449565b602060405180830381865afa15801561045b573d6000803e3d6000fd5b505050506040513d601f19601f8201168201806040525081019061047f91906114b1565b6104be576040517f08c379a00000000000000000000000000000000000000000000000000000000081526004016104b59061153b565b60405180910390fd5b60006104cd8a8a8a8a8a610b89565b905060001515600860003373ffffffffffffffffffffffffffffffffffffffff1673ffffffffffffffffffffffffffffffffffffffff168152602001908152602001600020600083815260200190815260200160002060009054906101000a900460ff16151514610573576040517f08c379a000000000000000000000000000000000000000000000000000000000815260040161056a906115cd565b60405180910390fd5b6000600760008381526020019081526020016000206040518060e001604052908160008201548152602001600182015481526020016002820154815260200160038201548152602001600482015481526020016005820154815260200160068201548152505090506000816040015111610622576040517f08c379a000000000000000000000000000000000000000000000000000000000815260040161061990611639565b60405180910390fd5b60008160a0015111156106865760008160c001518260a001516106459190611688565b11610685576040517f08c379a000000000000000000000000000000000000000000000000000000000815260040161067c9061172e565b60405180910390fd5b5b6001600860003373ffffffffffffffffffffffffffffffffffffffff1673ffffffffffffffffffffffffffffffffffffffff168152602001908152602001600020600084815260200190815260200160002060006101000a81548160ff021916908315150217905550600360009054906101000a900473ffffffffffffffffffffffffffffffffffffffff1673ffffffffffffffffffffffffffffffffffffffff166340d097c3336040518263ffffffff1660e01b815260040161074a9190611197565b600060405180830381600087803b15801561076457600080fd5b505af1158015610778573d6000803e3d6000fd5b50505050600954823373ffffffffffffffffffffffffffffffffffffffff167f9b01158d4bc10c112ba32b5240cda97e49e2eb86021f03f6a0f460342ac4dfda60405160405180910390a4600960008154809291906107d69061174e565b91905055508060c00180518091906107ed9061174e565b815250505050506107fc610bc5565b5050505050505050565b61080e610bce565b6108186000610c4c565b565b600360009054906101000a900473ffffffffffffffffffffffffffffffffffffffff1681565b60008060009054906101000a900473ffffffffffffffffffffffffffffffffffffffff16905090565b6000816005546108799190611796565b9050919050565b6006818154811061089057600080fd5b906000526020600020016000915090505481565b600084116108e7576040517f08c379a00000000000000000000000000000000000000000000000000000000081526004016108de90611824565b60405180910390fd5b6108f081610869565b341015610932576040517f08c379a0000000000000000000000000000000000000000000000000000000008152600401610929906118b6565b60405180910390fd5b60006109418787878787610b89565b9050600060076000838152602001908152602001600020600201541461099c576040517f08c379a000000000000000000000000000000000000000000000000000000000815260040161099390611922565b60405180910390fd5b6040518060e00160405280888152602001878152602001868152602001858152602001848152602001838152602001600081525060076000838152602001908152602001600020600082015181600001556020820151816001015560408201518160020155606082015181600301556080820151816004015560a0820151816005015560c08201518160060155905050600681908060018154018082558091505060019003906000526020600020016000909190919091505550505050505050565b6000600680549050905090565b610a73610bce565b80600460006101000a81548173ffffffffffffffffffffffffffffffffffffffff021916908373ffffffffffffffffffffffffffffffffffffffff16021790555050565b610abf610bce565b600073ffffffffffffffffffffffffffffffffffffffff168173ffffffffffffffffffffffffffffffffffffffff1603610b2e576040517f08c379a0000000000000000000000000000000000000000000000000000000008152600401610b25906119b4565b60405180910390fd5b610b3781610c4c565b50565b600260015403610b7f576040517f08c379a0000000000000000000000000000000000000000000000000000000008152600401610b7690611a20565b60405180910390fd5b6002600181905550565b60008585858585604051602001610ba4959493929190611a82565b60405160208183030381529060405280519060200120905095945050505050565b60018081905550565b610bd6610d10565b73ffffffffffffffffffffffffffffffffffffffff16610bf4610840565b73ffffffffffffffffffffffffffffffffffffffff1614610c4a576040517f08c379a0000000000000000000000000000000000000000000000000000000008152600401610c4190611b2d565b60405180910390fd5b565b60008060009054906101000a900473ffffffffffffffffffffffffffffffffffffffff169050816000806101000a81548173ffffffffffffffffffffffffffffffffffffffff021916908373ffffffffffffffffffffffffffffffffffffffff1602179055508173ffffffffffffffffffffffffffffffffffffffff168173ffffffffffffffffffffffffffffffffffffffff167f8be0079c531659141344cd1fd0a4f28419497f9722a3daafe3b4186f6b6457e060405160405180910390a35050565b600033905090565b6000604051905090565b600080fd5b600080fd5b6000819050919050565b610d3f81610d2c565b8114610d4a57600080fd5b50565b600081359050610d5c81610d36565b92915050565b600060208284031215610d7857610d77610d22565b5b6000610d8684828501610d4d565b91505092915050565b6000819050919050565b610da281610d8f565b82525050565b6000819050919050565b610dbb81610da8565b82525050565b600060e082019050610dd6600083018a610d99565b610de36020830189610d99565b610df06040830188610db2565b610dfd6060830187610db2565b610e0a6080830186610db2565b610e1760a0830185610db2565b610e2460c0830184610db2565b98975050505050505050565b600073ffffffffffffffffffffffffffffffffffffffff82169050919050565b6000819050919050565b6000610e75610e70610e6b84610e30565b610e50565b610e30565b9050919050565b6000610e8782610e5a565b9050919050565b6000610e9982610e7c565b9050919050565b610ea981610e8e565b82525050565b6000602082019050610ec46000830184610ea0565b92915050565b610ed381610d8f565b8114610ede57600080fd5b50565b600081359050610ef081610eca565b92915050565b610eff81610da8565b8114610f0a57600080fd5b50565b600081359050610f1c81610ef6565b92915050565b600080fd5b600080fd5b6000601f19601f8301169050919050565b7f4e487b7100000000000000000000000000000000000000000000000000000000600052604160045260246000fd5b610f7582610f2c565b810181811067ffffffffffffffff82111715610f9457610f93610f3d565b5b80604052505050565b6000610fa7610d18565b9050610fb38282610f6c565b919050565b600067ffffffffffffffff821115610fd357610fd2610f3d565b5b610fdc82610f2c565b9050602081019050919050565b82818337600083830152505050565b600061100b61100684610fb8565b610f9d565b90508281526020810184848401111561102757611026610f27565b5b611032848285610fe9565b509392505050565b600082601f83011261104f5761104e610f22565b5b813561105f848260208601610ff8565b91505092915050565b600080600080600080600080610100898b03121561108957611088610d22565b5b60006110978b828c01610ee1565b98505060206110a88b828c01610ee1565b97505060406110b98b828c01610f0d565b96505060606110ca8b828c01610f0d565b95505060806110db8b828c01610f0d565b94505060a06110ec8b828c01610d4d565b93505060c06110fd8b828c01610d4d565b92505060e089013567ffffffffffffffff81111561111e5761111d610d27565b5b61112a8b828c0161103a565b9150509295985092959890939650565b600061114582610e7c565b9050919050565b6111558161113a565b82525050565b6000602082019050611170600083018461114c565b92915050565b600061118182610e30565b9050919050565b61119181611176565b82525050565b60006020820190506111ac6000830184611188565b92915050565b6000602082840312156111c8576111c7610d22565b5b60006111d684828501610f0d565b91505092915050565b60006020820190506111f46000830184610db2565b92915050565b61120381610d2c565b82525050565b600060208201905061121e60008301846111fa565b92915050565b60008060008060008060c0878903121561124157611240610d22565b5b600061124f89828a01610ee1565b965050602061126089828a01610ee1565b955050604061127189828a01610f0d565b945050606061128289828a01610f0d565b935050608061129389828a01610f0d565b92505060a06112a489828a01610f0d565b9150509295509295509295565b6112ba81611176565b81146112c557600080fd5b50565b6000813590506112d7816112b1565b92915050565b6000602082840312156112f3576112f2610d22565b5b6000611301848285016112c8565b91505092915050565b600061010082019050611320600083018b611188565b61132d602083018a610d99565b61133a6040830189610d99565b6113476060830188610db2565b6113546080830187610db2565b61136160a0830186610db2565b61136e60c08301856111fa565b61137b60e08301846111fa565b9998505050505050505050565b60008151905061139781610d36565b92915050565b6000602082840312156113b3576113b2610d22565b5b60006113c184828501611388565b91505092915050565b600081519050919050565b600082825260208201905092915050565b60005b838110156114045780820151818401526020810190506113e9565b60008484015250505050565b600061141b826113ca565b61142581856113d5565b93506114358185602086016113e6565b61143e81610f2c565b840191505092915050565b600060408201905061145e60008301856111fa565b81810360208301526114708184611410565b90509392505050565b60008115159050919050565b61148e81611479565b811461149957600080fd5b50565b6000815190506114ab81611485565b92915050565b6000602082840312156114c7576114c6610d22565b5b60006114d58482850161149c565b91505092915050565b600082825260208201905092915050565b7f496e76616c69642070726f6f66206f66206c6f636174696f6e00000000000000600082015250565b60006115256019836114de565b9150611530826114ef565b602082019050919050565b6000602082019050818103600083015261155481611518565b9050919050565b7f41697244726f7020686173206265656e20616c726561647920636c61696d656460008201527f20666f7220746869732061646472657373000000000000000000000000000000602082015250565b60006115b76031836114de565b91506115c28261155b565b604082019050919050565b600060208201905081810360008301526115e6816115aa565b9050919050565b7f41697244726f7020646f6573206e6f7420657869737400000000000000000000600082015250565b60006116236016836114de565b915061162e826115ed565b602082019050919050565b6000602082019050818103600083015261165281611616565b9050919050565b7f4e487b7100000000000000000000000000000000000000000000000000000000600052601160045260246000fd5b600061169382610da8565b915061169e83610da8565b92508282039050818111156116b6576116b5611659565b5b92915050565b7f4e6f206d6f726520746f6b656e73206c65667420666f7220746869732041697260008201527f44726f7000000000000000000000000000000000000000000000000000000000602082015250565b60006117186024836114de565b9150611723826116bc565b604082019050919050565b600060208201905081810360008301526117478161170b565b9050919050565b600061175982610da8565b91507fffffffffffffffffffffffffffffffffffffffffffffffffffffffffffffffff820361178b5761178a611659565b5b600182019050919050565b60006117a182610da8565b91506117ac83610da8565b92508282026117ba81610da8565b915082820484148315176117d1576117d0611659565b5b5092915050565b7f496e76616c6964206d61782064697374616e6365000000000000000000000000600082015250565b600061180e6014836114de565b9150611819826117d8565b602082019050919050565b6000602082019050818103600083015261183d81611801565b9050919050565b7f466565206973206e6f742073756666696369656e74206261736564206f6e207460008201527f686520746f6b656e7320636f756e740000000000000000000000000000000000602082015250565b60006118a0602f836114de565b91506118ab82611844565b604082019050919050565b600060208201905081810360008301526118cf81611893565b9050919050565b7f4475706c6963617465642061697244726f700000000000000000000000000000600082015250565b600061190c6012836114de565b9150611917826118d6565b602082019050919050565b6000602082019050818103600083015261193b816118ff565b9050919050565b7f4f776e61626c653a206e6577206f776e657220697320746865207a65726f206160008201527f6464726573730000000000000000000000000000000000000000000000000000602082015250565b600061199e6026836114de565b91506119a982611942565b604082019050919050565b600060208201905081810360008301526119cd81611991565b9050919050565b7f5265656e7472616e637947756172643a207265656e7472616e742063616c6c00600082015250565b6000611a0a601f836114de565b9150611a15826119d4565b602082019050919050565b60006020820190508181036000830152611a39816119fd565b9050919050565b6000819050919050565b611a5b611a5682610d8f565b611a40565b82525050565b6000819050919050565b611a7c611a7782610da8565b611a61565b82525050565b6000611a8e8288611a4a565b602082019150611a9e8287611a4a565b602082019150611aae8286611a6b565b602082019150611abe8285611a6b565b602082019150611ace8284611a6b565b6020820191508190509695505050505050565b7f4f776e61626c653a2063616c6c6572206973206e6f7420746865206f776e6572600082015250565b6000611b176020836114de565b9150611b2282611ae1565b602082019050919050565b60006020820190508181036000830152611b4681611b0a565b905091905056fea264697066735822122064c802ac6ba4b10c780a744b9444340533b4d67fcd77d784b440ea7fe90787a064736f6c63430008110033",
  "linkReferences": {},
  "deployedLinkReferences": {}
}