{
  "_format": "hh-sol-artifact-1",
  "contractName": "Logic",
  "sourceName": "contracts/Logic.sol",
  "abi": [
    {
      "inputs": [
        {
          "internalType": "address",
          "name": "_verifier",
          "type": "address"
        },
        {
          "internalType": "address",
          "name": "_nft",
          "type": "address"
        }
      ],
      "stateMutability": "nonpayable",
      "type": "constructor"
    },
    {
      "anonymous": false,
      "inputs": [
        {
          "indexed": true,
          "internalType": "address",
          "name": "holder",
          "type": "address"
        },
        {
          "indexed": true,
          "internalType": "bytes32",
          "name": "deviceHash",
          "type": "bytes32"
        },
        {
          "indexed": true,
          "internalType": "uint256",
          "name": "tokenId",
          "type": "uint256"
        }
      ],
      "name": "Claimed",
      "type": "event"
    },
    {
      "anonymous": false,
      "inputs": [
        {
          "indexed": true,
          "internalType": "address",
          "name": "previousOwner",
          "type": "address"
        },
        {
          "indexed": true,
          "internalType": "address",
          "name": "newOwner",
          "type": "address"
        }
      ],
      "name": "OwnershipTransferred",
      "type": "event"
    },
    {
      "inputs": [],
      "name": "NFT",
      "outputs": [
        {
          "internalType": "contract LocationNFT",
          "name": "",
          "type": "address"
        }
      ],
      "stateMutability": "view",
      "type": "function"
    },
    {
      "inputs": [
        {
          "internalType": "int256",
          "name": "_lat",
          "type": "int256"
        },
        {
          "internalType": "int256",
          "name": "_long",
          "type": "int256"
        },
        {
          "internalType": "uint256",
          "name": "_maxDistance",
          "type": "uint256"
        },
        {
          "internalType": "uint256",
          "name": "_time_from",
          "type": "uint256"
        },
        {
          "internalType": "uint256",
          "name": "_time_to",
          "type": "uint256"
        },
        {
          "internalType": "uint256",
          "name": "_tokens_count",
          "type": "uint256"
        }
      ],
      "name": "addAirDrop",
      "outputs": [],
      "stateMutability": "nonpayable",
      "type": "function"
    },
    {
      "inputs": [
        {
          "internalType": "bytes32",
          "name": "",
          "type": "bytes32"
        }
      ],
      "name": "airDrops",
      "outputs": [
        {
          "internalType": "int256",
          "name": "lat",
          "type": "int256"
        },
        {
          "internalType": "int256",
          "name": "long",
          "type": "int256"
        },
        {
          "internalType": "uint256",
          "name": "maxDistance",
          "type": "uint256"
        },
        {
          "internalType": "uint256",
          "name": "time_from",
          "type": "uint256"
        },
        {
          "internalType": "uint256",
          "name": "time_to",
          "type": "uint256"
        },
        {
          "internalType": "uint256",
          "name": "tokens_count",
          "type": "uint256"
        },
        {
          "internalType": "uint256",
          "name": "tokens_minted",
          "type": "uint256"
        }
      ],
      "stateMutability": "view",
      "type": "function"
    },
    {
      "inputs": [],
      "name": "airDropsCount",
      "outputs": [
        {
          "internalType": "uint256",
          "name": "",
          "type": "uint256"
        }
      ],
      "stateMutability": "view",
      "type": "function"
    },
    {
      "inputs": [
        {
          "internalType": "uint256",
          "name": "",
          "type": "uint256"
        }
      ],
      "name": "airDropsHashes",
      "outputs": [
        {
          "internalType": "bytes32",
          "name": "",
          "type": "bytes32"
        }
      ],
      "stateMutability": "view",
      "type": "function"
    },
    {
      "inputs": [
        {
          "internalType": "int256",
          "name": "_lat",
          "type": "int256"
        },
        {
          "internalType": "int256",
          "name": "_long",
          "type": "int256"
        },
        {
          "internalType": "uint256",
          "name": "_distance",
          "type": "uint256"
        },
        {
          "internalType": "uint256",
          "name": "_time_from",
          "type": "uint256"
        },
        {
          "internalType": "uint256",
          "name": "_time_to",
          "type": "uint256"
        },
        {
          "internalType": "bytes32",
          "name": "_deviceHash",
          "type": "bytes32"
        },
        {
          "internalType": "bytes32",
          "name": "device_IMEI",
          "type": "bytes32"
        },
        {
          "internalType": "bytes",
          "name": "signature",
          "type": "bytes"
        }
      ],
      "name": "claim",
      "outputs": [],
      "stateMutability": "nonpayable",
      "type": "function"
    },
    {
      "inputs": [],
      "name": "owner",
      "outputs": [
        {
          "internalType": "address",
          "name": "",
          "type": "address"
        }
      ],
      "stateMutability": "view",
      "type": "function"
    },
    {
      "inputs": [],
      "name": "renounceOwnership",
      "outputs": [],
      "stateMutability": "nonpayable",
      "type": "function"
    },
    {
      "inputs": [
        {
          "internalType": "address",
          "name": "newOwner",
          "type": "address"
        }
      ],
      "name": "transferOwnership",
      "outputs": [],
      "stateMutability": "nonpayable",
      "type": "function"
    },
    {
      "inputs": [],
      "name": "verifier",
      "outputs": [
        {
          "internalType": "contract VerifierInterface",
          "name": "",
          "type": "address"
        }
      ],
      "stateMutability": "view",
      "type": "function"
    }
  ],
  "bytecode": "0x60806040523480156200001157600080fd5b5060405162001b9238038062001b9283398181016040528101906200003791906200021e565b620000576200004b620000e860201b60201c565b620000f060201b60201c565b6001808190555081600260006101000a81548173ffffffffffffffffffffffffffffffffffffffff021916908373ffffffffffffffffffffffffffffffffffffffff16021790555080600360006101000a81548173ffffffffffffffffffffffffffffffffffffffff021916908373ffffffffffffffffffffffffffffffffffffffff160217905550505062000265565b600033905090565b60008060009054906101000a900473ffffffffffffffffffffffffffffffffffffffff169050816000806101000a81548173ffffffffffffffffffffffffffffffffffffffff021916908373ffffffffffffffffffffffffffffffffffffffff1602179055508173ffffffffffffffffffffffffffffffffffffffff168173ffffffffffffffffffffffffffffffffffffffff167f8be0079c531659141344cd1fd0a4f28419497f9722a3daafe3b4186f6b6457e060405160405180910390a35050565b600080fd5b600073ffffffffffffffffffffffffffffffffffffffff82169050919050565b6000620001e682620001b9565b9050919050565b620001f881620001d9565b81146200020457600080fd5b50565b6000815190506200021881620001ed565b92915050565b60008060408385031215620002385762000237620001b4565b5b6000620002488582860162000207565b92505060206200025b8582860162000207565b9150509250929050565b61191d80620002756000396000f3fe608060405234801561001057600080fd5b506004361061009e5760003560e01c80638da5cb5b116100665780638da5cb5b1461013b578063a2ef24cc14610159578063c9f2f32914610189578063d8a25fb3146101a5578063f2fde38b146101c35761009e565b806327ca0e23146100a35780632b7ac3f3146100d95780633c5394f4146100f7578063715018a6146101135780637c0b8de21461011d575b600080fd5b6100bd60048036038101906100b89190610bd0565b6101df565b6040516100d09796959493929190610c2f565b60405180910390f35b6100e1610221565b6040516100ee9190610d1d565b60405180910390f35b610111600480360381019061010c9190610ed6565b610247565b005b61011b610722565b005b610125610736565b6040516101329190610fc9565b60405180910390f35b61014361075c565b6040516101509190611005565b60405180910390f35b610173600480360381019061016e9190611020565b610785565b604051610180919061105c565b60405180910390f35b6101a3600480360381019061019e9190611077565b6107a9565b005b6101ad610918565b6040516101ba9190611104565b60405180910390f35b6101dd60048036038101906101d8919061114b565b610925565b005b60056020528060005260406000206000915090508060000154908060010154908060020154908060030154908060040154908060050154908060060154905087565b600260009054906101000a900473ffffffffffffffffffffffffffffffffffffffff1681565b61024f6109a8565b6000600260009054906101000a900473ffffffffffffffffffffffffffffffffffffffff1673ffffffffffffffffffffffffffffffffffffffff166329c64c4f338b8b8b8b8b8b8b6040518963ffffffff1660e01b81526004016102ba989796959493929190611178565b602060405180830381865afa1580156102d7573d6000803e3d6000fd5b505050506040513d601f19601f820116820180604052508101906102fb919061120b565b9050600260009054906101000a900473ffffffffffffffffffffffffffffffffffffffff1673ffffffffffffffffffffffffffffffffffffffff1663258ae58282846040518363ffffffff1660e01b815260040161035a9291906112b7565b602060405180830381865afa158015610377573d6000803e3d6000fd5b505050506040513d601f19601f8201168201806040525081019061039b919061131f565b6103da576040517f08c379a00000000000000000000000000000000000000000000000000000000081526004016103d1906113a9565b60405180910390fd5b60006103e98a8a8a8a8a6109f7565b905060001515600660003373ffffffffffffffffffffffffffffffffffffffff1673ffffffffffffffffffffffffffffffffffffffff168152602001908152602001600020600083815260200190815260200160002060009054906101000a900460ff1615151461048f576040517f08c379a00000000000000000000000000000000000000000000000000000000081526004016104869061143b565b60405180910390fd5b6000600560008381526020019081526020016000206040518060e00160405290816000820154815260200160018201548152602001600282015481526020016003820154815260200160048201548152602001600582015481526020016006820154815250509050600081604001511161053e576040517f08c379a0000000000000000000000000000000000000000000000000000000008152600401610535906114a7565b60405180910390fd5b60008160a0015111156105a25760008160c001518260a0015161056191906114f6565b116105a1576040517f08c379a00000000000000000000000000000000000000000000000000000000081526004016105989061159c565b60405180910390fd5b5b6001600660003373ffffffffffffffffffffffffffffffffffffffff1673ffffffffffffffffffffffffffffffffffffffff168152602001908152602001600020600084815260200190815260200160002060006101000a81548160ff021916908315150217905550600360009054906101000a900473ffffffffffffffffffffffffffffffffffffffff1673ffffffffffffffffffffffffffffffffffffffff166340d097c3336040518263ffffffff1660e01b81526004016106669190611005565b600060405180830381600087803b15801561068057600080fd5b505af1158015610694573d6000803e3d6000fd5b50505050600754823373ffffffffffffffffffffffffffffffffffffffff167f9b01158d4bc10c112ba32b5240cda97e49e2eb86021f03f6a0f460342ac4dfda60405160405180910390a4600760008154809291906106f2906115bc565b91905055508060c0018051809190610709906115bc565b81525050505050610718610a33565b5050505050505050565b61072a610a3c565b6107346000610aba565b565b600360009054906101000a900473ffffffffffffffffffffffffffffffffffffffff1681565b60008060009054906101000a900473ffffffffffffffffffffffffffffffffffffffff16905090565b6004818154811061079557600080fd5b906000526020600020016000915090505481565b600084116107ec576040517f08c379a00000000000000000000000000000000000000000000000000000000081526004016107e390611650565b60405180910390fd5b60006107fb87878787876109f7565b90506000600560008381526020019081526020016000206002015414610856576040517f08c379a000000000000000000000000000000000000000000000000000000000815260040161084d906116bc565b60405180910390fd5b6040518060e00160405280888152602001878152602001868152602001858152602001848152602001838152602001600081525060056000838152602001908152602001600020600082015181600001556020820151816001015560408201518160020155606082015181600301556080820151816004015560a0820151816005015560c08201518160060155905050600481908060018154018082558091505060019003906000526020600020016000909190919091505550505050505050565b6000600480549050905090565b61092d610a3c565b600073ffffffffffffffffffffffffffffffffffffffff168173ffffffffffffffffffffffffffffffffffffffff160361099c576040517f08c379a00000000000000000000000000000000000000000000000000000000081526004016109939061174e565b60405180910390fd5b6109a581610aba565b50565b6002600154036109ed576040517f08c379a00000000000000000000000000000000000000000000000000000000081526004016109e4906117ba565b60405180910390fd5b6002600181905550565b60008585858585604051602001610a1295949392919061181c565b60405160208183030381529060405280519060200120905095945050505050565b60018081905550565b610a44610b7e565b73ffffffffffffffffffffffffffffffffffffffff16610a6261075c565b73ffffffffffffffffffffffffffffffffffffffff1614610ab8576040517f08c379a0000000000000000000000000000000000000000000000000000000008152600401610aaf906118c7565b60405180910390fd5b565b60008060009054906101000a900473ffffffffffffffffffffffffffffffffffffffff169050816000806101000a81548173ffffffffffffffffffffffffffffffffffffffff021916908373ffffffffffffffffffffffffffffffffffffffff1602179055508173ffffffffffffffffffffffffffffffffffffffff168173ffffffffffffffffffffffffffffffffffffffff167f8be0079c531659141344cd1fd0a4f28419497f9722a3daafe3b4186f6b6457e060405160405180910390a35050565b600033905090565b6000604051905090565b600080fd5b600080fd5b6000819050919050565b610bad81610b9a565b8114610bb857600080fd5b50565b600081359050610bca81610ba4565b92915050565b600060208284031215610be657610be5610b90565b5b6000610bf484828501610bbb565b91505092915050565b6000819050919050565b610c1081610bfd565b82525050565b6000819050919050565b610c2981610c16565b82525050565b600060e082019050610c44600083018a610c07565b610c516020830189610c07565b610c5e6040830188610c20565b610c6b6060830187610c20565b610c786080830186610c20565b610c8560a0830185610c20565b610c9260c0830184610c20565b98975050505050505050565b600073ffffffffffffffffffffffffffffffffffffffff82169050919050565b6000819050919050565b6000610ce3610cde610cd984610c9e565b610cbe565b610c9e565b9050919050565b6000610cf582610cc8565b9050919050565b6000610d0782610cea565b9050919050565b610d1781610cfc565b82525050565b6000602082019050610d326000830184610d0e565b92915050565b610d4181610bfd565b8114610d4c57600080fd5b50565b600081359050610d5e81610d38565b92915050565b610d6d81610c16565b8114610d7857600080fd5b50565b600081359050610d8a81610d64565b92915050565b600080fd5b600080fd5b6000601f19601f8301169050919050565b7f4e487b7100000000000000000000000000000000000000000000000000000000600052604160045260246000fd5b610de382610d9a565b810181811067ffffffffffffffff82111715610e0257610e01610dab565b5b80604052505050565b6000610e15610b86565b9050610e218282610dda565b919050565b600067ffffffffffffffff821115610e4157610e40610dab565b5b610e4a82610d9a565b9050602081019050919050565b82818337600083830152505050565b6000610e79610e7484610e26565b610e0b565b905082815260208101848484011115610e9557610e94610d95565b5b610ea0848285610e57565b509392505050565b600082601f830112610ebd57610ebc610d90565b5b8135610ecd848260208601610e66565b91505092915050565b600080600080600080600080610100898b031215610ef757610ef6610b90565b5b6000610f058b828c01610d4f565b9850506020610f168b828c01610d4f565b9750506040610f278b828c01610d7b565b9650506060610f388b828c01610d7b565b9550506080610f498b828c01610d7b565b94505060a0610f5a8b828c01610bbb565b93505060c0610f6b8b828c01610bbb565b92505060e089013567ffffffffffffffff811115610f8c57610f8b610b95565b5b610f988b828c01610ea8565b9150509295985092959890939650565b6000610fb382610cea565b9050919050565b610fc381610fa8565b82525050565b6000602082019050610fde6000830184610fba565b92915050565b6000610fef82610c9e565b9050919050565b610fff81610fe4565b82525050565b600060208201905061101a6000830184610ff6565b92915050565b60006020828403121561103657611035610b90565b5b600061104484828501610d7b565b91505092915050565b61105681610b9a565b82525050565b6000602082019050611071600083018461104d565b92915050565b60008060008060008060c0878903121561109457611093610b90565b5b60006110a289828a01610d4f565b96505060206110b389828a01610d4f565b95505060406110c489828a01610d7b565b94505060606110d589828a01610d7b565b93505060806110e689828a01610d7b565b92505060a06110f789828a01610d7b565b9150509295509295509295565b60006020820190506111196000830184610c20565b92915050565b61112881610fe4565b811461113357600080fd5b50565b6000813590506111458161111f565b92915050565b60006020828403121561116157611160610b90565b5b600061116f84828501611136565b91505092915050565b60006101008201905061118e600083018b610ff6565b61119b602083018a610c07565b6111a86040830189610c07565b6111b56060830188610c20565b6111c26080830187610c20565b6111cf60a0830186610c20565b6111dc60c083018561104d565b6111e960e083018461104d565b9998505050505050505050565b60008151905061120581610ba4565b92915050565b60006020828403121561122157611220610b90565b5b600061122f848285016111f6565b91505092915050565b600081519050919050565b600082825260208201905092915050565b60005b83811015611272578082015181840152602081019050611257565b60008484015250505050565b600061128982611238565b6112938185611243565b93506112a3818560208601611254565b6112ac81610d9a565b840191505092915050565b60006040820190506112cc600083018561104d565b81810360208301526112de818461127e565b90509392505050565b60008115159050919050565b6112fc816112e7565b811461130757600080fd5b50565b600081519050611319816112f3565b92915050565b60006020828403121561133557611334610b90565b5b60006113438482850161130a565b91505092915050565b600082825260208201905092915050565b7f496e76616c69642070726f6f66206f66206c6f636174696f6e00000000000000600082015250565b600061139360198361134c565b915061139e8261135d565b602082019050919050565b600060208201905081810360008301526113c281611386565b9050919050565b7f41697244726f7020686173206265656e20616c726561647920636c61696d656460008201527f20666f7220746869732061646472657373000000000000000000000000000000602082015250565b600061142560318361134c565b9150611430826113c9565b604082019050919050565b6000602082019050818103600083015261145481611418565b9050919050565b7f41697244726f7020646f6573206e6f7420657869737400000000000000000000600082015250565b600061149160168361134c565b915061149c8261145b565b602082019050919050565b600060208201905081810360008301526114c081611484565b9050919050565b7f4e487b7100000000000000000000000000000000000000000000000000000000600052601160045260246000fd5b600061150182610c16565b915061150c83610c16565b9250828203905081811115611524576115236114c7565b5b92915050565b7f4e6f206d6f726520746f6b656e73206c65667420666f7220746869732041697260008201527f44726f7000000000000000000000000000000000000000000000000000000000602082015250565b600061158660248361134c565b91506115918261152a565b604082019050919050565b600060208201905081810360008301526115b581611579565b9050919050565b60006115c782610c16565b91507fffffffffffffffffffffffffffffffffffffffffffffffffffffffffffffffff82036115f9576115f86114c7565b5b600182019050919050565b7f496e76616c6964206d61782064697374616e6365000000000000000000000000600082015250565b600061163a60148361134c565b915061164582611604565b602082019050919050565b600060208201905081810360008301526116698161162d565b9050919050565b7f4475706c6963617465642061697244726f700000000000000000000000000000600082015250565b60006116a660128361134c565b91506116b182611670565b602082019050919050565b600060208201905081810360008301526116d581611699565b9050919050565b7f4f776e61626c653a206e6577206f776e657220697320746865207a65726f206160008201527f6464726573730000000000000000000000000000000000000000000000000000602082015250565b600061173860268361134c565b9150611743826116dc565b604082019050919050565b600060208201905081810360008301526117678161172b565b9050919050565b7f5265656e7472616e637947756172643a207265656e7472616e742063616c6c00600082015250565b60006117a4601f8361134c565b91506117af8261176e565b602082019050919050565b600060208201905081810360008301526117d381611797565b9050919050565b6000819050919050565b6117f56117f082610bfd565b6117da565b82525050565b6000819050919050565b61181661181182610c16565b6117fb565b82525050565b600061182882886117e4565b60208201915061183882876117e4565b6020820191506118488286611805565b6020820191506118588285611805565b6020820191506118688284611805565b6020820191508190509695505050505050565b7f4f776e61626c653a2063616c6c6572206973206e6f7420746865206f776e6572600082015250565b60006118b160208361134c565b91506118bc8261187b565b602082019050919050565b600060208201905081810360008301526118e0816118a4565b905091905056fea264697066735822122094d1d54b592051621694c785e7d52d665f224c8fe96e4c9139203ba88cebf8d964736f6c63430008110033",
  "linkReferences": {},
  "deployedLinkReferences": {}
}