{
  "_format": "hh-sol-artifact-1",
  "contractName": "Logic",
  "sourceName": "contracts/Logic.sol",
  "abi": [
    {
      "inputs": [
        {
          "internalType": "address",
          "name": "_verifier",
          "type": "address"
        },
        {
          "internalType": "address",
          "name": "_nft",
          "type": "address"
        },
        {
          "internalType": "uint256",
          "name": "_baseFee",
          "type": "uint256"
        },
        {
          "internalType": "address",
          "name": "_feeReceiver",
          "type": "address"
        },
        {
          "internalType": "uint256",
          "name": "_feeCliff",
          "type": "uint256"
        }
      ],
      "stateMutability": "nonpayable",
      "type": "constructor"
    },
    {
      "anonymous": false,
      "inputs": [
        {
          "indexed": true,
          "internalType": "address",
          "name": "holder",
          "type": "address"
        },
        {
          "indexed": true,
          "internalType": "bytes32",
          "name": "deviceHash",
          "type": "bytes32"
        }
      ],
      "name": "Claimed",
      "type": "event"
    },
    {
      "anonymous": false,
      "inputs": [
        {
          "indexed": true,
          "internalType": "address",
          "name": "previousOwner",
          "type": "address"
        },
        {
          "indexed": true,
          "internalType": "address",
          "name": "newOwner",
          "type": "address"
        }
      ],
      "name": "OwnershipTransferred",
      "type": "event"
    },
    {
      "inputs": [],
      "name": "NFT",
      "outputs": [
        {
          "internalType": "contract LocationNFT",
          "name": "",
          "type": "address"
        }
      ],
      "stateMutability": "view",
      "type": "function"
    },
    {
      "inputs": [
        {
          "internalType": "int256",
          "name": "_lat",
          "type": "int256"
        },
        {
          "internalType": "int256",
          "name": "_long",
          "type": "int256"
        },
        {
          "internalType": "uint256",
          "name": "_maxDistance",
          "type": "uint256"
        },
        {
          "internalType": "uint256",
          "name": "_time_from",
          "type": "uint256"
        },
        {
          "internalType": "uint256",
          "name": "_time_to",
          "type": "uint256"
        },
        {
          "internalType": "uint256",
          "name": "_tokens_count",
          "type": "uint256"
        }
      ],
      "name": "addAirDrop",
      "outputs": [],
      "stateMutability": "payable",
      "type": "function"
    },
    {
      "inputs": [
        {
          "internalType": "bytes32",
          "name": "",
          "type": "bytes32"
        }
      ],
      "name": "airDrops",
      "outputs": [
        {
          "internalType": "int256",
          "name": "lat",
          "type": "int256"
        },
        {
          "internalType": "int256",
          "name": "long",
          "type": "int256"
        },
        {
          "internalType": "uint256",
          "name": "maxDistance",
          "type": "uint256"
        },
        {
          "internalType": "uint256",
          "name": "time_from",
          "type": "uint256"
        },
        {
          "internalType": "uint256",
          "name": "time_to",
          "type": "uint256"
        },
        {
          "internalType": "uint256",
          "name": "tokens_count",
          "type": "uint256"
        },
        {
          "internalType": "uint256",
          "name": "tokens_minted",
          "type": "uint256"
        }
      ],
      "stateMutability": "view",
      "type": "function"
    },
    {
      "inputs": [],
      "name": "airDropsCount",
      "outputs": [
        {
          "internalType": "uint256",
          "name": "",
          "type": "uint256"
        }
      ],
      "stateMutability": "view",
      "type": "function"
    },
    {
      "inputs": [
        {
          "internalType": "uint256",
          "name": "",
          "type": "uint256"
        }
      ],
      "name": "airDropsHashes",
      "outputs": [
        {
          "internalType": "bytes32",
          "name": "",
          "type": "bytes32"
        }
      ],
      "stateMutability": "view",
      "type": "function"
    },
    {
      "inputs": [],
      "name": "baseFee",
      "outputs": [
        {
          "internalType": "uint256",
          "name": "",
          "type": "uint256"
        }
      ],
      "stateMutability": "view",
      "type": "function"
    },
    {
      "inputs": [
        {
          "internalType": "uint256",
          "name": "_tokens_count",
          "type": "uint256"
        }
      ],
      "name": "calculateFee",
      "outputs": [
        {
          "internalType": "uint256",
          "name": "",
          "type": "uint256"
        }
      ],
      "stateMutability": "view",
      "type": "function"
    },
    {
      "inputs": [
        {
          "internalType": "int256",
          "name": "_lat",
          "type": "int256"
        },
        {
          "internalType": "int256",
          "name": "_long",
          "type": "int256"
        },
        {
          "internalType": "uint256",
          "name": "_distance",
          "type": "uint256"
        },
        {
          "internalType": "uint256",
          "name": "_time_from",
          "type": "uint256"
        },
        {
          "internalType": "uint256",
          "name": "_time_to",
          "type": "uint256"
        },
        {
          "internalType": "bytes32",
          "name": "_deviceHash",
          "type": "bytes32"
        },
        {
          "internalType": "bytes",
          "name": "signature",
          "type": "bytes"
        }
      ],
      "name": "claim",
      "outputs": [],
      "stateMutability": "nonpayable",
      "type": "function"
    },
    {
      "inputs": [
        {
          "internalType": "address",
          "name": "",
          "type": "address"
        },
        {
          "internalType": "bytes32",
          "name": "",
          "type": "bytes32"
        }
      ],
      "name": "claimedAirDrops",
      "outputs": [
        {
          "internalType": "bool",
          "name": "",
          "type": "bool"
        }
      ],
      "stateMutability": "view",
      "type": "function"
    },
    {
      "inputs": [],
      "name": "feeCliff",
      "outputs": [
        {
          "internalType": "uint256",
          "name": "",
          "type": "uint256"
        }
      ],
      "stateMutability": "view",
      "type": "function"
    },
    {
      "inputs": [],
      "name": "feeReceiver",
      "outputs": [
        {
          "internalType": "address",
          "name": "",
          "type": "address"
        }
      ],
      "stateMutability": "view",
      "type": "function"
    },
    {
      "inputs": [],
      "name": "owner",
      "outputs": [
        {
          "internalType": "address",
          "name": "",
          "type": "address"
        }
      ],
      "stateMutability": "view",
      "type": "function"
    },
    {
      "inputs": [],
      "name": "renounceOwnership",
      "outputs": [],
      "stateMutability": "nonpayable",
      "type": "function"
    },
    {
      "inputs": [
        {
          "internalType": "uint256",
          "name": "cliff",
          "type": "uint256"
        }
      ],
      "name": "setFeeCliff",
      "outputs": [],
      "stateMutability": "nonpayable",
      "type": "function"
    },
    {
      "inputs": [
        {
          "internalType": "address",
          "name": "_receiver",
          "type": "address"
        }
      ],
      "name": "setFeeReceiver",
      "outputs": [],
      "stateMutability": "nonpayable",
      "type": "function"
    },
    {
      "inputs": [
        {
          "internalType": "address",
          "name": "newOwner",
          "type": "address"
        }
      ],
      "name": "transferOwnership",
      "outputs": [],
      "stateMutability": "nonpayable",
      "type": "function"
    },
    {
      "inputs": [],
      "name": "verifier",
      "outputs": [
        {
          "internalType": "contract VerifierInterface",
          "name": "",
          "type": "address"
        }
      ],
      "stateMutability": "view",
      "type": "function"
    }
  ],
  "bytecode": "0x60806040523480156200001157600080fd5b5060405162002275380380620022758339818101604052810190620000379190620002ab565b620000576200004b6200013a60201b60201c565b6200014260201b60201c565b6001808190555084600260006101000a81548173ffffffffffffffffffffffffffffffffffffffff021916908373ffffffffffffffffffffffffffffffffffffffff16021790555083600360006101000a81548173ffffffffffffffffffffffffffffffffffffffff021916908373ffffffffffffffffffffffffffffffffffffffff1602179055508260058190555081600460006101000a81548173ffffffffffffffffffffffffffffffffffffffff021916908373ffffffffffffffffffffffffffffffffffffffff16021790555080600681905550505050505062000333565b600033905090565b60008060009054906101000a900473ffffffffffffffffffffffffffffffffffffffff169050816000806101000a81548173ffffffffffffffffffffffffffffffffffffffff021916908373ffffffffffffffffffffffffffffffffffffffff1602179055508173ffffffffffffffffffffffffffffffffffffffff168173ffffffffffffffffffffffffffffffffffffffff167f8be0079c531659141344cd1fd0a4f28419497f9722a3daafe3b4186f6b6457e060405160405180910390a35050565b600080fd5b600073ffffffffffffffffffffffffffffffffffffffff82169050919050565b600062000238826200020b565b9050919050565b6200024a816200022b565b81146200025657600080fd5b50565b6000815190506200026a816200023f565b92915050565b6000819050919050565b620002858162000270565b81146200029157600080fd5b50565b600081519050620002a5816200027a565b92915050565b600080600080600060a08688031215620002ca57620002c962000206565b5b6000620002da8882890162000259565b9550506020620002ed8882890162000259565b9450506040620003008882890162000294565b9350506060620003138882890162000259565b9250506080620003268882890162000294565b9150509295509295909350565b611f3280620003436000396000f3fe6080604052600436106100fe5760003560e01c806399a5d74711610095578063bc35c90211610064578063bc35c9021461033f578063c9f2f32914610368578063d8a25fb314610384578063efdcd974146103af578063f2fde38b146103d8576100fe565b806399a5d7471461025d578063a2ef24cc1461029a578063a3da42ef146102d7578063b3f0067414610314576100fe565b8063715018a6116100d1578063715018a6146101c75780637c0b8de2146101de578063839adbb8146102095780638da5cb5b14610232576100fe565b806327ca0e23146101035780632b7ac3f3146101465780633fdd47d9146101715780636ef25c3a1461019c575b600080fd5b34801561010f57600080fd5b5061012a60048036038101906101259190610ff2565b610401565b60405161013d9796959493929190611051565b60405180910390f35b34801561015257600080fd5b5061015b610443565b604051610168919061113f565b60405180910390f35b34801561017d57600080fd5b50610186610469565b604051610193919061115a565b60405180910390f35b3480156101a857600080fd5b506101b161046f565b6040516101be919061115a565b60405180910390f35b3480156101d357600080fd5b506101dc610475565b005b3480156101ea57600080fd5b506101f3610489565b6040516102009190611196565b60405180910390f35b34801561021557600080fd5b50610230600480360381019061022b919061134f565b6104af565b005b34801561023e57600080fd5b5061024761096c565b604051610254919061142e565b60405180910390f35b34801561026957600080fd5b50610284600480360381019061027f9190611449565b610995565b604051610291919061115a565b60405180910390f35b3480156102a657600080fd5b506102c160048036038101906102bc9190611449565b6109b1565b6040516102ce9190611485565b60405180910390f35b3480156102e357600080fd5b506102fe60048036038101906102f991906114cc565b6109d5565b60405161030b9190611527565b60405180910390f35b34801561032057600080fd5b50610329610a04565b604051610336919061142e565b60405180910390f35b34801561034b57600080fd5b5061036660048036038101906103619190611449565b610a2a565b005b610382600480360381019061037d9190611542565b610a3c565b005b34801561039057600080fd5b50610399610cee565b6040516103a6919061115a565b60405180910390f35b3480156103bb57600080fd5b506103d660048036038101906103d191906115cf565b610cfb565b005b3480156103e457600080fd5b506103ff60048036038101906103fa91906115cf565b610d47565b005b60086020528060005260406000206000915090508060000154908060010154908060020154908060030154908060040154908060050154908060060154905087565b600260009054906101000a900473ffffffffffffffffffffffffffffffffffffffff1681565b60065481565b60055481565b61047d610dca565b6104876000610e48565b565b600360009054906101000a900473ffffffffffffffffffffffffffffffffffffffff1681565b6104b7610f0c565b6000600260009054906101000a900473ffffffffffffffffffffffffffffffffffffffff1673ffffffffffffffffffffffffffffffffffffffff1663d6c037ad338a8a8a8a8a8a6040518863ffffffff1660e01b815260040161052097969594939291906115fc565b602060405180830381865afa15801561053d573d6000803e3d6000fd5b505050506040513d601f19601f820116820180604052508101906105619190611680565b9050600260009054906101000a900473ffffffffffffffffffffffffffffffffffffffff1673ffffffffffffffffffffffffffffffffffffffff1663258ae58282846040518363ffffffff1660e01b81526004016105c092919061172c565b602060405180830381865afa1580156105dd573d6000803e3d6000fd5b505050506040513d601f19601f820116820180604052508101906106019190611788565b610640576040517f08c379a000000000000000000000000000000000000000000000000000000000815260040161063790611812565b60405180910390fd5b600061064f8989898989610f5b565b905060001515600960003373ffffffffffffffffffffffffffffffffffffffff1673ffffffffffffffffffffffffffffffffffffffff168152602001908152602001600020600083815260200190815260200160002060009054906101000a900460ff161515146106f5576040517f08c379a00000000000000000000000000000000000000000000000000000000081526004016106ec906118a4565b60405180910390fd5b6000600860008381526020019081526020016000206040518060e0016040529081600082015481526020016001820154815260200160028201548152602001600382015481526020016004820154815260200160058201548152602001600682015481525050905060008160400151116107a4576040517f08c379a000000000000000000000000000000000000000000000000000000000815260040161079b90611910565b60405180910390fd5b60008160a0015111156108085760008160c001518260a001516107c7919061195f565b11610807576040517f08c379a00000000000000000000000000000000000000000000000000000000081526004016107fe90611a05565b60405180910390fd5b5b6001600960003373ffffffffffffffffffffffffffffffffffffffff1673ffffffffffffffffffffffffffffffffffffffff168152602001908152602001600020600084815260200190815260200160002060006101000a81548160ff021916908315150217905550600360009054906101000a900473ffffffffffffffffffffffffffffffffffffffff1673ffffffffffffffffffffffffffffffffffffffff166340d097c3336040518263ffffffff1660e01b81526004016108cc919061142e565b600060405180830381600087803b1580156108e657600080fd5b505af11580156108fa573d6000803e3d6000fd5b50505050813373ffffffffffffffffffffffffffffffffffffffff167f91d697238e9aa9f3172d17522c9be529b94a892481554e1ea619369b5b12f39a60405160405180910390a38060c001805180919061095490611a25565b81525050505050610963610f97565b50505050505050565b60008060009054906101000a900473ffffffffffffffffffffffffffffffffffffffff16905090565b600080600554836109a69190611a6d565b905080915050919050565b600781815481106109c157600080fd5b906000526020600020016000915090505481565b60096020528160005260406000206020528060005260406000206000915091509054906101000a900460ff1681565b600460009054906101000a900473ffffffffffffffffffffffffffffffffffffffff1681565b610a32610dca565b8060068190555050565b7fffffffffffffffffffffffffffffffffffffffffffffffffffffffffffffffa68612158015610a6d5750605a8613155b610aac576040517f08c379a0000000000000000000000000000000000000000000000000000000008152600401610aa390611afb565b60405180910390fd5b7fffffffffffffffffffffffffffffffffffffffffffffffffffffffffffffff4c8512158015610add575060b48513155b610b1c576040517f08c379a0000000000000000000000000000000000000000000000000000000008152600401610b1390611b67565b60405180910390fd5b60008411610b5f576040517f08c379a0000000000000000000000000000000000000000000000000000000008152600401610b5690611bd3565b60405180910390fd5b610b6881610995565b341015610baa576040517f08c379a0000000000000000000000000000000000000000000000000000000008152600401610ba190611c65565b60405180910390fd5b6000610bb98787878787610f5b565b90506000600860008381526020019081526020016000206002015414610c14576040517f08c379a0000000000000000000000000000000000000000000000000000000008152600401610c0b90611cd1565b60405180910390fd5b6040518060e00160405280888152602001878152602001868152602001858152602001848152602001838152602001600081525060086000838152602001908152602001600020600082015181600001556020820151816001015560408201518160020155606082015181600301556080820151816004015560a0820151816005015560c082015181600601559050506007819080600181540180825580915050600190039060005260206000200160009091909190915055600a6000815480929190610ce090611a25565b919050555050505050505050565b6000600780549050905090565b610d03610dca565b80600460006101000a81548173ffffffffffffffffffffffffffffffffffffffff021916908373ffffffffffffffffffffffffffffffffffffffff16021790555050565b610d4f610dca565b600073ffffffffffffffffffffffffffffffffffffffff168173ffffffffffffffffffffffffffffffffffffffff1603610dbe576040517f08c379a0000000000000000000000000000000000000000000000000000000008152600401610db590611d63565b60405180910390fd5b610dc781610e48565b50565b610dd2610fa0565b73ffffffffffffffffffffffffffffffffffffffff16610df061096c565b73ffffffffffffffffffffffffffffffffffffffff1614610e46576040517f08c379a0000000000000000000000000000000000000000000000000000000008152600401610e3d90611dcf565b60405180910390fd5b565b60008060009054906101000a900473ffffffffffffffffffffffffffffffffffffffff169050816000806101000a81548173ffffffffffffffffffffffffffffffffffffffff021916908373ffffffffffffffffffffffffffffffffffffffff1602179055508173ffffffffffffffffffffffffffffffffffffffff168173ffffffffffffffffffffffffffffffffffffffff167f8be0079c531659141344cd1fd0a4f28419497f9722a3daafe3b4186f6b6457e060405160405180910390a35050565b600260015403610f51576040517f08c379a0000000000000000000000000000000000000000000000000000000008152600401610f4890611e3b565b60405180910390fd5b6002600181905550565b60008585858585604051602001610f76959493929190611e9d565b60405160208183030381529060405280519060200120905095945050505050565b60018081905550565b600033905090565b6000604051905090565b600080fd5b600080fd5b6000819050919050565b610fcf81610fbc565b8114610fda57600080fd5b50565b600081359050610fec81610fc6565b92915050565b60006020828403121561100857611007610fb2565b5b600061101684828501610fdd565b91505092915050565b6000819050919050565b6110328161101f565b82525050565b6000819050919050565b61104b81611038565b82525050565b600060e082019050611066600083018a611029565b6110736020830189611029565b6110806040830188611042565b61108d6060830187611042565b61109a6080830186611042565b6110a760a0830185611042565b6110b460c0830184611042565b98975050505050505050565b600073ffffffffffffffffffffffffffffffffffffffff82169050919050565b6000819050919050565b60006111056111006110fb846110c0565b6110e0565b6110c0565b9050919050565b6000611117826110ea565b9050919050565b60006111298261110c565b9050919050565b6111398161111e565b82525050565b60006020820190506111546000830184611130565b92915050565b600060208201905061116f6000830184611042565b92915050565b60006111808261110c565b9050919050565b61119081611175565b82525050565b60006020820190506111ab6000830184611187565b92915050565b6111ba8161101f565b81146111c557600080fd5b50565b6000813590506111d7816111b1565b92915050565b6111e681611038565b81146111f157600080fd5b50565b600081359050611203816111dd565b92915050565b600080fd5b600080fd5b6000601f19601f8301169050919050565b7f4e487b7100000000000000000000000000000000000000000000000000000000600052604160045260246000fd5b61125c82611213565b810181811067ffffffffffffffff8211171561127b5761127a611224565b5b80604052505050565b600061128e610fa8565b905061129a8282611253565b919050565b600067ffffffffffffffff8211156112ba576112b9611224565b5b6112c382611213565b9050602081019050919050565b82818337600083830152505050565b60006112f26112ed8461129f565b611284565b90508281526020810184848401111561130e5761130d61120e565b5b6113198482856112d0565b509392505050565b600082601f83011261133657611335611209565b5b81356113468482602086016112df565b91505092915050565b600080600080600080600060e0888a03121561136e5761136d610fb2565b5b600061137c8a828b016111c8565b975050602061138d8a828b016111c8565b965050604061139e8a828b016111f4565b95505060606113af8a828b016111f4565b94505060806113c08a828b016111f4565b93505060a06113d18a828b01610fdd565b92505060c088013567ffffffffffffffff8111156113f2576113f1610fb7565b5b6113fe8a828b01611321565b91505092959891949750929550565b6000611418826110c0565b9050919050565b6114288161140d565b82525050565b6000602082019050611443600083018461141f565b92915050565b60006020828403121561145f5761145e610fb2565b5b600061146d848285016111f4565b91505092915050565b61147f81610fbc565b82525050565b600060208201905061149a6000830184611476565b92915050565b6114a98161140d565b81146114b457600080fd5b50565b6000813590506114c6816114a0565b92915050565b600080604083850312156114e3576114e2610fb2565b5b60006114f1858286016114b7565b925050602061150285828601610fdd565b9150509250929050565b60008115159050919050565b6115218161150c565b82525050565b600060208201905061153c6000830184611518565b92915050565b60008060008060008060c0878903121561155f5761155e610fb2565b5b600061156d89828a016111c8565b965050602061157e89828a016111c8565b955050604061158f89828a016111f4565b94505060606115a089828a016111f4565b93505060806115b189828a016111f4565b92505060a06115c289828a016111f4565b9150509295509295509295565b6000602082840312156115e5576115e4610fb2565b5b60006115f3848285016114b7565b91505092915050565b600060e082019050611611600083018a61141f565b61161e6020830189611029565b61162b6040830188611029565b6116386060830187611042565b6116456080830186611042565b61165260a0830185611042565b61165f60c0830184611476565b98975050505050505050565b60008151905061167a81610fc6565b92915050565b60006020828403121561169657611695610fb2565b5b60006116a48482850161166b565b91505092915050565b600081519050919050565b600082825260208201905092915050565b60005b838110156116e75780820151818401526020810190506116cc565b60008484015250505050565b60006116fe826116ad565b61170881856116b8565b93506117188185602086016116c9565b61172181611213565b840191505092915050565b60006040820190506117416000830185611476565b818103602083015261175381846116f3565b90509392505050565b6117658161150c565b811461177057600080fd5b50565b6000815190506117828161175c565b92915050565b60006020828403121561179e5761179d610fb2565b5b60006117ac84828501611773565b91505092915050565b600082825260208201905092915050565b7f496e76616c69642070726f6f66206f66206c6f636174696f6e00000000000000600082015250565b60006117fc6019836117b5565b9150611807826117c6565b602082019050919050565b6000602082019050818103600083015261182b816117ef565b9050919050565b7f41697244726f7020686173206265656e20616c726561647920636c61696d656460008201527f20666f7220746869732061646472657373000000000000000000000000000000602082015250565b600061188e6031836117b5565b915061189982611832565b604082019050919050565b600060208201905081810360008301526118bd81611881565b9050919050565b7f41697244726f7020646f6573206e6f7420657869737400000000000000000000600082015250565b60006118fa6016836117b5565b9150611905826118c4565b602082019050919050565b60006020820190508181036000830152611929816118ed565b9050919050565b7f4e487b7100000000000000000000000000000000000000000000000000000000600052601160045260246000fd5b600061196a82611038565b915061197583611038565b925082820390508181111561198d5761198c611930565b5b92915050565b7f4e6f206d6f726520746f6b656e73206c65667420666f7220746869732041697260008201527f44726f7000000000000000000000000000000000000000000000000000000000602082015250565b60006119ef6024836117b5565b91506119fa82611993565b604082019050919050565b60006020820190508181036000830152611a1e816119e2565b9050919050565b6000611a3082611038565b91507fffffffffffffffffffffffffffffffffffffffffffffffffffffffffffffffff8203611a6257611a61611930565b5b600182019050919050565b6000611a7882611038565b9150611a8383611038565b9250828202611a9181611038565b91508282048414831517611aa857611aa7611930565b5b5092915050565b7f496e76616c6964206c617469747564652076616c756500000000000000000000600082015250565b6000611ae56016836117b5565b9150611af082611aaf565b602082019050919050565b60006020820190508181036000830152611b1481611ad8565b9050919050565b7f496e76616c6964206c6f6e6769747564652076616c7565000000000000000000600082015250565b6000611b516017836117b5565b9150611b5c82611b1b565b602082019050919050565b60006020820190508181036000830152611b8081611b44565b9050919050565b7f496e76616c6964206d61782064697374616e6365000000000000000000000000600082015250565b6000611bbd6014836117b5565b9150611bc882611b87565b602082019050919050565b60006020820190508181036000830152611bec81611bb0565b9050919050565b7f56616c75652073656e742077697468207478206973206e6f742073756666696360008201527f69656e74206261736564206f6e2074686520746f6b656e7320636f756e740000602082015250565b6000611c4f603e836117b5565b9150611c5a82611bf3565b604082019050919050565b60006020820190508181036000830152611c7e81611c42565b9050919050565b7f4475706c6963617465642061697244726f700000000000000000000000000000600082015250565b6000611cbb6012836117b5565b9150611cc682611c85565b602082019050919050565b60006020820190508181036000830152611cea81611cae565b9050919050565b7f4f776e61626c653a206e6577206f776e657220697320746865207a65726f206160008201527f6464726573730000000000000000000000000000000000000000000000000000602082015250565b6000611d4d6026836117b5565b9150611d5882611cf1565b604082019050919050565b60006020820190508181036000830152611d7c81611d40565b9050919050565b7f4f776e61626c653a2063616c6c6572206973206e6f7420746865206f776e6572600082015250565b6000611db96020836117b5565b9150611dc482611d83565b602082019050919050565b60006020820190508181036000830152611de881611dac565b9050919050565b7f5265656e7472616e637947756172643a207265656e7472616e742063616c6c00600082015250565b6000611e25601f836117b5565b9150611e3082611def565b602082019050919050565b60006020820190508181036000830152611e5481611e18565b9050919050565b6000819050919050565b611e76611e718261101f565b611e5b565b82525050565b6000819050919050565b611e97611e9282611038565b611e7c565b82525050565b6000611ea98288611e65565b602082019150611eb98287611e65565b602082019150611ec98286611e86565b602082019150611ed98285611e86565b602082019150611ee98284611e86565b602082019150819050969550505050505056fea26469706673582212206ec4a02e45ca492572bec1b1526f2b500741cd32784c7b9000a23135da5f4b2364736f6c63430008110033",
  "linkReferences": {},
  "deployedLinkReferences": {}
}