{
  "_format": "hh-sol-artifact-1",
  "contractName": "Logic",
  "sourceName": "contracts/Logic.sol",
  "abi": [
    {
      "inputs": [
        {
          "internalType": "address",
          "name": "_verifier",
          "type": "address"
        },
        {
          "internalType": "address",
          "name": "_nft",
          "type": "address"
        },
        {
          "internalType": "uint256",
          "name": "_baseFee",
          "type": "uint256"
        },
        {
          "internalType": "address",
          "name": "_feeReceiver",
          "type": "address"
        },
        {
          "internalType": "uint256",
          "name": "_feeCliff",
          "type": "uint256"
        }
      ],
      "stateMutability": "nonpayable",
      "type": "constructor"
    },
    {
      "anonymous": false,
      "inputs": [
        {
          "indexed": true,
          "internalType": "address",
          "name": "holder",
          "type": "address"
        },
        {
          "indexed": true,
          "internalType": "bytes32",
          "name": "deviceHash",
          "type": "bytes32"
        }
      ],
      "name": "Claimed",
      "type": "event"
    },
    {
      "anonymous": false,
      "inputs": [
        {
          "indexed": true,
          "internalType": "address",
          "name": "previousOwner",
          "type": "address"
        },
        {
          "indexed": true,
          "internalType": "address",
          "name": "newOwner",
          "type": "address"
        }
      ],
      "name": "OwnershipTransferred",
      "type": "event"
    },
    {
      "inputs": [],
      "name": "NFT",
      "outputs": [
        {
          "internalType": "contract LocationNFT",
          "name": "",
          "type": "address"
        }
      ],
      "stateMutability": "view",
      "type": "function"
    },
    {
      "inputs": [
        {
          "internalType": "int256",
          "name": "_lat",
          "type": "int256"
        },
        {
          "internalType": "int256",
          "name": "_long",
          "type": "int256"
        },
        {
          "internalType": "uint256",
          "name": "_maxDistance",
          "type": "uint256"
        },
        {
          "internalType": "uint256",
          "name": "_time_from",
          "type": "uint256"
        },
        {
          "internalType": "uint256",
          "name": "_time_to",
          "type": "uint256"
        },
        {
          "internalType": "uint256",
          "name": "_tokens_count",
          "type": "uint256"
        }
      ],
      "name": "addAirDrop",
      "outputs": [],
      "stateMutability": "payable",
      "type": "function"
    },
    {
      "inputs": [
        {
          "internalType": "bytes32",
          "name": "",
          "type": "bytes32"
        }
      ],
      "name": "airDrops",
      "outputs": [
        {
          "internalType": "int256",
          "name": "lat",
          "type": "int256"
        },
        {
          "internalType": "int256",
          "name": "long",
          "type": "int256"
        },
        {
          "internalType": "uint256",
          "name": "maxDistance",
          "type": "uint256"
        },
        {
          "internalType": "uint256",
          "name": "time_from",
          "type": "uint256"
        },
        {
          "internalType": "uint256",
          "name": "time_to",
          "type": "uint256"
        },
        {
          "internalType": "uint256",
          "name": "tokens_count",
          "type": "uint256"
        },
        {
          "internalType": "uint256",
          "name": "tokens_minted",
          "type": "uint256"
        }
      ],
      "stateMutability": "view",
      "type": "function"
    },
    {
      "inputs": [],
      "name": "airDropsCount",
      "outputs": [
        {
          "internalType": "uint256",
          "name": "",
          "type": "uint256"
        }
      ],
      "stateMutability": "view",
      "type": "function"
    },
    {
      "inputs": [
        {
          "internalType": "uint256",
          "name": "",
          "type": "uint256"
        }
      ],
      "name": "airDropsHashes",
      "outputs": [
        {
          "internalType": "bytes32",
          "name": "",
          "type": "bytes32"
        }
      ],
      "stateMutability": "view",
      "type": "function"
    },
    {
      "inputs": [],
      "name": "baseFee",
      "outputs": [
        {
          "internalType": "uint256",
          "name": "",
          "type": "uint256"
        }
      ],
      "stateMutability": "view",
      "type": "function"
    },
    {
      "inputs": [
        {
          "internalType": "uint256",
          "name": "_tokens_count",
          "type": "uint256"
        }
      ],
      "name": "calculateFee",
      "outputs": [
        {
          "internalType": "uint256",
          "name": "",
          "type": "uint256"
        }
      ],
      "stateMutability": "view",
      "type": "function"
    },
    {
      "inputs": [
        {
          "internalType": "int256",
          "name": "_lat",
          "type": "int256"
        },
        {
          "internalType": "int256",
          "name": "_long",
          "type": "int256"
        },
        {
          "internalType": "uint256",
          "name": "_distance",
          "type": "uint256"
        },
        {
          "internalType": "uint256",
          "name": "_time_from",
          "type": "uint256"
        },
        {
          "internalType": "uint256",
          "name": "_time_to",
          "type": "uint256"
        },
        {
          "internalType": "bytes32",
          "name": "_deviceHash",
          "type": "bytes32"
        },
        {
          "internalType": "bytes",
          "name": "signature",
          "type": "bytes"
        }
      ],
      "name": "claim",
      "outputs": [],
      "stateMutability": "nonpayable",
      "type": "function"
    },
    {
      "inputs": [
        {
          "internalType": "address",
          "name": "",
          "type": "address"
        },
        {
          "internalType": "bytes32",
          "name": "",
          "type": "bytes32"
        }
      ],
      "name": "claimedAirDrops",
      "outputs": [
        {
          "internalType": "bool",
          "name": "",
          "type": "bool"
        }
      ],
      "stateMutability": "view",
      "type": "function"
    },
    {
      "inputs": [],
      "name": "feeCliff",
      "outputs": [
        {
          "internalType": "uint256",
          "name": "",
          "type": "uint256"
        }
      ],
      "stateMutability": "view",
      "type": "function"
    },
    {
      "inputs": [],
      "name": "feeReceiver",
      "outputs": [
        {
          "internalType": "address",
          "name": "",
          "type": "address"
        }
      ],
      "stateMutability": "view",
      "type": "function"
    },
    {
      "inputs": [],
      "name": "getAllHashes",
      "outputs": [
        {
          "internalType": "bytes32[]",
          "name": "",
          "type": "bytes32[]"
        }
      ],
      "stateMutability": "view",
      "type": "function"
    },
    {
      "inputs": [],
      "name": "owner",
      "outputs": [
        {
          "internalType": "address",
          "name": "",
          "type": "address"
        }
      ],
      "stateMutability": "view",
      "type": "function"
    },
    {
      "inputs": [],
      "name": "renounceOwnership",
      "outputs": [],
      "stateMutability": "nonpayable",
      "type": "function"
    },
    {
      "inputs": [
        {
          "internalType": "uint256",
          "name": "cliff",
          "type": "uint256"
        }
      ],
      "name": "setFeeCliff",
      "outputs": [],
      "stateMutability": "nonpayable",
      "type": "function"
    },
    {
      "inputs": [
        {
          "internalType": "address",
          "name": "_receiver",
          "type": "address"
        }
      ],
      "name": "setFeeReceiver",
      "outputs": [],
      "stateMutability": "nonpayable",
      "type": "function"
    },
    {
      "inputs": [
        {
          "internalType": "address",
          "name": "newOwner",
          "type": "address"
        }
      ],
      "name": "transferOwnership",
      "outputs": [],
      "stateMutability": "nonpayable",
      "type": "function"
    },
    {
      "inputs": [],
      "name": "verifier",
      "outputs": [
        {
          "internalType": "contract VerifierInterface",
          "name": "",
          "type": "address"
        }
      ],
      "stateMutability": "view",
      "type": "function"
    }
  ],
  "bytecode": "0x60806040523480156200001157600080fd5b5060405162002071380380620020718339818101604052810190620000379190620002ab565b620000576200004b6200013a60201b60201c565b6200014260201b60201c565b6001808190555084600260006101000a81548173ffffffffffffffffffffffffffffffffffffffff021916908373ffffffffffffffffffffffffffffffffffffffff16021790555083600360006101000a81548173ffffffffffffffffffffffffffffffffffffffff021916908373ffffffffffffffffffffffffffffffffffffffff1602179055508260058190555081600460006101000a81548173ffffffffffffffffffffffffffffffffffffffff021916908373ffffffffffffffffffffffffffffffffffffffff16021790555080600681905550505050505062000333565b600033905090565b60008060009054906101000a900473ffffffffffffffffffffffffffffffffffffffff169050816000806101000a81548173ffffffffffffffffffffffffffffffffffffffff021916908373ffffffffffffffffffffffffffffffffffffffff1602179055508173ffffffffffffffffffffffffffffffffffffffff168173ffffffffffffffffffffffffffffffffffffffff167f8be0079c531659141344cd1fd0a4f28419497f9722a3daafe3b4186f6b6457e060405160405180910390a35050565b600080fd5b600073ffffffffffffffffffffffffffffffffffffffff82169050919050565b600062000238826200020b565b9050919050565b6200024a816200022b565b81146200025657600080fd5b50565b6000815190506200026a816200023f565b92915050565b6000819050919050565b620002858162000270565b81146200029157600080fd5b50565b600081519050620002a5816200027a565b92915050565b600080600080600060a08688031215620002ca57620002c962000206565b5b6000620002da8882890162000259565b9550506020620002ed8882890162000259565b9450506040620003008882890162000294565b9350506060620003138882890162000259565b9250506080620003268882890162000294565b9150509295509295909350565b611d2e80620003436000396000f3fe6080604052600436106101095760003560e01c8063a2ef24cc11610095578063c9f2f32911610064578063c9f2f32914610373578063d8a25fb31461038f578063efdcd974146103ba578063f2fde38b146103e3578063fe99f7421461040c57610109565b8063a2ef24cc146102a5578063a3da42ef146102e2578063b3f006741461031f578063bc35c9021461034a57610109565b8063715018a6116100dc578063715018a6146101d25780637c0b8de2146101e9578063839adbb8146102145780638da5cb5b1461023d57806399a5d7471461026857610109565b806327ca0e231461010e5780632b7ac3f3146101515780633fdd47d91461017c5780636ef25c3a146101a7575b600080fd5b34801561011a57600080fd5b5061013560048036038101906101309190610f33565b610437565b6040516101489796959493929190610f92565b60405180910390f35b34801561015d57600080fd5b50610166610479565b6040516101739190611080565b60405180910390f35b34801561018857600080fd5b5061019161049f565b60405161019e919061109b565b60405180910390f35b3480156101b357600080fd5b506101bc6104a5565b6040516101c9919061109b565b60405180910390f35b3480156101de57600080fd5b506101e76104ab565b005b3480156101f557600080fd5b506101fe6104bf565b60405161020b91906110d7565b60405180910390f35b34801561022057600080fd5b5061023b60048036038101906102369190611290565b6104e5565b005b34801561024957600080fd5b5061025261082e565b60405161025f919061136f565b60405180910390f35b34801561027457600080fd5b5061028f600480360381019061028a919061138a565b610857565b60405161029c919061109b565b60405180910390f35b3480156102b157600080fd5b506102cc60048036038101906102c7919061138a565b610894565b6040516102d991906113c6565b60405180910390f35b3480156102ee57600080fd5b506103096004803603810190610304919061140d565b6108b8565b6040516103169190611468565b60405180910390f35b34801561032b57600080fd5b506103346108e7565b604051610341919061136f565b60405180910390f35b34801561035657600080fd5b50610371600480360381019061036c919061138a565b61090d565b005b61038d60048036038101906103889190611483565b61091f565b005b34801561039b57600080fd5b506103a4610bd7565b6040516103b1919061109b565b60405180910390f35b3480156103c657600080fd5b506103e160048036038101906103dc9190611510565b610be4565b005b3480156103ef57600080fd5b5061040a60048036038101906104059190611510565b610c30565b005b34801561041857600080fd5b50610421610cb3565b60405161042e91906115fb565b60405180910390f35b60086020528060005260406000206000915090508060000154908060010154908060020154908060030154908060040154908060050154908060060154905087565b600260009054906101000a900473ffffffffffffffffffffffffffffffffffffffff1681565b60065481565b60055481565b6104b3610d0b565b6104bd6000610d89565b565b600360009054906101000a900473ffffffffffffffffffffffffffffffffffffffff1681565b6104ed610e4d565b60006104fc8888888888610e9c565b905060001515600960003373ffffffffffffffffffffffffffffffffffffffff1673ffffffffffffffffffffffffffffffffffffffff168152602001908152602001600020600083815260200190815260200160002060009054906101000a900460ff161515146105a2576040517f08c379a0000000000000000000000000000000000000000000000000000000008152600401610599906116a0565b60405180910390fd5b6000600860008381526020019081526020016000206040518060e001604052908160008201548152602001600182015481526020016002820154815260200160038201548152602001600482015481526020016005820154815260200160068201548152505090506000816040015111610651576040517f08c379a00000000000000000000000000000000000000000000000000000000081526004016106489061170c565b60405180910390fd5b60008160a0015111156106b55760008160c001518260a00151610674919061175b565b116106b4576040517f08c379a00000000000000000000000000000000000000000000000000000000081526004016106ab90611801565b60405180910390fd5b5b6001600960003373ffffffffffffffffffffffffffffffffffffffff1673ffffffffffffffffffffffffffffffffffffffff168152602001908152602001600020600084815260200190815260200160002060006101000a81548160ff021916908315150217905550600360009054906101000a900473ffffffffffffffffffffffffffffffffffffffff1673ffffffffffffffffffffffffffffffffffffffff166340d097c3336040518263ffffffff1660e01b8152600401610779919061136f565b600060405180830381600087803b15801561079357600080fd5b505af11580156107a7573d6000803e3d6000fd5b50505050813373ffffffffffffffffffffffffffffffffffffffff167f91d697238e9aa9f3172d17522c9be529b94a892481554e1ea619369b5b12f39a60405160405180910390a360086000838152602001908152602001600020600601600081548092919061081690611821565b91905055505050610825610ed8565b50505050505050565b60008060009054906101000a900473ffffffffffffffffffffffffffffffffffffffff16905090565b600080600654831061087a576005546006546108739190611869565b905061088b565b600554836108889190611869565b90505b80915050919050565b600781815481106108a457600080fd5b906000526020600020016000915090505481565b60096020528160005260406000206020528060005260406000206000915091509054906101000a900460ff1681565b600460009054906101000a900473ffffffffffffffffffffffffffffffffffffffff1681565b610915610d0b565b8060068190555050565b7ffffffffffffffffffffffffffffffffffffffffffffffffffffffffffaa2b5808612158015610953575063055d4a808613155b610992576040517f08c379a0000000000000000000000000000000000000000000000000000000008152600401610989906118f7565b60405180910390fd5b7ffffffffffffffffffffffffffffffffffffffffffffffffffffffffff5456b0085121580156109c65750630aba95008513155b610a05576040517f08c379a00000000000000000000000000000000000000000000000000000000081526004016109fc90611963565b60405180910390fd5b60008411610a48576040517f08c379a0000000000000000000000000000000000000000000000000000000008152600401610a3f906119cf565b60405180910390fd5b610a5181610857565b341015610a93576040517f08c379a0000000000000000000000000000000000000000000000000000000008152600401610a8a90611a61565b60405180910390fd5b6000610aa28787878787610e9c565b90506000600860008381526020019081526020016000206002015414610afd576040517f08c379a0000000000000000000000000000000000000000000000000000000008152600401610af490611acd565b60405180910390fd5b6040518060e00160405280888152602001878152602001868152602001858152602001848152602001838152602001600081525060086000838152602001908152602001600020600082015181600001556020820151816001015560408201518160020155606082015181600301556080820151816004015560a0820151816005015560c082015181600601559050506007819080600181540180825580915050600190039060005260206000200160009091909190915055600a6000815480929190610bc990611821565b919050555050505050505050565b6000600780549050905090565b610bec610d0b565b80600460006101000a81548173ffffffffffffffffffffffffffffffffffffffff021916908373ffffffffffffffffffffffffffffffffffffffff16021790555050565b610c38610d0b565b600073ffffffffffffffffffffffffffffffffffffffff168173ffffffffffffffffffffffffffffffffffffffff1603610ca7576040517f08c379a0000000000000000000000000000000000000000000000000000000008152600401610c9e90611b5f565b60405180910390fd5b610cb081610d89565b50565b60606007805480602002602001604051908101604052809291908181526020018280548015610d0157602002820191906000526020600020905b815481526020019060010190808311610ced575b5050505050905090565b610d13610ee1565b73ffffffffffffffffffffffffffffffffffffffff16610d3161082e565b73ffffffffffffffffffffffffffffffffffffffff1614610d87576040517f08c379a0000000000000000000000000000000000000000000000000000000008152600401610d7e90611bcb565b60405180910390fd5b565b60008060009054906101000a900473ffffffffffffffffffffffffffffffffffffffff169050816000806101000a81548173ffffffffffffffffffffffffffffffffffffffff021916908373ffffffffffffffffffffffffffffffffffffffff1602179055508173ffffffffffffffffffffffffffffffffffffffff168173ffffffffffffffffffffffffffffffffffffffff167f8be0079c531659141344cd1fd0a4f28419497f9722a3daafe3b4186f6b6457e060405160405180910390a35050565b600260015403610e92576040517f08c379a0000000000000000000000000000000000000000000000000000000008152600401610e8990611c37565b60405180910390fd5b6002600181905550565b60008585858585604051602001610eb7959493929190611c99565b60405160208183030381529060405280519060200120905095945050505050565b60018081905550565b600033905090565b6000604051905090565b600080fd5b600080fd5b6000819050919050565b610f1081610efd565b8114610f1b57600080fd5b50565b600081359050610f2d81610f07565b92915050565b600060208284031215610f4957610f48610ef3565b5b6000610f5784828501610f1e565b91505092915050565b6000819050919050565b610f7381610f60565b82525050565b6000819050919050565b610f8c81610f79565b82525050565b600060e082019050610fa7600083018a610f6a565b610fb46020830189610f6a565b610fc16040830188610f83565b610fce6060830187610f83565b610fdb6080830186610f83565b610fe860a0830185610f83565b610ff560c0830184610f83565b98975050505050505050565b600073ffffffffffffffffffffffffffffffffffffffff82169050919050565b6000819050919050565b600061104661104161103c84611001565b611021565b611001565b9050919050565b60006110588261102b565b9050919050565b600061106a8261104d565b9050919050565b61107a8161105f565b82525050565b60006020820190506110956000830184611071565b92915050565b60006020820190506110b06000830184610f83565b92915050565b60006110c18261104d565b9050919050565b6110d1816110b6565b82525050565b60006020820190506110ec60008301846110c8565b92915050565b6110fb81610f60565b811461110657600080fd5b50565b600081359050611118816110f2565b92915050565b61112781610f79565b811461113257600080fd5b50565b6000813590506111448161111e565b92915050565b600080fd5b600080fd5b6000601f19601f8301169050919050565b7f4e487b7100000000000000000000000000000000000000000000000000000000600052604160045260246000fd5b61119d82611154565b810181811067ffffffffffffffff821117156111bc576111bb611165565b5b80604052505050565b60006111cf610ee9565b90506111db8282611194565b919050565b600067ffffffffffffffff8211156111fb576111fa611165565b5b61120482611154565b9050602081019050919050565b82818337600083830152505050565b600061123361122e846111e0565b6111c5565b90508281526020810184848401111561124f5761124e61114f565b5b61125a848285611211565b509392505050565b600082601f8301126112775761127661114a565b5b8135611287848260208601611220565b91505092915050565b600080600080600080600060e0888a0312156112af576112ae610ef3565b5b60006112bd8a828b01611109565b97505060206112ce8a828b01611109565b96505060406112df8a828b01611135565b95505060606112f08a828b01611135565b94505060806113018a828b01611135565b93505060a06113128a828b01610f1e565b92505060c088013567ffffffffffffffff81111561133357611332610ef8565b5b61133f8a828b01611262565b91505092959891949750929550565b600061135982611001565b9050919050565b6113698161134e565b82525050565b60006020820190506113846000830184611360565b92915050565b6000602082840312156113a05761139f610ef3565b5b60006113ae84828501611135565b91505092915050565b6113c081610efd565b82525050565b60006020820190506113db60008301846113b7565b92915050565b6113ea8161134e565b81146113f557600080fd5b50565b600081359050611407816113e1565b92915050565b6000806040838503121561142457611423610ef3565b5b6000611432858286016113f8565b925050602061144385828601610f1e565b9150509250929050565b60008115159050919050565b6114628161144d565b82525050565b600060208201905061147d6000830184611459565b92915050565b60008060008060008060c087890312156114a05761149f610ef3565b5b60006114ae89828a01611109565b96505060206114bf89828a01611109565b95505060406114d089828a01611135565b94505060606114e189828a01611135565b93505060806114f289828a01611135565b92505060a061150389828a01611135565b9150509295509295509295565b60006020828403121561152657611525610ef3565b5b6000611534848285016113f8565b91505092915050565b600081519050919050565b600082825260208201905092915050565b6000819050602082019050919050565b61157281610efd565b82525050565b60006115848383611569565b60208301905092915050565b6000602082019050919050565b60006115a88261153d565b6115b28185611548565b93506115bd83611559565b8060005b838110156115ee5781516115d58882611578565b97506115e083611590565b9250506001810190506115c1565b5085935050505092915050565b60006020820190508181036000830152611615818461159d565b905092915050565b600082825260208201905092915050565b7f41697244726f7020686173206265656e20616c726561647920636c61696d656460008201527f20666f7220746869732061646472657373000000000000000000000000000000602082015250565b600061168a60318361161d565b91506116958261162e565b604082019050919050565b600060208201905081810360008301526116b98161167d565b9050919050565b7f41697244726f7020646f6573206e6f7420657869737400000000000000000000600082015250565b60006116f660168361161d565b9150611701826116c0565b602082019050919050565b60006020820190508181036000830152611725816116e9565b9050919050565b7f4e487b7100000000000000000000000000000000000000000000000000000000600052601160045260246000fd5b600061176682610f79565b915061177183610f79565b92508282039050818111156117895761178861172c565b5b92915050565b7f4e6f206d6f726520746f6b656e73206c65667420666f7220746869732041697260008201527f44726f7000000000000000000000000000000000000000000000000000000000602082015250565b60006117eb60248361161d565b91506117f68261178f565b604082019050919050565b6000602082019050818103600083015261181a816117de565b9050919050565b600061182c82610f79565b91507fffffffffffffffffffffffffffffffffffffffffffffffffffffffffffffffff820361185e5761185d61172c565b5b600182019050919050565b600061187482610f79565b915061187f83610f79565b925082820261188d81610f79565b915082820484148315176118a4576118a361172c565b5b5092915050565b7f496e76616c6964206c617469747564652076616c756500000000000000000000600082015250565b60006118e160168361161d565b91506118ec826118ab565b602082019050919050565b60006020820190508181036000830152611910816118d4565b9050919050565b7f496e76616c6964206c6f6e6769747564652076616c7565000000000000000000600082015250565b600061194d60178361161d565b915061195882611917565b602082019050919050565b6000602082019050818103600083015261197c81611940565b9050919050565b7f496e76616c6964206d61782064697374616e6365000000000000000000000000600082015250565b60006119b960148361161d565b91506119c482611983565b602082019050919050565b600060208201905081810360008301526119e8816119ac565b9050919050565b7f56616c75652073656e742077697468207478206973206e6f742073756666696360008201527f69656e74206261736564206f6e2074686520746f6b656e7320636f756e740000602082015250565b6000611a4b603e8361161d565b9150611a56826119ef565b604082019050919050565b60006020820190508181036000830152611a7a81611a3e565b9050919050565b7f4475706c6963617465642061697244726f700000000000000000000000000000600082015250565b6000611ab760128361161d565b9150611ac282611a81565b602082019050919050565b60006020820190508181036000830152611ae681611aaa565b9050919050565b7f4f776e61626c653a206e6577206f776e657220697320746865207a65726f206160008201527f6464726573730000000000000000000000000000000000000000000000000000602082015250565b6000611b4960268361161d565b9150611b5482611aed565b604082019050919050565b60006020820190508181036000830152611b7881611b3c565b9050919050565b7f4f776e61626c653a2063616c6c6572206973206e6f7420746865206f776e6572600082015250565b6000611bb560208361161d565b9150611bc082611b7f565b602082019050919050565b60006020820190508181036000830152611be481611ba8565b9050919050565b7f5265656e7472616e637947756172643a207265656e7472616e742063616c6c00600082015250565b6000611c21601f8361161d565b9150611c2c82611beb565b602082019050919050565b60006020820190508181036000830152611c5081611c14565b9050919050565b6000819050919050565b611c72611c6d82610f60565b611c57565b82525050565b6000819050919050565b611c93611c8e82610f79565b611c78565b82525050565b6000611ca58288611c61565b602082019150611cb58287611c61565b602082019150611cc58286611c82565b602082019150611cd58285611c82565b602082019150611ce58284611c82565b602082019150819050969550505050505056fea2646970667358221220f5871bc943ac3e9cc5c9a6884090319d80036cbe6481ea9bbc8f5d8161cf592664736f6c63430008110033",
  "linkReferences": {},
  "deployedLinkReferences": {}
}