{
  "_format": "hh-sol-artifact-1",
  "contractName": "LocationNFT",
  "sourceName": "contracts/LocationNFT.sol",
  "abi": [
    {
      "inputs": [],
      "stateMutability": "nonpayable",
      "type": "constructor"
    },
    {
      "anonymous": false,
      "inputs": [
        {
          "indexed": true,
          "internalType": "address",
          "name": "owner",
          "type": "address"
        },
        {
          "indexed": true,
          "internalType": "address",
          "name": "approved",
          "type": "address"
        },
        {
          "indexed": true,
          "internalType": "uint256",
          "name": "tokenId",
          "type": "uint256"
        }
      ],
      "name": "Approval",
      "type": "event"
    },
    {
      "anonymous": false,
      "inputs": [
        {
          "indexed": true,
          "internalType": "address",
          "name": "owner",
          "type": "address"
        },
        {
          "indexed": true,
          "internalType": "address",
          "name": "operator",
          "type": "address"
        },
        {
          "indexed": false,
          "internalType": "bool",
          "name": "approved",
          "type": "bool"
        }
      ],
      "name": "ApprovalForAll",
      "type": "event"
    },
    {
      "anonymous": false,
      "inputs": [
        {
          "indexed": true,
          "internalType": "bytes32",
          "name": "role",
          "type": "bytes32"
        },
        {
          "indexed": true,
          "internalType": "bytes32",
          "name": "previousAdminRole",
          "type": "bytes32"
        },
        {
          "indexed": true,
          "internalType": "bytes32",
          "name": "newAdminRole",
          "type": "bytes32"
        }
      ],
      "name": "RoleAdminChanged",
      "type": "event"
    },
    {
      "anonymous": false,
      "inputs": [
        {
          "indexed": true,
          "internalType": "bytes32",
          "name": "role",
          "type": "bytes32"
        },
        {
          "indexed": true,
          "internalType": "address",
          "name": "account",
          "type": "address"
        },
        {
          "indexed": true,
          "internalType": "address",
          "name": "sender",
          "type": "address"
        }
      ],
      "name": "RoleGranted",
      "type": "event"
    },
    {
      "anonymous": false,
      "inputs": [
        {
          "indexed": true,
          "internalType": "bytes32",
          "name": "role",
          "type": "bytes32"
        },
        {
          "indexed": true,
          "internalType": "address",
          "name": "account",
          "type": "address"
        },
        {
          "indexed": true,
          "internalType": "address",
          "name": "sender",
          "type": "address"
        }
      ],
      "name": "RoleRevoked",
      "type": "event"
    },
    {
      "anonymous": false,
      "inputs": [
        {
          "indexed": true,
          "internalType": "address",
          "name": "from",
          "type": "address"
        },
        {
          "indexed": true,
          "internalType": "address",
          "name": "to",
          "type": "address"
        },
        {
          "indexed": true,
          "internalType": "uint256",
          "name": "tokenId",
          "type": "uint256"
        }
      ],
      "name": "Transfer",
      "type": "event"
    },
    {
      "inputs": [],
      "name": "DEFAULT_ADMIN_ROLE",
      "outputs": [
        {
          "internalType": "bytes32",
          "name": "",
          "type": "bytes32"
        }
      ],
      "stateMutability": "view",
      "type": "function"
    },
    {
      "inputs": [],
      "name": "MINTER_ROLE",
      "outputs": [
        {
          "internalType": "bytes32",
          "name": "",
          "type": "bytes32"
        }
      ],
      "stateMutability": "view",
      "type": "function"
    },
    {
      "inputs": [
        {
          "internalType": "address",
          "name": "to",
          "type": "address"
        },
        {
          "internalType": "uint256",
          "name": "tokenId",
          "type": "uint256"
        }
      ],
      "name": "approve",
      "outputs": [],
      "stateMutability": "nonpayable",
      "type": "function"
    },
    {
      "inputs": [
        {
          "internalType": "address",
          "name": "owner",
          "type": "address"
        }
      ],
      "name": "balanceOf",
      "outputs": [
        {
          "internalType": "uint256",
          "name": "",
          "type": "uint256"
        }
      ],
      "stateMutability": "view",
      "type": "function"
    },
    {
      "inputs": [
        {
          "internalType": "uint256",
          "name": "tokenId",
          "type": "uint256"
        }
      ],
      "name": "getApproved",
      "outputs": [
        {
          "internalType": "address",
          "name": "",
          "type": "address"
        }
      ],
      "stateMutability": "view",
      "type": "function"
    },
    {
      "inputs": [
        {
          "internalType": "bytes32",
          "name": "role",
          "type": "bytes32"
        }
      ],
      "name": "getRoleAdmin",
      "outputs": [
        {
          "internalType": "bytes32",
          "name": "",
          "type": "bytes32"
        }
      ],
      "stateMutability": "view",
      "type": "function"
    },
    {
      "inputs": [
        {
          "internalType": "bytes32",
          "name": "role",
          "type": "bytes32"
        },
        {
          "internalType": "address",
          "name": "account",
          "type": "address"
        }
      ],
      "name": "grantRole",
      "outputs": [],
      "stateMutability": "nonpayable",
      "type": "function"
    },
    {
      "inputs": [
        {
          "internalType": "bytes32",
          "name": "role",
          "type": "bytes32"
        },
        {
          "internalType": "address",
          "name": "account",
          "type": "address"
        }
      ],
      "name": "hasRole",
      "outputs": [
        {
          "internalType": "bool",
          "name": "",
          "type": "bool"
        }
      ],
      "stateMutability": "view",
      "type": "function"
    },
    {
      "inputs": [
        {
          "internalType": "address",
          "name": "owner",
          "type": "address"
        },
        {
          "internalType": "address",
          "name": "operator",
          "type": "address"
        }
      ],
      "name": "isApprovedForAll",
      "outputs": [
        {
          "internalType": "bool",
          "name": "",
          "type": "bool"
        }
      ],
      "stateMutability": "view",
      "type": "function"
    },
    {
      "inputs": [],
      "name": "name",
      "outputs": [
        {
          "internalType": "string",
          "name": "",
          "type": "string"
        }
      ],
      "stateMutability": "view",
      "type": "function"
    },
    {
      "inputs": [
        {
          "internalType": "uint256",
          "name": "tokenId",
          "type": "uint256"
        }
      ],
      "name": "ownerOf",
      "outputs": [
        {
          "internalType": "address",
          "name": "",
          "type": "address"
        }
      ],
      "stateMutability": "view",
      "type": "function"
    },
    {
      "inputs": [
        {
          "internalType": "bytes32",
          "name": "role",
          "type": "bytes32"
        },
        {
          "internalType": "address",
          "name": "account",
          "type": "address"
        }
      ],
      "name": "renounceRole",
      "outputs": [],
      "stateMutability": "nonpayable",
      "type": "function"
    },
    {
      "inputs": [
        {
          "internalType": "bytes32",
          "name": "role",
          "type": "bytes32"
        },
        {
          "internalType": "address",
          "name": "account",
          "type": "address"
        }
      ],
      "name": "revokeRole",
      "outputs": [],
      "stateMutability": "nonpayable",
      "type": "function"
    },
    {
      "inputs": [
        {
          "internalType": "address",
          "name": "to",
          "type": "address"
        }
      ],
      "name": "safeMint",
      "outputs": [],
      "stateMutability": "nonpayable",
      "type": "function"
    },
    {
      "inputs": [
        {
          "internalType": "address",
          "name": "from",
          "type": "address"
        },
        {
          "internalType": "address",
          "name": "to",
          "type": "address"
        },
        {
          "internalType": "uint256",
          "name": "tokenId",
          "type": "uint256"
        }
      ],
      "name": "safeTransferFrom",
      "outputs": [],
      "stateMutability": "nonpayable",
      "type": "function"
    },
    {
      "inputs": [
        {
          "internalType": "address",
          "name": "from",
          "type": "address"
        },
        {
          "internalType": "address",
          "name": "to",
          "type": "address"
        },
        {
          "internalType": "uint256",
          "name": "tokenId",
          "type": "uint256"
        },
        {
          "internalType": "bytes",
          "name": "data",
          "type": "bytes"
        }
      ],
      "name": "safeTransferFrom",
      "outputs": [],
      "stateMutability": "nonpayable",
      "type": "function"
    },
    {
      "inputs": [
        {
          "internalType": "address",
          "name": "operator",
          "type": "address"
        },
        {
          "internalType": "bool",
          "name": "approved",
          "type": "bool"
        }
      ],
      "name": "setApprovalForAll",
      "outputs": [],
      "stateMutability": "nonpayable",
      "type": "function"
    },
    {
      "inputs": [
        {
          "internalType": "bytes4",
          "name": "interfaceId",
          "type": "bytes4"
        }
      ],
      "name": "supportsInterface",
      "outputs": [
        {
          "internalType": "bool",
          "name": "",
          "type": "bool"
        }
      ],
      "stateMutability": "view",
      "type": "function"
    },
    {
      "inputs": [],
      "name": "symbol",
      "outputs": [
        {
          "internalType": "string",
          "name": "",
          "type": "string"
        }
      ],
      "stateMutability": "view",
      "type": "function"
    },
    {
      "inputs": [
        {
          "internalType": "uint256",
          "name": "tokenId",
          "type": "uint256"
        }
      ],
      "name": "tokenURI",
      "outputs": [
        {
          "internalType": "string",
          "name": "",
          "type": "string"
        }
      ],
      "stateMutability": "view",
      "type": "function"
    },
    {
      "inputs": [
        {
          "internalType": "address",
          "name": "from",
          "type": "address"
        },
        {
          "internalType": "address",
          "name": "to",
          "type": "address"
        },
        {
          "internalType": "uint256",
          "name": "tokenId",
          "type": "uint256"
        }
      ],
      "name": "transferFrom",
      "outputs": [],
      "stateMutability": "nonpayable",
      "type": "function"
    }
  ],
  "bytecode": "0x60806040523480156200001157600080fd5b506040518060400160405280601781526020017f47656f53747265616d2041697244726f7020546f6b656e0000000000000000008152506040518060400160405280600381526020017f474154000000000000000000000000000000000000000000000000000000000081525081600090816200008f9190620004d0565b508060019081620000a19190620004d0565b505050620000b96000801b33620000f160201b60201c565b620000eb7f9f2df0fed2c77648de5860a4cc508cd0818c85b8b8a1ab4ceeef8d981c8956a633620000f160201b60201c565b620005b7565b620001038282620001e360201b60201c565b620001df5760016006600084815260200190815260200160002060000160008373ffffffffffffffffffffffffffffffffffffffff1673ffffffffffffffffffffffffffffffffffffffff16815260200190815260200160002060006101000a81548160ff021916908315150217905550620001846200024e60201b60201c565b73ffffffffffffffffffffffffffffffffffffffff168173ffffffffffffffffffffffffffffffffffffffff16837f2f8788117e7eff1d82e926ec794901d17c78024a50270940304540a733656f0d60405160405180910390a45b5050565b60006006600084815260200190815260200160002060000160008373ffffffffffffffffffffffffffffffffffffffff1673ffffffffffffffffffffffffffffffffffffffff16815260200190815260200160002060009054906101000a900460ff16905092915050565b600033905090565b600081519050919050565b7f4e487b7100000000000000000000000000000000000000000000000000000000600052604160045260246000fd5b7f4e487b7100000000000000000000000000000000000000000000000000000000600052602260045260246000fd5b60006002820490506001821680620002d857607f821691505b602082108103620002ee57620002ed62000290565b5b50919050565b60008190508160005260206000209050919050565b60006020601f8301049050919050565b600082821b905092915050565b600060088302620003587fffffffffffffffffffffffffffffffffffffffffffffffffffffffffffffffff8262000319565b62000364868362000319565b95508019841693508086168417925050509392505050565b6000819050919050565b6000819050919050565b6000620003b1620003ab620003a5846200037c565b62000386565b6200037c565b9050919050565b6000819050919050565b620003cd8362000390565b620003e5620003dc82620003b8565b84845462000326565b825550505050565b600090565b620003fc620003ed565b62000409818484620003c2565b505050565b5b81811015620004315762000425600082620003f2565b6001810190506200040f565b5050565b601f82111562000480576200044a81620002f4565b620004558462000309565b8101602085101562000465578190505b6200047d620004748562000309565b8301826200040e565b50505b505050565b600082821c905092915050565b6000620004a56000198460080262000485565b1980831691505092915050565b6000620004c0838362000492565b9150826002028217905092915050565b620004db8262000256565b67ffffffffffffffff811115620004f757620004f662000261565b5b620005038254620002bf565b6200051082828562000435565b600060209050601f83116001811462000548576000841562000533578287015190505b6200053f8582620004b2565b865550620005af565b601f1984166200055886620002f4565b60005b8281101562000582578489015182556001820191506020850194506020810190506200055b565b86831015620005a257848901516200059e601f89168262000492565b8355505b6001600288020188555050505b505050505050565b61323180620005c76000396000f3fe608060405234801561001057600080fd5b50600436106101375760003560e01c80636352211e116100b8578063a22cb4651161007c578063a22cb4651461035e578063b88d4fde1461037a578063c87b56dd14610396578063d5391393146103c6578063d547741f146103e4578063e985e9c51461040057610137565b80636352211e1461029257806370a08231146102c257806391d14854146102f257806395d89b4114610322578063a217fddf1461034057610137565b8063248a9ca3116100ff578063248a9ca3146101f25780632f2ff15d1461022257806336568abe1461023e57806340d097c31461025a57806342842e0e1461027657610137565b806301ffc9a71461013c57806306fdde031461016c578063081812fc1461018a578063095ea7b3146101ba57806323b872dd146101d6575b600080fd5b6101566004803603810190610151919061215f565b610430565b60405161016391906121a7565b60405180910390f35b610174610442565b6040516101819190612252565b60405180910390f35b6101a4600480360381019061019f91906122aa565b6104d4565b6040516101b19190612318565b60405180910390f35b6101d460048036038101906101cf919061235f565b61051a565b005b6101f060048036038101906101eb919061239f565b610631565b005b61020c60048036038101906102079190612428565b610691565b6040516102199190612464565b60405180910390f35b61023c6004803603810190610237919061247f565b6106b1565b005b6102586004803603810190610253919061247f565b6106d2565b005b610274600480360381019061026f91906124bf565b610755565b005b610290600480360381019061028b919061239f565b6107a6565b005b6102ac60048036038101906102a791906122aa565b6107c6565b6040516102b99190612318565b60405180910390f35b6102dc60048036038101906102d791906124bf565b61084c565b6040516102e991906124fb565b60405180910390f35b61030c6004803603810190610307919061247f565b610903565b60405161031991906121a7565b60405180910390f35b61032a61096e565b6040516103379190612252565b60405180910390f35b610348610a00565b6040516103559190612464565b60405180910390f35b61037860048036038101906103739190612542565b610a07565b005b610394600480360381019061038f91906126b7565b610a1d565b005b6103b060048036038101906103ab91906122aa565b610a7f565b6040516103bd9190612252565b60405180910390f35b6103ce610ae7565b6040516103db9190612464565b60405180910390f35b6103fe60048036038101906103f9919061247f565b610b0b565b005b61041a6004803603810190610415919061273a565b610b2c565b60405161042791906121a7565b60405180910390f35b600061043b82610bc0565b9050919050565b606060008054610451906127a9565b80601f016020809104026020016040519081016040528092919081815260200182805461047d906127a9565b80156104ca5780601f1061049f576101008083540402835291602001916104ca565b820191906000526020600020905b8154815290600101906020018083116104ad57829003601f168201915b5050505050905090565b60006104df82610c3a565b6004600083815260200190815260200160002060009054906101000a900473ffffffffffffffffffffffffffffffffffffffff169050919050565b6000610525826107c6565b90508073ffffffffffffffffffffffffffffffffffffffff168373ffffffffffffffffffffffffffffffffffffffff1603610595576040517f08c379a000000000000000000000000000000000000000000000000000000000815260040161058c9061284c565b60405180910390fd5b8073ffffffffffffffffffffffffffffffffffffffff166105b4610c85565b73ffffffffffffffffffffffffffffffffffffffff1614806105e357506105e2816105dd610c85565b610b2c565b5b610622576040517f08c379a0000000000000000000000000000000000000000000000000000000008152600401610619906128de565b60405180910390fd5b61062c8383610c8d565b505050565b61064261063c610c85565b82610d46565b610681576040517f08c379a000000000000000000000000000000000000000000000000000000000815260040161067890612970565b60405180910390fd5b61068c838383610ddb565b505050565b600060066000838152602001908152602001600020600101549050919050565b6106ba82610691565b6106c3816110d4565b6106cd83836110e8565b505050565b6106da610c85565b73ffffffffffffffffffffffffffffffffffffffff168173ffffffffffffffffffffffffffffffffffffffff1614610747576040517f08c379a000000000000000000000000000000000000000000000000000000000815260040161073e90612a02565b60405180910390fd5b61075182826111c9565b5050565b7f9f2df0fed2c77648de5860a4cc508cd0818c85b8b8a1ab4ceeef8d981c8956a661077f816110d4565b600061078b60076112ab565b905061079760076112b9565b6107a183826112cf565b505050565b6107c183838360405180602001604052806000815250610a1d565b505050565b6000806107d2836112ed565b9050600073ffffffffffffffffffffffffffffffffffffffff168173ffffffffffffffffffffffffffffffffffffffff1603610843576040517f08c379a000000000000000000000000000000000000000000000000000000000815260040161083a90612a6e565b60405180910390fd5b80915050919050565b60008073ffffffffffffffffffffffffffffffffffffffff168273ffffffffffffffffffffffffffffffffffffffff16036108bc576040517f08c379a00000000000000000000000000000000000000000000000000000000081526004016108b390612b00565b60405180910390fd5b600360008373ffffffffffffffffffffffffffffffffffffffff1673ffffffffffffffffffffffffffffffffffffffff168152602001908152602001600020549050919050565b60006006600084815260200190815260200160002060000160008373ffffffffffffffffffffffffffffffffffffffff1673ffffffffffffffffffffffffffffffffffffffff16815260200190815260200160002060009054906101000a900460ff16905092915050565b60606001805461097d906127a9565b80601f01602080910402602001604051908101604052809291908181526020018280546109a9906127a9565b80156109f65780601f106109cb576101008083540402835291602001916109f6565b820191906000526020600020905b8154815290600101906020018083116109d957829003601f168201915b5050505050905090565b6000801b81565b610a19610a12610c85565b838361132a565b5050565b610a2e610a28610c85565b83610d46565b610a6d576040517f08c379a0000000000000000000000000000000000000000000000000000000008152600401610a6490612970565b60405180910390fd5b610a7984848484611496565b50505050565b6060610a8a82610c3a565b6000610a946114f2565b90506000815111610ab45760405180602001604052806000815250610adf565b80610abe84611509565b604051602001610acf929190612b5c565b6040516020818303038152906040525b915050919050565b7f9f2df0fed2c77648de5860a4cc508cd0818c85b8b8a1ab4ceeef8d981c8956a681565b610b1482610691565b610b1d816110d4565b610b2783836111c9565b505050565b6000600560008473ffffffffffffffffffffffffffffffffffffffff1673ffffffffffffffffffffffffffffffffffffffff16815260200190815260200160002060008373ffffffffffffffffffffffffffffffffffffffff1673ffffffffffffffffffffffffffffffffffffffff16815260200190815260200160002060009054906101000a900460ff16905092915050565b60007f7965db0b000000000000000000000000000000000000000000000000000000007bffffffffffffffffffffffffffffffffffffffffffffffffffffffff1916827bffffffffffffffffffffffffffffffffffffffffffffffffffffffff19161480610c335750610c32826115d7565b5b9050919050565b610c43816116b9565b610c82576040517f08c379a0000000000000000000000000000000000000000000000000000000008152600401610c7990612a6e565b60405180910390fd5b50565b600033905090565b816004600083815260200190815260200160002060006101000a81548173ffffffffffffffffffffffffffffffffffffffff021916908373ffffffffffffffffffffffffffffffffffffffff160217905550808273ffffffffffffffffffffffffffffffffffffffff16610d00836107c6565b73ffffffffffffffffffffffffffffffffffffffff167f8c5be1e5ebec7d5bd14f71427d1e84f3dd0314c0f7b2291e5b200ac8c7c3b92560405160405180910390a45050565b600080610d52836107c6565b90508073ffffffffffffffffffffffffffffffffffffffff168473ffffffffffffffffffffffffffffffffffffffff161480610d945750610d938185610b2c565b5b80610dd257508373ffffffffffffffffffffffffffffffffffffffff16610dba846104d4565b73ffffffffffffffffffffffffffffffffffffffff16145b91505092915050565b8273ffffffffffffffffffffffffffffffffffffffff16610dfb826107c6565b73ffffffffffffffffffffffffffffffffffffffff1614610e51576040517f08c379a0000000000000000000000000000000000000000000000000000000008152600401610e4890612bf2565b60405180910390fd5b600073ffffffffffffffffffffffffffffffffffffffff168273ffffffffffffffffffffffffffffffffffffffff1603610ec0576040517f08c379a0000000000000000000000000000000000000000000000000000000008152600401610eb790612c84565b60405180910390fd5b610ecd83838360016116fa565b8273ffffffffffffffffffffffffffffffffffffffff16610eed826107c6565b73ffffffffffffffffffffffffffffffffffffffff1614610f43576040517f08c379a0000000000000000000000000000000000000000000000000000000008152600401610f3a90612bf2565b60405180910390fd5b6004600082815260200190815260200160002060006101000a81549073ffffffffffffffffffffffffffffffffffffffff02191690556001600360008573ffffffffffffffffffffffffffffffffffffffff1673ffffffffffffffffffffffffffffffffffffffff168152602001908152602001600020600082825403925050819055506001600360008473ffffffffffffffffffffffffffffffffffffffff1673ffffffffffffffffffffffffffffffffffffffff16815260200190815260200160002060008282540192505081905550816002600083815260200190815260200160002060006101000a81548173ffffffffffffffffffffffffffffffffffffffff021916908373ffffffffffffffffffffffffffffffffffffffff160217905550808273ffffffffffffffffffffffffffffffffffffffff168473ffffffffffffffffffffffffffffffffffffffff167fddf252ad1be2c89b69c2b068fc378daa952ba7f163c4a11628f55a4df523b3ef60405160405180910390a46110cf8383836001611820565b505050565b6110e5816110e0610c85565b611826565b50565b6110f28282610903565b6111c55760016006600084815260200190815260200160002060000160008373ffffffffffffffffffffffffffffffffffffffff1673ffffffffffffffffffffffffffffffffffffffff16815260200190815260200160002060006101000a81548160ff02191690831515021790555061116a610c85565b73ffffffffffffffffffffffffffffffffffffffff168173ffffffffffffffffffffffffffffffffffffffff16837f2f8788117e7eff1d82e926ec794901d17c78024a50270940304540a733656f0d60405160405180910390a45b5050565b6111d38282610903565b156112a75760006006600084815260200190815260200160002060000160008373ffffffffffffffffffffffffffffffffffffffff1673ffffffffffffffffffffffffffffffffffffffff16815260200190815260200160002060006101000a81548160ff02191690831515021790555061124c610c85565b73ffffffffffffffffffffffffffffffffffffffff168173ffffffffffffffffffffffffffffffffffffffff16837ff6391f5c32d9c69d2a47ea670b442974b53935d1edc7fd64eb21e047a839171b60405160405180910390a45b5050565b600081600001549050919050565b6001816000016000828254019250508190555050565b6112e98282604051806020016040528060008152506118ab565b5050565b60006002600083815260200190815260200160002060009054906101000a900473ffffffffffffffffffffffffffffffffffffffff169050919050565b8173ffffffffffffffffffffffffffffffffffffffff168373ffffffffffffffffffffffffffffffffffffffff1603611398576040517f08c379a000000000000000000000000000000000000000000000000000000000815260040161138f90612cf0565b60405180910390fd5b80600560008573ffffffffffffffffffffffffffffffffffffffff1673ffffffffffffffffffffffffffffffffffffffff16815260200190815260200160002060008473ffffffffffffffffffffffffffffffffffffffff1673ffffffffffffffffffffffffffffffffffffffff16815260200190815260200160002060006101000a81548160ff0219169083151502179055508173ffffffffffffffffffffffffffffffffffffffff168373ffffffffffffffffffffffffffffffffffffffff167f17307eab39ab6107e8899845ad3d59bd9653f200f220920489ca2b5937696c318360405161148991906121a7565b60405180910390a3505050565b6114a1848484610ddb565b6114ad84848484611906565b6114ec576040517f08c379a00000000000000000000000000000000000000000000000000000000081526004016114e390612d82565b60405180910390fd5b50505050565b606060405180602001604052806000815250905090565b60606000600161151884611a8d565b01905060008167ffffffffffffffff8111156115375761153661258c565b5b6040519080825280601f01601f1916602001820160405280156115695781602001600182028036833780820191505090505b509050600082602001820190505b6001156115cc578080600190039150507f3031323334353637383961626364656600000000000000000000000000000000600a86061a8153600a85816115c0576115bf612da2565b5b04945060008503611577575b819350505050919050565b60007f80ac58cd000000000000000000000000000000000000000000000000000000007bffffffffffffffffffffffffffffffffffffffffffffffffffffffff1916827bffffffffffffffffffffffffffffffffffffffffffffffffffffffff191614806116a257507f5b5e139f000000000000000000000000000000000000000000000000000000007bffffffffffffffffffffffffffffffffffffffffffffffffffffffff1916827bffffffffffffffffffffffffffffffffffffffffffffffffffffffff1916145b806116b257506116b182611be0565b5b9050919050565b60008073ffffffffffffffffffffffffffffffffffffffff166116db836112ed565b73ffffffffffffffffffffffffffffffffffffffff1614159050919050565b600181111561181a57600073ffffffffffffffffffffffffffffffffffffffff168473ffffffffffffffffffffffffffffffffffffffff161461178e5780600360008673ffffffffffffffffffffffffffffffffffffffff1673ffffffffffffffffffffffffffffffffffffffff16815260200190815260200160002060008282546117869190612e00565b925050819055505b600073ffffffffffffffffffffffffffffffffffffffff168373ffffffffffffffffffffffffffffffffffffffff16146118195780600360008573ffffffffffffffffffffffffffffffffffffffff1673ffffffffffffffffffffffffffffffffffffffff16815260200190815260200160002060008282546118119190612e34565b925050819055505b5b50505050565b50505050565b6118308282610903565b6118a75761183d81611c4a565b61184b8360001c6020611c77565b60405160200161185c929190612f00565b6040516020818303038152906040526040517f08c379a000000000000000000000000000000000000000000000000000000000815260040161189e9190612252565b60405180910390fd5b5050565b6118b58383611eb3565b6118c26000848484611906565b611901576040517f08c379a00000000000000000000000000000000000000000000000000000000081526004016118f890612d82565b60405180910390fd5b505050565b60006119278473ffffffffffffffffffffffffffffffffffffffff166120d0565b15611a80578373ffffffffffffffffffffffffffffffffffffffff1663150b7a02611950610c85565b8786866040518563ffffffff1660e01b81526004016119729493929190612f8f565b6020604051808303816000875af19250505080156119ae57506040513d601f19601f820116820180604052508101906119ab9190612ff0565b60015b611a30573d80600081146119de576040519150601f19603f3d011682016040523d82523d6000602084013e6119e3565b606091505b506000815103611a28576040517f08c379a0000000000000000000000000000000000000000000000000000000008152600401611a1f90612d82565b60405180910390fd5b805181602001fd5b63150b7a0260e01b7bffffffffffffffffffffffffffffffffffffffffffffffffffffffff1916817bffffffffffffffffffffffffffffffffffffffffffffffffffffffff191614915050611a85565b600190505b949350505050565b600080600090507a184f03e93ff9f4daa797ed6e38ed64bf6a1f0100000000000000008310611aeb577a184f03e93ff9f4daa797ed6e38ed64bf6a1f0100000000000000008381611ae157611ae0612da2565b5b0492506040810190505b6d04ee2d6d415b85acef81000000008310611b28576d04ee2d6d415b85acef81000000008381611b1e57611b1d612da2565b5b0492506020810190505b662386f26fc100008310611b5757662386f26fc100008381611b4d57611b4c612da2565b5b0492506010810190505b6305f5e1008310611b80576305f5e1008381611b7657611b75612da2565b5b0492506008810190505b6127108310611ba5576127108381611b9b57611b9a612da2565b5b0492506004810190505b60648310611bc85760648381611bbe57611bbd612da2565b5b0492506002810190505b600a8310611bd7576001810190505b80915050919050565b60007f01ffc9a7000000000000000000000000000000000000000000000000000000007bffffffffffffffffffffffffffffffffffffffffffffffffffffffff1916827bffffffffffffffffffffffffffffffffffffffffffffffffffffffff1916149050919050565b6060611c708273ffffffffffffffffffffffffffffffffffffffff16601460ff16611c77565b9050919050565b606060006002836002611c8a919061301d565b611c949190612e34565b67ffffffffffffffff811115611cad57611cac61258c565b5b6040519080825280601f01601f191660200182016040528015611cdf5781602001600182028036833780820191505090505b5090507f300000000000000000000000000000000000000000000000000000000000000081600081518110611d1757611d1661305f565b5b60200101907effffffffffffffffffffffffffffffffffffffffffffffffffffffffffffff1916908160001a9053507f780000000000000000000000000000000000000000000000000000000000000081600181518110611d7b57611d7a61305f565b5b60200101907effffffffffffffffffffffffffffffffffffffffffffffffffffffffffffff1916908160001a90535060006001846002611dbb919061301d565b611dc59190612e34565b90505b6001811115611e65577f3031323334353637383961626364656600000000000000000000000000000000600f861660108110611e0757611e0661305f565b5b1a60f81b828281518110611e1e57611e1d61305f565b5b60200101907effffffffffffffffffffffffffffffffffffffffffffffffffffffffffffff1916908160001a905350600485901c945080611e5e9061308e565b9050611dc8565b5060008414611ea9576040517f08c379a0000000000000000000000000000000000000000000000000000000008152600401611ea090613103565b60405180910390fd5b8091505092915050565b600073ffffffffffffffffffffffffffffffffffffffff168273ffffffffffffffffffffffffffffffffffffffff1603611f22576040517f08c379a0000000000000000000000000000000000000000000000000000000008152600401611f199061316f565b60405180910390fd5b611f2b816116b9565b15611f6b576040517f08c379a0000000000000000000000000000000000000000000000000000000008152600401611f62906131db565b60405180910390fd5b611f796000838360016116fa565b611f82816116b9565b15611fc2576040517f08c379a0000000000000000000000000000000000000000000000000000000008152600401611fb9906131db565b60405180910390fd5b6001600360008473ffffffffffffffffffffffffffffffffffffffff1673ffffffffffffffffffffffffffffffffffffffff16815260200190815260200160002060008282540192505081905550816002600083815260200190815260200160002060006101000a81548173ffffffffffffffffffffffffffffffffffffffff021916908373ffffffffffffffffffffffffffffffffffffffff160217905550808273ffffffffffffffffffffffffffffffffffffffff16600073ffffffffffffffffffffffffffffffffffffffff167fddf252ad1be2c89b69c2b068fc378daa952ba7f163c4a11628f55a4df523b3ef60405160405180910390a46120cc600083836001611820565b5050565b6000808273ffffffffffffffffffffffffffffffffffffffff163b119050919050565b6000604051905090565b600080fd5b600080fd5b60007fffffffff0000000000000000000000000000000000000000000000000000000082169050919050565b61213c81612107565b811461214757600080fd5b50565b60008135905061215981612133565b92915050565b600060208284031215612175576121746120fd565b5b60006121838482850161214a565b91505092915050565b60008115159050919050565b6121a18161218c565b82525050565b60006020820190506121bc6000830184612198565b92915050565b600081519050919050565b600082825260208201905092915050565b60005b838110156121fc5780820151818401526020810190506121e1565b60008484015250505050565b6000601f19601f8301169050919050565b6000612224826121c2565b61222e81856121cd565b935061223e8185602086016121de565b61224781612208565b840191505092915050565b6000602082019050818103600083015261226c8184612219565b905092915050565b6000819050919050565b61228781612274565b811461229257600080fd5b50565b6000813590506122a48161227e565b92915050565b6000602082840312156122c0576122bf6120fd565b5b60006122ce84828501612295565b91505092915050565b600073ffffffffffffffffffffffffffffffffffffffff82169050919050565b6000612302826122d7565b9050919050565b612312816122f7565b82525050565b600060208201905061232d6000830184612309565b92915050565b61233c816122f7565b811461234757600080fd5b50565b60008135905061235981612333565b92915050565b60008060408385031215612376576123756120fd565b5b60006123848582860161234a565b925050602061239585828601612295565b9150509250929050565b6000806000606084860312156123b8576123b76120fd565b5b60006123c68682870161234a565b93505060206123d78682870161234a565b92505060406123e886828701612295565b9150509250925092565b6000819050919050565b612405816123f2565b811461241057600080fd5b50565b600081359050612422816123fc565b92915050565b60006020828403121561243e5761243d6120fd565b5b600061244c84828501612413565b91505092915050565b61245e816123f2565b82525050565b60006020820190506124796000830184612455565b92915050565b60008060408385031215612496576124956120fd565b5b60006124a485828601612413565b92505060206124b58582860161234a565b9150509250929050565b6000602082840312156124d5576124d46120fd565b5b60006124e38482850161234a565b91505092915050565b6124f581612274565b82525050565b600060208201905061251060008301846124ec565b92915050565b61251f8161218c565b811461252a57600080fd5b50565b60008135905061253c81612516565b92915050565b60008060408385031215612559576125586120fd565b5b60006125678582860161234a565b92505060206125788582860161252d565b9150509250929050565b600080fd5b600080fd5b7f4e487b7100000000000000000000000000000000000000000000000000000000600052604160045260246000fd5b6125c482612208565b810181811067ffffffffffffffff821117156125e3576125e261258c565b5b80604052505050565b60006125f66120f3565b905061260282826125bb565b919050565b600067ffffffffffffffff8211156126225761262161258c565b5b61262b82612208565b9050602081019050919050565b82818337600083830152505050565b600061265a61265584612607565b6125ec565b90508281526020810184848401111561267657612675612587565b5b612681848285612638565b509392505050565b600082601f83011261269e5761269d612582565b5b81356126ae848260208601612647565b91505092915050565b600080600080608085870312156126d1576126d06120fd565b5b60006126df8782880161234a565b94505060206126f08782880161234a565b935050604061270187828801612295565b925050606085013567ffffffffffffffff81111561272257612721612102565b5b61272e87828801612689565b91505092959194509250565b60008060408385031215612751576127506120fd565b5b600061275f8582860161234a565b92505060206127708582860161234a565b9150509250929050565b7f4e487b7100000000000000000000000000000000000000000000000000000000600052602260045260246000fd5b600060028204905060018216806127c157607f821691505b6020821081036127d4576127d361277a565b5b50919050565b7f4552433732313a20617070726f76616c20746f2063757272656e74206f776e6560008201527f7200000000000000000000000000000000000000000000000000000000000000602082015250565b60006128366021836121cd565b9150612841826127da565b604082019050919050565b6000602082019050818103600083015261286581612829565b9050919050565b7f4552433732313a20617070726f76652063616c6c6572206973206e6f7420746f60008201527f6b656e206f776e6572206f7220617070726f76656420666f7220616c6c000000602082015250565b60006128c8603d836121cd565b91506128d38261286c565b604082019050919050565b600060208201905081810360008301526128f7816128bb565b9050919050565b7f4552433732313a2063616c6c6572206973206e6f7420746f6b656e206f776e6560008201527f72206f7220617070726f76656400000000000000000000000000000000000000602082015250565b600061295a602d836121cd565b9150612965826128fe565b604082019050919050565b600060208201905081810360008301526129898161294d565b9050919050565b7f416363657373436f6e74726f6c3a2063616e206f6e6c792072656e6f756e636560008201527f20726f6c657320666f722073656c660000000000000000000000000000000000602082015250565b60006129ec602f836121cd565b91506129f782612990565b604082019050919050565b60006020820190508181036000830152612a1b816129df565b9050919050565b7f4552433732313a20696e76616c696420746f6b656e2049440000000000000000600082015250565b6000612a586018836121cd565b9150612a6382612a22565b602082019050919050565b60006020820190508181036000830152612a8781612a4b565b9050919050565b7f4552433732313a2061646472657373207a65726f206973206e6f74206120766160008201527f6c6964206f776e65720000000000000000000000000000000000000000000000602082015250565b6000612aea6029836121cd565b9150612af582612a8e565b604082019050919050565b60006020820190508181036000830152612b1981612add565b9050919050565b600081905092915050565b6000612b36826121c2565b612b408185612b20565b9350612b508185602086016121de565b80840191505092915050565b6000612b688285612b2b565b9150612b748284612b2b565b91508190509392505050565b7f4552433732313a207472616e736665722066726f6d20696e636f72726563742060008201527f6f776e6572000000000000000000000000000000000000000000000000000000602082015250565b6000612bdc6025836121cd565b9150612be782612b80565b604082019050919050565b60006020820190508181036000830152612c0b81612bcf565b9050919050565b7f4552433732313a207472616e7366657220746f20746865207a65726f2061646460008201527f7265737300000000000000000000000000000000000000000000000000000000602082015250565b6000612c6e6024836121cd565b9150612c7982612c12565b604082019050919050565b60006020820190508181036000830152612c9d81612c61565b9050919050565b7f4552433732313a20617070726f766520746f2063616c6c657200000000000000600082015250565b6000612cda6019836121cd565b9150612ce582612ca4565b602082019050919050565b60006020820190508181036000830152612d0981612ccd565b9050919050565b7f4552433732313a207472616e7366657220746f206e6f6e20455243373231526560008201527f63656976657220696d706c656d656e7465720000000000000000000000000000602082015250565b6000612d6c6032836121cd565b9150612d7782612d10565b604082019050919050565b60006020820190508181036000830152612d9b81612d5f565b9050919050565b7f4e487b7100000000000000000000000000000000000000000000000000000000600052601260045260246000fd5b7f4e487b7100000000000000000000000000000000000000000000000000000000600052601160045260246000fd5b6000612e0b82612274565b9150612e1683612274565b9250828203905081811115612e2e57612e2d612dd1565b5b92915050565b6000612e3f82612274565b9150612e4a83612274565b9250828201905080821115612e6257612e61612dd1565b5b92915050565b7f416363657373436f6e74726f6c3a206163636f756e7420000000000000000000600082015250565b6000612e9e601783612b20565b9150612ea982612e68565b601782019050919050565b7f206973206d697373696e6720726f6c6520000000000000000000000000000000600082015250565b6000612eea601183612b20565b9150612ef582612eb4565b601182019050919050565b6000612f0b82612e91565b9150612f178285612b2b565b9150612f2282612edd565b9150612f2e8284612b2b565b91508190509392505050565b600081519050919050565b600082825260208201905092915050565b6000612f6182612f3a565b612f6b8185612f45565b9350612f7b8185602086016121de565b612f8481612208565b840191505092915050565b6000608082019050612fa46000830187612309565b612fb16020830186612309565b612fbe60408301856124ec565b8181036060830152612fd08184612f56565b905095945050505050565b600081519050612fea81612133565b92915050565b600060208284031215613006576130056120fd565b5b600061301484828501612fdb565b91505092915050565b600061302882612274565b915061303383612274565b925082820261304181612274565b9150828204841483151761305857613057612dd1565b5b5092915050565b7f4e487b7100000000000000000000000000000000000000000000000000000000600052603260045260246000fd5b600061309982612274565b9150600082036130ac576130ab612dd1565b5b600182039050919050565b7f537472696e67733a20686578206c656e67746820696e73756666696369656e74600082015250565b60006130ed6020836121cd565b91506130f8826130b7565b602082019050919050565b6000602082019050818103600083015261311c816130e0565b9050919050565b7f4552433732313a206d696e7420746f20746865207a65726f2061646472657373600082015250565b60006131596020836121cd565b915061316482613123565b602082019050919050565b600060208201905081810360008301526131888161314c565b9050919050565b7f4552433732313a20746f6b656e20616c7265616479206d696e74656400000000600082015250565b60006131c5601c836121cd565b91506131d08261318f565b602082019050919050565b600060208201905081810360008301526131f4816131b8565b905091905056fea2646970667358221220270f0e50da2fbc7e8e385bb3054902cb2f414ad640543c3fdb01f54a2d5dbd3864736f6c63430008110033",
  "linkReferences": {},
  "deployedLinkReferences": {}
}