{
  "address": "0xeC880EF184de36055B8a9b64A818E380b50343D8",
  "abi": [
    {
      "inputs": [],
      "stateMutability": "nonpayable",
      "type": "constructor"
    },
    {
      "anonymous": false,
      "inputs": [
        {
          "indexed": true,
          "internalType": "address",
          "name": "owner",
          "type": "address"
        },
        {
          "indexed": true,
          "internalType": "address",
          "name": "approved",
          "type": "address"
        },
        {
          "indexed": true,
          "internalType": "uint256",
          "name": "tokenId",
          "type": "uint256"
        }
      ],
      "name": "Approval",
      "type": "event"
    },
    {
      "anonymous": false,
      "inputs": [
        {
          "indexed": true,
          "internalType": "address",
          "name": "owner",
          "type": "address"
        },
        {
          "indexed": true,
          "internalType": "address",
          "name": "operator",
          "type": "address"
        },
        {
          "indexed": false,
          "internalType": "bool",
          "name": "approved",
          "type": "bool"
        }
      ],
      "name": "ApprovalForAll",
      "type": "event"
    },
    {
      "anonymous": false,
      "inputs": [
        {
          "indexed": true,
          "internalType": "bytes32",
          "name": "role",
          "type": "bytes32"
        },
        {
          "indexed": true,
          "internalType": "bytes32",
          "name": "previousAdminRole",
          "type": "bytes32"
        },
        {
          "indexed": true,
          "internalType": "bytes32",
          "name": "newAdminRole",
          "type": "bytes32"
        }
      ],
      "name": "RoleAdminChanged",
      "type": "event"
    },
    {
      "anonymous": false,
      "inputs": [
        {
          "indexed": true,
          "internalType": "bytes32",
          "name": "role",
          "type": "bytes32"
        },
        {
          "indexed": true,
          "internalType": "address",
          "name": "account",
          "type": "address"
        },
        {
          "indexed": true,
          "internalType": "address",
          "name": "sender",
          "type": "address"
        }
      ],
      "name": "RoleGranted",
      "type": "event"
    },
    {
      "anonymous": false,
      "inputs": [
        {
          "indexed": true,
          "internalType": "bytes32",
          "name": "role",
          "type": "bytes32"
        },
        {
          "indexed": true,
          "internalType": "address",
          "name": "account",
          "type": "address"
        },
        {
          "indexed": true,
          "internalType": "address",
          "name": "sender",
          "type": "address"
        }
      ],
      "name": "RoleRevoked",
      "type": "event"
    },
    {
      "anonymous": false,
      "inputs": [
        {
          "indexed": true,
          "internalType": "address",
          "name": "from",
          "type": "address"
        },
        {
          "indexed": true,
          "internalType": "address",
          "name": "to",
          "type": "address"
        },
        {
          "indexed": true,
          "internalType": "uint256",
          "name": "tokenId",
          "type": "uint256"
        }
      ],
      "name": "Transfer",
      "type": "event"
    },
    {
      "inputs": [],
      "name": "DEFAULT_ADMIN_ROLE",
      "outputs": [
        {
          "internalType": "bytes32",
          "name": "",
          "type": "bytes32"
        }
      ],
      "stateMutability": "view",
      "type": "function"
    },
    {
      "inputs": [],
      "name": "MINTER_ROLE",
      "outputs": [
        {
          "internalType": "bytes32",
          "name": "",
          "type": "bytes32"
        }
      ],
      "stateMutability": "view",
      "type": "function"
    },
    {
      "inputs": [
        {
          "internalType": "address",
          "name": "to",
          "type": "address"
        },
        {
          "internalType": "uint256",
          "name": "tokenId",
          "type": "uint256"
        }
      ],
      "name": "approve",
      "outputs": [],
      "stateMutability": "nonpayable",
      "type": "function"
    },
    {
      "inputs": [
        {
          "internalType": "address",
          "name": "owner",
          "type": "address"
        }
      ],
      "name": "balanceOf",
      "outputs": [
        {
          "internalType": "uint256",
          "name": "",
          "type": "uint256"
        }
      ],
      "stateMutability": "view",
      "type": "function"
    },
    {
      "inputs": [
        {
          "internalType": "uint256",
          "name": "tokenId",
          "type": "uint256"
        }
      ],
      "name": "getApproved",
      "outputs": [
        {
          "internalType": "address",
          "name": "",
          "type": "address"
        }
      ],
      "stateMutability": "view",
      "type": "function"
    },
    {
      "inputs": [
        {
          "internalType": "bytes32",
          "name": "role",
          "type": "bytes32"
        }
      ],
      "name": "getRoleAdmin",
      "outputs": [
        {
          "internalType": "bytes32",
          "name": "",
          "type": "bytes32"
        }
      ],
      "stateMutability": "view",
      "type": "function"
    },
    {
      "inputs": [
        {
          "internalType": "bytes32",
          "name": "role",
          "type": "bytes32"
        },
        {
          "internalType": "address",
          "name": "account",
          "type": "address"
        }
      ],
      "name": "grantRole",
      "outputs": [],
      "stateMutability": "nonpayable",
      "type": "function"
    },
    {
      "inputs": [
        {
          "internalType": "bytes32",
          "name": "role",
          "type": "bytes32"
        },
        {
          "internalType": "address",
          "name": "account",
          "type": "address"
        }
      ],
      "name": "hasRole",
      "outputs": [
        {
          "internalType": "bool",
          "name": "",
          "type": "bool"
        }
      ],
      "stateMutability": "view",
      "type": "function"
    },
    {
      "inputs": [
        {
          "internalType": "address",
          "name": "owner",
          "type": "address"
        },
        {
          "internalType": "address",
          "name": "operator",
          "type": "address"
        }
      ],
      "name": "isApprovedForAll",
      "outputs": [
        {
          "internalType": "bool",
          "name": "",
          "type": "bool"
        }
      ],
      "stateMutability": "view",
      "type": "function"
    },
    {
      "inputs": [],
      "name": "name",
      "outputs": [
        {
          "internalType": "string",
          "name": "",
          "type": "string"
        }
      ],
      "stateMutability": "view",
      "type": "function"
    },
    {
      "inputs": [
        {
          "internalType": "uint256",
          "name": "tokenId",
          "type": "uint256"
        }
      ],
      "name": "ownerOf",
      "outputs": [
        {
          "internalType": "address",
          "name": "",
          "type": "address"
        }
      ],
      "stateMutability": "view",
      "type": "function"
    },
    {
      "inputs": [
        {
          "internalType": "bytes32",
          "name": "role",
          "type": "bytes32"
        },
        {
          "internalType": "address",
          "name": "account",
          "type": "address"
        }
      ],
      "name": "renounceRole",
      "outputs": [],
      "stateMutability": "nonpayable",
      "type": "function"
    },
    {
      "inputs": [
        {
          "internalType": "bytes32",
          "name": "role",
          "type": "bytes32"
        },
        {
          "internalType": "address",
          "name": "account",
          "type": "address"
        }
      ],
      "name": "revokeRole",
      "outputs": [],
      "stateMutability": "nonpayable",
      "type": "function"
    },
    {
      "inputs": [
        {
          "internalType": "address",
          "name": "to",
          "type": "address"
        }
      ],
      "name": "safeMint",
      "outputs": [],
      "stateMutability": "nonpayable",
      "type": "function"
    },
    {
      "inputs": [
        {
          "internalType": "address",
          "name": "from",
          "type": "address"
        },
        {
          "internalType": "address",
          "name": "to",
          "type": "address"
        },
        {
          "internalType": "uint256",
          "name": "tokenId",
          "type": "uint256"
        }
      ],
      "name": "safeTransferFrom",
      "outputs": [],
      "stateMutability": "nonpayable",
      "type": "function"
    },
    {
      "inputs": [
        {
          "internalType": "address",
          "name": "from",
          "type": "address"
        },
        {
          "internalType": "address",
          "name": "to",
          "type": "address"
        },
        {
          "internalType": "uint256",
          "name": "tokenId",
          "type": "uint256"
        },
        {
          "internalType": "bytes",
          "name": "data",
          "type": "bytes"
        }
      ],
      "name": "safeTransferFrom",
      "outputs": [],
      "stateMutability": "nonpayable",
      "type": "function"
    },
    {
      "inputs": [
        {
          "internalType": "address",
          "name": "operator",
          "type": "address"
        },
        {
          "internalType": "bool",
          "name": "approved",
          "type": "bool"
        }
      ],
      "name": "setApprovalForAll",
      "outputs": [],
      "stateMutability": "nonpayable",
      "type": "function"
    },
    {
      "inputs": [
        {
          "internalType": "bytes4",
          "name": "interfaceId",
          "type": "bytes4"
        }
      ],
      "name": "supportsInterface",
      "outputs": [
        {
          "internalType": "bool",
          "name": "",
          "type": "bool"
        }
      ],
      "stateMutability": "view",
      "type": "function"
    },
    {
      "inputs": [],
      "name": "symbol",
      "outputs": [
        {
          "internalType": "string",
          "name": "",
          "type": "string"
        }
      ],
      "stateMutability": "view",
      "type": "function"
    },
    {
      "inputs": [
        {
          "internalType": "uint256",
          "name": "tokenId",
          "type": "uint256"
        }
      ],
      "name": "tokenURI",
      "outputs": [
        {
          "internalType": "string",
          "name": "",
          "type": "string"
        }
      ],
      "stateMutability": "view",
      "type": "function"
    },
    {
      "inputs": [
        {
          "internalType": "address",
          "name": "from",
          "type": "address"
        },
        {
          "internalType": "address",
          "name": "to",
          "type": "address"
        },
        {
          "internalType": "uint256",
          "name": "tokenId",
          "type": "uint256"
        }
      ],
      "name": "transferFrom",
      "outputs": [],
      "stateMutability": "nonpayable",
      "type": "function"
    }
  ],
  "transactionHash": "0x476bc591894e7f9e6307f6c608ef8179418b46f25c9098a5199c6ab9945aa85e",
  "args": [],
  "numDeployments": 1,
  "solcInputHash": "dc8dd4c65d69579e4726a80a7f769acb",
  "bytecode": "0x60806040523480156200001157600080fd5b506040518060400160405280601781526020017f47656f53747265616d2041697244726f7020546f6b656e0000000000000000008152506040518060400160405280600381526020017f474154000000000000000000000000000000000000000000000000000000000081525081600090816200008f9190620004d0565b508060019081620000a19190620004d0565b505050620000b96000801b33620000f160201b60201c565b620000eb7f9f2df0fed2c77648de5860a4cc508cd0818c85b8b8a1ab4ceeef8d981c8956a633620000f160201b60201c565b620005b7565b620001038282620001e360201b60201c565b620001df5760016006600084815260200190815260200160002060000160008373ffffffffffffffffffffffffffffffffffffffff1673ffffffffffffffffffffffffffffffffffffffff16815260200190815260200160002060006101000a81548160ff021916908315150217905550620001846200024e60201b60201c565b73ffffffffffffffffffffffffffffffffffffffff168173ffffffffffffffffffffffffffffffffffffffff16837f2f8788117e7eff1d82e926ec794901d17c78024a50270940304540a733656f0d60405160405180910390a45b5050565b60006006600084815260200190815260200160002060000160008373ffffffffffffffffffffffffffffffffffffffff1673ffffffffffffffffffffffffffffffffffffffff16815260200190815260200160002060009054906101000a900460ff16905092915050565b600033905090565b600081519050919050565b7f4e487b7100000000000000000000000000000000000000000000000000000000600052604160045260246000fd5b7f4e487b7100000000000000000000000000000000000000000000000000000000600052602260045260246000fd5b60006002820490506001821680620002d857607f821691505b602082108103620002ee57620002ed62000290565b5b50919050565b60008190508160005260206000209050919050565b60006020601f8301049050919050565b600082821b905092915050565b600060088302620003587fffffffffffffffffffffffffffffffffffffffffffffffffffffffffffffffff8262000319565b62000364868362000319565b95508019841693508086168417925050509392505050565b6000819050919050565b6000819050919050565b6000620003b1620003ab620003a5846200037c565b62000386565b6200037c565b9050919050565b6000819050919050565b620003cd8362000390565b620003e5620003dc82620003b8565b84845462000326565b825550505050565b600090565b620003fc620003ed565b62000409818484620003c2565b505050565b5b81811015620004315762000425600082620003f2565b6001810190506200040f565b5050565b601f82111562000480576200044a81620002f4565b620004558462000309565b8101602085101562000465578190505b6200047d620004748562000309565b8301826200040e565b50505b505050565b600082821c905092915050565b6000620004a56000198460080262000485565b1980831691505092915050565b6000620004c0838362000492565b9150826002028217905092915050565b620004db8262000256565b67ffffffffffffffff811115620004f757620004f662000261565b5b620005038254620002bf565b6200051082828562000435565b600060209050601f83116001811462000548576000841562000533578287015190505b6200053f8582620004b2565b865550620005af565b601f1984166200055886620002f4565b60005b8281101562000582578489015182556001820191506020850194506020810190506200055b565b86831015620005a257848901516200059e601f89168262000492565b8355505b6001600288020188555050505b505050505050565b61320680620005c76000396000f3fe608060405234801561001057600080fd5b50600436106101375760003560e01c80636352211e116100b8578063a22cb4651161007c578063a22cb4651461035e578063b88d4fde1461037a578063c87b56dd14610396578063d5391393146103c6578063d547741f146103e4578063e985e9c51461040057610137565b80636352211e1461029257806370a08231146102c257806391d14854146102f257806395d89b4114610322578063a217fddf1461034057610137565b8063248a9ca3116100ff578063248a9ca3146101f25780632f2ff15d1461022257806336568abe1461023e57806340d097c31461025a57806342842e0e1461027657610137565b806301ffc9a71461013c57806306fdde031461016c578063081812fc1461018a578063095ea7b3146101ba57806323b872dd146101d6575b600080fd5b61015660048036038101906101519190612134565b610430565b604051610163919061217c565b60405180910390f35b610174610442565b6040516101819190612227565b60405180910390f35b6101a4600480360381019061019f919061227f565b6104d4565b6040516101b191906122ed565b60405180910390f35b6101d460048036038101906101cf9190612334565b61051a565b005b6101f060048036038101906101eb9190612374565b610631565b005b61020c600480360381019061020791906123fd565b610691565b6040516102199190612439565b60405180910390f35b61023c60048036038101906102379190612454565b6106b1565b005b61025860048036038101906102539190612454565b6106d2565b005b610274600480360381019061026f9190612494565b610755565b005b610290600480360381019061028b9190612374565b61077b565b005b6102ac60048036038101906102a7919061227f565b61079b565b6040516102b991906122ed565b60405180910390f35b6102dc60048036038101906102d79190612494565b610821565b6040516102e991906124d0565b60405180910390f35b61030c60048036038101906103079190612454565b6108d8565b604051610319919061217c565b60405180910390f35b61032a610943565b6040516103379190612227565b60405180910390f35b6103486109d5565b6040516103559190612439565b60405180910390f35b61037860048036038101906103739190612517565b6109dc565b005b610394600480360381019061038f919061268c565b6109f2565b005b6103b060048036038101906103ab919061227f565b610a54565b6040516103bd9190612227565b60405180910390f35b6103ce610abc565b6040516103db9190612439565b60405180910390f35b6103fe60048036038101906103f99190612454565b610ae0565b005b61041a6004803603810190610415919061270f565b610b01565b604051610427919061217c565b60405180910390f35b600061043b82610b95565b9050919050565b6060600080546104519061277e565b80601f016020809104026020016040519081016040528092919081815260200182805461047d9061277e565b80156104ca5780601f1061049f576101008083540402835291602001916104ca565b820191906000526020600020905b8154815290600101906020018083116104ad57829003601f168201915b5050505050905090565b60006104df82610c0f565b6004600083815260200190815260200160002060009054906101000a900473ffffffffffffffffffffffffffffffffffffffff169050919050565b60006105258261079b565b90508073ffffffffffffffffffffffffffffffffffffffff168373ffffffffffffffffffffffffffffffffffffffff1603610595576040517f08c379a000000000000000000000000000000000000000000000000000000000815260040161058c90612821565b60405180910390fd5b8073ffffffffffffffffffffffffffffffffffffffff166105b4610c5a565b73ffffffffffffffffffffffffffffffffffffffff1614806105e357506105e2816105dd610c5a565b610b01565b5b610622576040517f08c379a0000000000000000000000000000000000000000000000000000000008152600401610619906128b3565b60405180910390fd5b61062c8383610c62565b505050565b61064261063c610c5a565b82610d1b565b610681576040517f08c379a000000000000000000000000000000000000000000000000000000000815260040161067890612945565b60405180910390fd5b61068c838383610db0565b505050565b600060066000838152602001908152602001600020600101549050919050565b6106ba82610691565b6106c3816110a9565b6106cd83836110bd565b505050565b6106da610c5a565b73ffffffffffffffffffffffffffffffffffffffff168173ffffffffffffffffffffffffffffffffffffffff1614610747576040517f08c379a000000000000000000000000000000000000000000000000000000000815260040161073e906129d7565b60405180910390fd5b610751828261119e565b5050565b60006107616007611280565b905061076d600761128e565b61077782826112a4565b5050565b610796838383604051806020016040528060008152506109f2565b505050565b6000806107a7836112c2565b9050600073ffffffffffffffffffffffffffffffffffffffff168173ffffffffffffffffffffffffffffffffffffffff1603610818576040517f08c379a000000000000000000000000000000000000000000000000000000000815260040161080f90612a43565b60405180910390fd5b80915050919050565b60008073ffffffffffffffffffffffffffffffffffffffff168273ffffffffffffffffffffffffffffffffffffffff1603610891576040517f08c379a000000000000000000000000000000000000000000000000000000000815260040161088890612ad5565b60405180910390fd5b600360008373ffffffffffffffffffffffffffffffffffffffff1673ffffffffffffffffffffffffffffffffffffffff168152602001908152602001600020549050919050565b60006006600084815260200190815260200160002060000160008373ffffffffffffffffffffffffffffffffffffffff1673ffffffffffffffffffffffffffffffffffffffff16815260200190815260200160002060009054906101000a900460ff16905092915050565b6060600180546109529061277e565b80601f016020809104026020016040519081016040528092919081815260200182805461097e9061277e565b80156109cb5780601f106109a0576101008083540402835291602001916109cb565b820191906000526020600020905b8154815290600101906020018083116109ae57829003601f168201915b5050505050905090565b6000801b81565b6109ee6109e7610c5a565b83836112ff565b5050565b610a036109fd610c5a565b83610d1b565b610a42576040517f08c379a0000000000000000000000000000000000000000000000000000000008152600401610a3990612945565b60405180910390fd5b610a4e8484848461146b565b50505050565b6060610a5f82610c0f565b6000610a696114c7565b90506000815111610a895760405180602001604052806000815250610ab4565b80610a93846114de565b604051602001610aa4929190612b31565b6040516020818303038152906040525b915050919050565b7f9f2df0fed2c77648de5860a4cc508cd0818c85b8b8a1ab4ceeef8d981c8956a681565b610ae982610691565b610af2816110a9565b610afc838361119e565b505050565b6000600560008473ffffffffffffffffffffffffffffffffffffffff1673ffffffffffffffffffffffffffffffffffffffff16815260200190815260200160002060008373ffffffffffffffffffffffffffffffffffffffff1673ffffffffffffffffffffffffffffffffffffffff16815260200190815260200160002060009054906101000a900460ff16905092915050565b60007f7965db0b000000000000000000000000000000000000000000000000000000007bffffffffffffffffffffffffffffffffffffffffffffffffffffffff1916827bffffffffffffffffffffffffffffffffffffffffffffffffffffffff19161480610c085750610c07826115ac565b5b9050919050565b610c188161168e565b610c57576040517f08c379a0000000000000000000000000000000000000000000000000000000008152600401610c4e90612a43565b60405180910390fd5b50565b600033905090565b816004600083815260200190815260200160002060006101000a81548173ffffffffffffffffffffffffffffffffffffffff021916908373ffffffffffffffffffffffffffffffffffffffff160217905550808273ffffffffffffffffffffffffffffffffffffffff16610cd58361079b565b73ffffffffffffffffffffffffffffffffffffffff167f8c5be1e5ebec7d5bd14f71427d1e84f3dd0314c0f7b2291e5b200ac8c7c3b92560405160405180910390a45050565b600080610d278361079b565b90508073ffffffffffffffffffffffffffffffffffffffff168473ffffffffffffffffffffffffffffffffffffffff161480610d695750610d688185610b01565b5b80610da757508373ffffffffffffffffffffffffffffffffffffffff16610d8f846104d4565b73ffffffffffffffffffffffffffffffffffffffff16145b91505092915050565b8273ffffffffffffffffffffffffffffffffffffffff16610dd08261079b565b73ffffffffffffffffffffffffffffffffffffffff1614610e26576040517f08c379a0000000000000000000000000000000000000000000000000000000008152600401610e1d90612bc7565b60405180910390fd5b600073ffffffffffffffffffffffffffffffffffffffff168273ffffffffffffffffffffffffffffffffffffffff1603610e95576040517f08c379a0000000000000000000000000000000000000000000000000000000008152600401610e8c90612c59565b60405180910390fd5b610ea283838360016116cf565b8273ffffffffffffffffffffffffffffffffffffffff16610ec28261079b565b73ffffffffffffffffffffffffffffffffffffffff1614610f18576040517f08c379a0000000000000000000000000000000000000000000000000000000008152600401610f0f90612bc7565b60405180910390fd5b6004600082815260200190815260200160002060006101000a81549073ffffffffffffffffffffffffffffffffffffffff02191690556001600360008573ffffffffffffffffffffffffffffffffffffffff1673ffffffffffffffffffffffffffffffffffffffff168152602001908152602001600020600082825403925050819055506001600360008473ffffffffffffffffffffffffffffffffffffffff1673ffffffffffffffffffffffffffffffffffffffff16815260200190815260200160002060008282540192505081905550816002600083815260200190815260200160002060006101000a81548173ffffffffffffffffffffffffffffffffffffffff021916908373ffffffffffffffffffffffffffffffffffffffff160217905550808273ffffffffffffffffffffffffffffffffffffffff168473ffffffffffffffffffffffffffffffffffffffff167fddf252ad1be2c89b69c2b068fc378daa952ba7f163c4a11628f55a4df523b3ef60405160405180910390a46110a483838360016117f5565b505050565b6110ba816110b5610c5a565b6117fb565b50565b6110c782826108d8565b61119a5760016006600084815260200190815260200160002060000160008373ffffffffffffffffffffffffffffffffffffffff1673ffffffffffffffffffffffffffffffffffffffff16815260200190815260200160002060006101000a81548160ff02191690831515021790555061113f610c5a565b73ffffffffffffffffffffffffffffffffffffffff168173ffffffffffffffffffffffffffffffffffffffff16837f2f8788117e7eff1d82e926ec794901d17c78024a50270940304540a733656f0d60405160405180910390a45b5050565b6111a882826108d8565b1561127c5760006006600084815260200190815260200160002060000160008373ffffffffffffffffffffffffffffffffffffffff1673ffffffffffffffffffffffffffffffffffffffff16815260200190815260200160002060006101000a81548160ff021916908315150217905550611221610c5a565b73ffffffffffffffffffffffffffffffffffffffff168173ffffffffffffffffffffffffffffffffffffffff16837ff6391f5c32d9c69d2a47ea670b442974b53935d1edc7fd64eb21e047a839171b60405160405180910390a45b5050565b600081600001549050919050565b6001816000016000828254019250508190555050565b6112be828260405180602001604052806000815250611880565b5050565b60006002600083815260200190815260200160002060009054906101000a900473ffffffffffffffffffffffffffffffffffffffff169050919050565b8173ffffffffffffffffffffffffffffffffffffffff168373ffffffffffffffffffffffffffffffffffffffff160361136d576040517f08c379a000000000000000000000000000000000000000000000000000000000815260040161136490612cc5565b60405180910390fd5b80600560008573ffffffffffffffffffffffffffffffffffffffff1673ffffffffffffffffffffffffffffffffffffffff16815260200190815260200160002060008473ffffffffffffffffffffffffffffffffffffffff1673ffffffffffffffffffffffffffffffffffffffff16815260200190815260200160002060006101000a81548160ff0219169083151502179055508173ffffffffffffffffffffffffffffffffffffffff168373ffffffffffffffffffffffffffffffffffffffff167f17307eab39ab6107e8899845ad3d59bd9653f200f220920489ca2b5937696c318360405161145e919061217c565b60405180910390a3505050565b611476848484610db0565b611482848484846118db565b6114c1576040517f08c379a00000000000000000000000000000000000000000000000000000000081526004016114b890612d57565b60405180910390fd5b50505050565b606060405180602001604052806000815250905090565b6060600060016114ed84611a62565b01905060008167ffffffffffffffff81111561150c5761150b612561565b5b6040519080825280601f01601f19166020018201604052801561153e5781602001600182028036833780820191505090505b509050600082602001820190505b6001156115a1578080600190039150507f3031323334353637383961626364656600000000000000000000000000000000600a86061a8153600a858161159557611594612d77565b5b0494506000850361154c575b819350505050919050565b60007f80ac58cd000000000000000000000000000000000000000000000000000000007bffffffffffffffffffffffffffffffffffffffffffffffffffffffff1916827bffffffffffffffffffffffffffffffffffffffffffffffffffffffff1916148061167757507f5b5e139f000000000000000000000000000000000000000000000000000000007bffffffffffffffffffffffffffffffffffffffffffffffffffffffff1916827bffffffffffffffffffffffffffffffffffffffffffffffffffffffff1916145b80611687575061168682611bb5565b5b9050919050565b60008073ffffffffffffffffffffffffffffffffffffffff166116b0836112c2565b73ffffffffffffffffffffffffffffffffffffffff1614159050919050565b60018111156117ef57600073ffffffffffffffffffffffffffffffffffffffff168473ffffffffffffffffffffffffffffffffffffffff16146117635780600360008673ffffffffffffffffffffffffffffffffffffffff1673ffffffffffffffffffffffffffffffffffffffff168152602001908152602001600020600082825461175b9190612dd5565b925050819055505b600073ffffffffffffffffffffffffffffffffffffffff168373ffffffffffffffffffffffffffffffffffffffff16146117ee5780600360008573ffffffffffffffffffffffffffffffffffffffff1673ffffffffffffffffffffffffffffffffffffffff16815260200190815260200160002060008282546117e69190612e09565b925050819055505b5b50505050565b50505050565b61180582826108d8565b61187c5761181281611c1f565b6118208360001c6020611c4c565b604051602001611831929190612ed5565b6040516020818303038152906040526040517f08c379a00000000000000000000000000000000000000000000000000000000081526004016118739190612227565b60405180910390fd5b5050565b61188a8383611e88565b61189760008484846118db565b6118d6576040517f08c379a00000000000000000000000000000000000000000000000000000000081526004016118cd90612d57565b60405180910390fd5b505050565b60006118fc8473ffffffffffffffffffffffffffffffffffffffff166120a5565b15611a55578373ffffffffffffffffffffffffffffffffffffffff1663150b7a02611925610c5a565b8786866040518563ffffffff1660e01b81526004016119479493929190612f64565b6020604051808303816000875af192505050801561198357506040513d601f19601f820116820180604052508101906119809190612fc5565b60015b611a05573d80600081146119b3576040519150601f19603f3d011682016040523d82523d6000602084013e6119b8565b606091505b5060008151036119fd576040517f08c379a00000000000000000000000000000000000000000000000000000000081526004016119f490612d57565b60405180910390fd5b805181602001fd5b63150b7a0260e01b7bffffffffffffffffffffffffffffffffffffffffffffffffffffffff1916817bffffffffffffffffffffffffffffffffffffffffffffffffffffffff191614915050611a5a565b600190505b949350505050565b600080600090507a184f03e93ff9f4daa797ed6e38ed64bf6a1f0100000000000000008310611ac0577a184f03e93ff9f4daa797ed6e38ed64bf6a1f0100000000000000008381611ab657611ab5612d77565b5b0492506040810190505b6d04ee2d6d415b85acef81000000008310611afd576d04ee2d6d415b85acef81000000008381611af357611af2612d77565b5b0492506020810190505b662386f26fc100008310611b2c57662386f26fc100008381611b2257611b21612d77565b5b0492506010810190505b6305f5e1008310611b55576305f5e1008381611b4b57611b4a612d77565b5b0492506008810190505b6127108310611b7a576127108381611b7057611b6f612d77565b5b0492506004810190505b60648310611b9d5760648381611b9357611b92612d77565b5b0492506002810190505b600a8310611bac576001810190505b80915050919050565b60007f01ffc9a7000000000000000000000000000000000000000000000000000000007bffffffffffffffffffffffffffffffffffffffffffffffffffffffff1916827bffffffffffffffffffffffffffffffffffffffffffffffffffffffff1916149050919050565b6060611c458273ffffffffffffffffffffffffffffffffffffffff16601460ff16611c4c565b9050919050565b606060006002836002611c5f9190612ff2565b611c699190612e09565b67ffffffffffffffff811115611c8257611c81612561565b5b6040519080825280601f01601f191660200182016040528015611cb45781602001600182028036833780820191505090505b5090507f300000000000000000000000000000000000000000000000000000000000000081600081518110611cec57611ceb613034565b5b60200101907effffffffffffffffffffffffffffffffffffffffffffffffffffffffffffff1916908160001a9053507f780000000000000000000000000000000000000000000000000000000000000081600181518110611d5057611d4f613034565b5b60200101907effffffffffffffffffffffffffffffffffffffffffffffffffffffffffffff1916908160001a90535060006001846002611d909190612ff2565b611d9a9190612e09565b90505b6001811115611e3a577f3031323334353637383961626364656600000000000000000000000000000000600f861660108110611ddc57611ddb613034565b5b1a60f81b828281518110611df357611df2613034565b5b60200101907effffffffffffffffffffffffffffffffffffffffffffffffffffffffffffff1916908160001a905350600485901c945080611e3390613063565b9050611d9d565b5060008414611e7e576040517f08c379a0000000000000000000000000000000000000000000000000000000008152600401611e75906130d8565b60405180910390fd5b8091505092915050565b600073ffffffffffffffffffffffffffffffffffffffff168273ffffffffffffffffffffffffffffffffffffffff1603611ef7576040517f08c379a0000000000000000000000000000000000000000000000000000000008152600401611eee90613144565b60405180910390fd5b611f008161168e565b15611f40576040517f08c379a0000000000000000000000000000000000000000000000000000000008152600401611f37906131b0565b60405180910390fd5b611f4e6000838360016116cf565b611f578161168e565b15611f97576040517f08c379a0000000000000000000000000000000000000000000000000000000008152600401611f8e906131b0565b60405180910390fd5b6001600360008473ffffffffffffffffffffffffffffffffffffffff1673ffffffffffffffffffffffffffffffffffffffff16815260200190815260200160002060008282540192505081905550816002600083815260200190815260200160002060006101000a81548173ffffffffffffffffffffffffffffffffffffffff021916908373ffffffffffffffffffffffffffffffffffffffff160217905550808273ffffffffffffffffffffffffffffffffffffffff16600073ffffffffffffffffffffffffffffffffffffffff167fddf252ad1be2c89b69c2b068fc378daa952ba7f163c4a11628f55a4df523b3ef60405160405180910390a46120a16000838360016117f5565b5050565b6000808273ffffffffffffffffffffffffffffffffffffffff163b119050919050565b6000604051905090565b600080fd5b600080fd5b60007fffffffff0000000000000000000000000000000000000000000000000000000082169050919050565b612111816120dc565b811461211c57600080fd5b50565b60008135905061212e81612108565b92915050565b60006020828403121561214a576121496120d2565b5b60006121588482850161211f565b91505092915050565b60008115159050919050565b61217681612161565b82525050565b6000602082019050612191600083018461216d565b92915050565b600081519050919050565b600082825260208201905092915050565b60005b838110156121d15780820151818401526020810190506121b6565b60008484015250505050565b6000601f19601f8301169050919050565b60006121f982612197565b61220381856121a2565b93506122138185602086016121b3565b61221c816121dd565b840191505092915050565b6000602082019050818103600083015261224181846121ee565b905092915050565b6000819050919050565b61225c81612249565b811461226757600080fd5b50565b60008135905061227981612253565b92915050565b600060208284031215612295576122946120d2565b5b60006122a38482850161226a565b91505092915050565b600073ffffffffffffffffffffffffffffffffffffffff82169050919050565b60006122d7826122ac565b9050919050565b6122e7816122cc565b82525050565b600060208201905061230260008301846122de565b92915050565b612311816122cc565b811461231c57600080fd5b50565b60008135905061232e81612308565b92915050565b6000806040838503121561234b5761234a6120d2565b5b60006123598582860161231f565b925050602061236a8582860161226a565b9150509250929050565b60008060006060848603121561238d5761238c6120d2565b5b600061239b8682870161231f565b93505060206123ac8682870161231f565b92505060406123bd8682870161226a565b9150509250925092565b6000819050919050565b6123da816123c7565b81146123e557600080fd5b50565b6000813590506123f7816123d1565b92915050565b600060208284031215612413576124126120d2565b5b6000612421848285016123e8565b91505092915050565b612433816123c7565b82525050565b600060208201905061244e600083018461242a565b92915050565b6000806040838503121561246b5761246a6120d2565b5b6000612479858286016123e8565b925050602061248a8582860161231f565b9150509250929050565b6000602082840312156124aa576124a96120d2565b5b60006124b88482850161231f565b91505092915050565b6124ca81612249565b82525050565b60006020820190506124e560008301846124c1565b92915050565b6124f481612161565b81146124ff57600080fd5b50565b600081359050612511816124eb565b92915050565b6000806040838503121561252e5761252d6120d2565b5b600061253c8582860161231f565b925050602061254d85828601612502565b9150509250929050565b600080fd5b600080fd5b7f4e487b7100000000000000000000000000000000000000000000000000000000600052604160045260246000fd5b612599826121dd565b810181811067ffffffffffffffff821117156125b8576125b7612561565b5b80604052505050565b60006125cb6120c8565b90506125d78282612590565b919050565b600067ffffffffffffffff8211156125f7576125f6612561565b5b612600826121dd565b9050602081019050919050565b82818337600083830152505050565b600061262f61262a846125dc565b6125c1565b90508281526020810184848401111561264b5761264a61255c565b5b61265684828561260d565b509392505050565b600082601f83011261267357612672612557565b5b813561268384826020860161261c565b91505092915050565b600080600080608085870312156126a6576126a56120d2565b5b60006126b48782880161231f565b94505060206126c58782880161231f565b93505060406126d68782880161226a565b925050606085013567ffffffffffffffff8111156126f7576126f66120d7565b5b6127038782880161265e565b91505092959194509250565b60008060408385031215612726576127256120d2565b5b60006127348582860161231f565b92505060206127458582860161231f565b9150509250929050565b7f4e487b7100000000000000000000000000000000000000000000000000000000600052602260045260246000fd5b6000600282049050600182168061279657607f821691505b6020821081036127a9576127a861274f565b5b50919050565b7f4552433732313a20617070726f76616c20746f2063757272656e74206f776e6560008201527f7200000000000000000000000000000000000000000000000000000000000000602082015250565b600061280b6021836121a2565b9150612816826127af565b604082019050919050565b6000602082019050818103600083015261283a816127fe565b9050919050565b7f4552433732313a20617070726f76652063616c6c6572206973206e6f7420746f60008201527f6b656e206f776e6572206f7220617070726f76656420666f7220616c6c000000602082015250565b600061289d603d836121a2565b91506128a882612841565b604082019050919050565b600060208201905081810360008301526128cc81612890565b9050919050565b7f4552433732313a2063616c6c6572206973206e6f7420746f6b656e206f776e6560008201527f72206f7220617070726f76656400000000000000000000000000000000000000602082015250565b600061292f602d836121a2565b915061293a826128d3565b604082019050919050565b6000602082019050818103600083015261295e81612922565b9050919050565b7f416363657373436f6e74726f6c3a2063616e206f6e6c792072656e6f756e636560008201527f20726f6c657320666f722073656c660000000000000000000000000000000000602082015250565b60006129c1602f836121a2565b91506129cc82612965565b604082019050919050565b600060208201905081810360008301526129f0816129b4565b9050919050565b7f4552433732313a20696e76616c696420746f6b656e2049440000000000000000600082015250565b6000612a2d6018836121a2565b9150612a38826129f7565b602082019050919050565b60006020820190508181036000830152612a5c81612a20565b9050919050565b7f4552433732313a2061646472657373207a65726f206973206e6f74206120766160008201527f6c6964206f776e65720000000000000000000000000000000000000000000000602082015250565b6000612abf6029836121a2565b9150612aca82612a63565b604082019050919050565b60006020820190508181036000830152612aee81612ab2565b9050919050565b600081905092915050565b6000612b0b82612197565b612b158185612af5565b9350612b258185602086016121b3565b80840191505092915050565b6000612b3d8285612b00565b9150612b498284612b00565b91508190509392505050565b7f4552433732313a207472616e736665722066726f6d20696e636f72726563742060008201527f6f776e6572000000000000000000000000000000000000000000000000000000602082015250565b6000612bb16025836121a2565b9150612bbc82612b55565b604082019050919050565b60006020820190508181036000830152612be081612ba4565b9050919050565b7f4552433732313a207472616e7366657220746f20746865207a65726f2061646460008201527f7265737300000000000000000000000000000000000000000000000000000000602082015250565b6000612c436024836121a2565b9150612c4e82612be7565b604082019050919050565b60006020820190508181036000830152612c7281612c36565b9050919050565b7f4552433732313a20617070726f766520746f2063616c6c657200000000000000600082015250565b6000612caf6019836121a2565b9150612cba82612c79565b602082019050919050565b60006020820190508181036000830152612cde81612ca2565b9050919050565b7f4552433732313a207472616e7366657220746f206e6f6e20455243373231526560008201527f63656976657220696d706c656d656e7465720000000000000000000000000000602082015250565b6000612d416032836121a2565b9150612d4c82612ce5565b604082019050919050565b60006020820190508181036000830152612d7081612d34565b9050919050565b7f4e487b7100000000000000000000000000000000000000000000000000000000600052601260045260246000fd5b7f4e487b7100000000000000000000000000000000000000000000000000000000600052601160045260246000fd5b6000612de082612249565b9150612deb83612249565b9250828203905081811115612e0357612e02612da6565b5b92915050565b6000612e1482612249565b9150612e1f83612249565b9250828201905080821115612e3757612e36612da6565b5b92915050565b7f416363657373436f6e74726f6c3a206163636f756e7420000000000000000000600082015250565b6000612e73601783612af5565b9150612e7e82612e3d565b601782019050919050565b7f206973206d697373696e6720726f6c6520000000000000000000000000000000600082015250565b6000612ebf601183612af5565b9150612eca82612e89565b601182019050919050565b6000612ee082612e66565b9150612eec8285612b00565b9150612ef782612eb2565b9150612f038284612b00565b91508190509392505050565b600081519050919050565b600082825260208201905092915050565b6000612f3682612f0f565b612f408185612f1a565b9350612f508185602086016121b3565b612f59816121dd565b840191505092915050565b6000608082019050612f7960008301876122de565b612f8660208301866122de565b612f9360408301856124c1565b8181036060830152612fa58184612f2b565b905095945050505050565b600081519050612fbf81612108565b92915050565b600060208284031215612fdb57612fda6120d2565b5b6000612fe984828501612fb0565b91505092915050565b6000612ffd82612249565b915061300883612249565b925082820261301681612249565b9150828204841483151761302d5761302c612da6565b5b5092915050565b7f4e487b7100000000000000000000000000000000000000000000000000000000600052603260045260246000fd5b600061306e82612249565b91506000820361308157613080612da6565b5b600182039050919050565b7f537472696e67733a20686578206c656e67746820696e73756666696369656e74600082015250565b60006130c26020836121a2565b91506130cd8261308c565b602082019050919050565b600060208201905081810360008301526130f1816130b5565b9050919050565b7f4552433732313a206d696e7420746f20746865207a65726f2061646472657373600082015250565b600061312e6020836121a2565b9150613139826130f8565b602082019050919050565b6000602082019050818103600083015261315d81613121565b9050919050565b7f4552433732313a20746f6b656e20616c7265616479206d696e74656400000000600082015250565b600061319a601c836121a2565b91506131a582613164565b602082019050919050565b600060208201905081810360008301526131c98161318d565b905091905056fea2646970667358221220e99df9e7e1195eae0a58c7beafbf75853ce45c889732f9f1caa88ad05b0a338c64736f6c63430008110033",
  "devdoc": {
    "kind": "dev",
    "methods": {
      "approve(address,uint256)": {
        "details": "See {IERC721-approve}."
      },
      "balanceOf(address)": {
        "details": "See {IERC721-balanceOf}."
      },
      "getApproved(uint256)": {
        "details": "See {IERC721-getApproved}."
      },
      "getRoleAdmin(bytes32)": {
        "details": "Returns the admin role that controls `role`. See {grantRole} and {revokeRole}. To change a role's admin, use {_setRoleAdmin}."
      },
      "grantRole(bytes32,address)": {
        "details": "Grants `role` to `account`. If `account` had not been already granted `role`, emits a {RoleGranted} event. Requirements: - the caller must have ``role``'s admin role. May emit a {RoleGranted} event."
      },
      "hasRole(bytes32,address)": {
        "details": "Returns `true` if `account` has been granted `role`."
      },
      "isApprovedForAll(address,address)": {
        "details": "See {IERC721-isApprovedForAll}."
      },
      "name()": {
        "details": "See {IERC721Metadata-name}."
      },
      "ownerOf(uint256)": {
        "details": "See {IERC721-ownerOf}."
      },
      "renounceRole(bytes32,address)": {
        "details": "Revokes `role` from the calling account. Roles are often managed via {grantRole} and {revokeRole}: this function's purpose is to provide a mechanism for accounts to lose their privileges if they are compromised (such as when a trusted device is misplaced). If the calling account had been revoked `role`, emits a {RoleRevoked} event. Requirements: - the caller must be `account`. May emit a {RoleRevoked} event."
      },
      "revokeRole(bytes32,address)": {
        "details": "Revokes `role` from `account`. If `account` had been granted `role`, emits a {RoleRevoked} event. Requirements: - the caller must have ``role``'s admin role. May emit a {RoleRevoked} event."
      },
      "safeTransferFrom(address,address,uint256)": {
        "details": "See {IERC721-safeTransferFrom}."
      },
      "safeTransferFrom(address,address,uint256,bytes)": {
        "details": "See {IERC721-safeTransferFrom}."
      },
      "setApprovalForAll(address,bool)": {
        "details": "See {IERC721-setApprovalForAll}."
      },
      "symbol()": {
        "details": "See {IERC721Metadata-symbol}."
      },
      "tokenURI(uint256)": {
        "details": "See {IERC721Metadata-tokenURI}."
      },
      "transferFrom(address,address,uint256)": {
        "details": "See {IERC721-transferFrom}."
      }
    },
    "version": 1
  },
  "userdoc": {
    "kind": "user",
    "methods": {},
    "version": 1
  },
  "storageLayout": {
    "storage": [
      {
        "astId": 581,
        "contract": "contracts/LocationNFT.sol:LocationNFT",
        "label": "_name",
        "offset": 0,
        "slot": "0",
        "type": "t_string_storage"
      },
      {
        "astId": 583,
        "contract": "contracts/LocationNFT.sol:LocationNFT",
        "label": "_symbol",
        "offset": 0,
        "slot": "1",
        "type": "t_string_storage"
      },
      {
        "astId": 587,
        "contract": "contracts/LocationNFT.sol:LocationNFT",
        "label": "_owners",
        "offset": 0,
        "slot": "2",
        "type": "t_mapping(t_uint256,t_address)"
      },
      {
        "astId": 591,
        "contract": "contracts/LocationNFT.sol:LocationNFT",
        "label": "_balances",
        "offset": 0,
        "slot": "3",
        "type": "t_mapping(t_address,t_uint256)"
      },
      {
        "astId": 595,
        "contract": "contracts/LocationNFT.sol:LocationNFT",
        "label": "_tokenApprovals",
        "offset": 0,
        "slot": "4",
        "type": "t_mapping(t_uint256,t_address)"
      },
      {
        "astId": 601,
        "contract": "contracts/LocationNFT.sol:LocationNFT",
        "label": "_operatorApprovals",
        "offset": 0,
        "slot": "5",
        "type": "t_mapping(t_address,t_mapping(t_address,t_bool))"
      },
      {
        "astId": 24,
        "contract": "contracts/LocationNFT.sol:LocationNFT",
        "label": "_roles",
        "offset": 0,
        "slot": "6",
        "type": "t_mapping(t_bytes32,t_struct(RoleData)19_storage)"
      },
      {
        "astId": 3612,
        "contract": "contracts/LocationNFT.sol:LocationNFT",
        "label": "_tokenIdCounter",
        "offset": 0,
        "slot": "7",
        "type": "t_struct(Counter)2019_storage"
      }
    ],
    "types": {
      "t_address": {
        "encoding": "inplace",
        "label": "address",
        "numberOfBytes": "20"
      },
      "t_bool": {
        "encoding": "inplace",
        "label": "bool",
        "numberOfBytes": "1"
      },
      "t_bytes32": {
        "encoding": "inplace",
        "label": "bytes32",
        "numberOfBytes": "32"
      },
      "t_mapping(t_address,t_bool)": {
        "encoding": "mapping",
        "key": "t_address",
        "label": "mapping(address => bool)",
        "numberOfBytes": "32",
        "value": "t_bool"
      },
      "t_mapping(t_address,t_mapping(t_address,t_bool))": {
        "encoding": "mapping",
        "key": "t_address",
        "label": "mapping(address => mapping(address => bool))",
        "numberOfBytes": "32",
        "value": "t_mapping(t_address,t_bool)"
      },
      "t_mapping(t_address,t_uint256)": {
        "encoding": "mapping",
        "key": "t_address",
        "label": "mapping(address => uint256)",
        "numberOfBytes": "32",
        "value": "t_uint256"
      },
      "t_mapping(t_bytes32,t_struct(RoleData)19_storage)": {
        "encoding": "mapping",
        "key": "t_bytes32",
        "label": "mapping(bytes32 => struct AccessControl.RoleData)",
        "numberOfBytes": "32",
        "value": "t_struct(RoleData)19_storage"
      },
      "t_mapping(t_uint256,t_address)": {
        "encoding": "mapping",
        "key": "t_uint256",
        "label": "mapping(uint256 => address)",
        "numberOfBytes": "32",
        "value": "t_address"
      },
      "t_string_storage": {
        "encoding": "bytes",
        "label": "string",
        "numberOfBytes": "32"
      },
      "t_struct(Counter)2019_storage": {
        "encoding": "inplace",
        "label": "struct Counters.Counter",
        "members": [
          {
            "astId": 2018,
            "contract": "contracts/LocationNFT.sol:LocationNFT",
            "label": "_value",
            "offset": 0,
            "slot": "0",
            "type": "t_uint256"
          }
        ],
        "numberOfBytes": "32"
      },
      "t_struct(RoleData)19_storage": {
        "encoding": "inplace",
        "label": "struct AccessControl.RoleData",
        "members": [
          {
            "astId": 16,
            "contract": "contracts/LocationNFT.sol:LocationNFT",
            "label": "members",
            "offset": 0,
            "slot": "0",
            "type": "t_mapping(t_address,t_bool)"
          },
          {
            "astId": 18,
            "contract": "contracts/LocationNFT.sol:LocationNFT",
            "label": "adminRole",
            "offset": 0,
            "slot": "1",
            "type": "t_bytes32"
          }
        ],
        "numberOfBytes": "64"
      },
      "t_uint256": {
        "encoding": "inplace",
        "label": "uint256",
        "numberOfBytes": "32"
      }
    }
  }
}